{"src/contracts/adapters/AMMAdapter.sol":{"AMMAdapter":{"abi":[{"inputs":[],"stateMutability":"nonpayable","type":"constructor"},{"anonymous":false,"inputs":[{"indexed":true,"internalType":"address","name":"tokenA","type":"address"},{"indexed":true,"internalType":"address","name":"tokenB","type":"address"},{"indexed":false,"internalType":"uint256","name":"amountA","type":"uint256"},{"indexed":false,"internalType":"uint256","name":"amountB","type":"uint256"},{"indexed":true,"internalType":"address","name":"dex","type":"address"}],"name":"LiquidityAdded","type":"event"},{"anonymous":false,"inputs":[{"indexed":true,"internalType":"address","name":"tokenA","type":"address"},{"indexed":true,"internalType":"address","name":"tokenB","type":"address"},{"indexed":false,"internalType":"uint256","name":"amountA","type":"uint256"},{"indexed":false,"internalType":"uint256","name":"amountB","type":"uint256"},{"indexed":true,"internalType":"address","name":"dex","type":"address"}],"name":"LiquidityRemoved","type":"event"},{"anonymous":false,"inputs":[{"indexed":true,"internalType":"address","name":"tokenIn","type":"address"},{"indexed":true,"internalType":"address","name":"tokenOut","type":"address"},{"indexed":false,"internalType":"uint256","name":"amountIn","type":"uint256"},{"indexed":false,"internalType":"uint256","name":"amountOut","type":"uint256"},{"indexed":true,"internalType":"address","name":"dex","type":"address"}],"name":"SwapExecuted","type":"event"},{"inputs":[{"internalType":"address","name":"tokenA","type":"address"},{"internalType":"address","name":"tokenB","type":"address"},{"internalType":"uint256","name":"amountA","type":"uint256"},{"internalType":"uint256","name":"amountB","type":"uint256"},{"internalType":"address","name":"dex","type":"address"}],"name":"addLiquidity","outputs":[{"internalType":"uint256","name":"liquidity","type":"uint256"}],"stateMutability":"nonpayable","type":"function"},{"inputs":[{"internalType":"address","name":"tokenIn","type":"address"},{"internalType":"address","name":"tokenOut","type":"address"},{"internalType":"uint256","name":"amountIn","type":"uint256"}],"name":"calculatePriceImpact","outputs":[{"internalType":"uint256","name":"priceImpact","type":"uint256"}],"stateMutability":"view","type":"function"},{"inputs":[{"internalType":"address","name":"tokenIn","type":"address"},{"internalType":"address","name":"tokenOut","type":"address"},{"internalType":"uint256","name":"amountIn","type":"uint256"},{"internalType":"uint256","name":"minAmountOut","type":"uint256"},{"internalType":"address","name":"dex","type":"address"}],"name":"executeSwap","outputs":[{"internalType":"uint256","name":"amountOut","type":"uint256"}],"stateMutability":"nonpayable","type":"function"},{"inputs":[{"internalType":"address","name":"tokenIn","type":"address"},{"internalType":"address","name":"tokenOut","type":"address"},{"internalType":"uint256","name":"amountIn","type":"uint256"}],"name":"getAmountOut","outputs":[{"internalType":"uint256","name":"amountOut","type":"uint256"}],"stateMutability":"view","type":"function"},{"inputs":[{"internalType":"address","name":"token","type":"address"}],"name":"getTokenPrice","outputs":[{"internalType":"uint256","name":"price","type":"uint256"}],"stateMutability":"view","type":"function"},{"inputs":[{"internalType":"address","name":"tokenA","type":"address"},{"internalType":"address","name":"tokenB","type":"address"},{"internalType":"uint256","name":"liquidity","type":"uint256"},{"internalType":"address","name":"dex","type":"address"}],"name":"removeLiquidity","outputs":[{"internalType":"uint256","name":"amountA","type":"uint256"},{"internalType":"uint256","name":"amountB","type":"uint256"}],"stateMutability":"nonpayable","type":"function"},{"inputs":[{"internalType":"address","name":"token","type":"address"},{"internalType":"uint256","name":"price","type":"uint256"}],"name":"setTokenPrice","outputs":[],"stateMutability":"nonpayable","type":"function"},{"inputs":[{"internalType":"address","name":"","type":"address"}],"name":"tokenPrices","outputs":[{"internalType":"uint256","name":"","type":"uint256"}],"stateMutability":"view","type":"function"}],"evm":{"bytecode":{"linkReferences":{},"object":"6080806040523461009f5760006020819052670de0b6b3a76400007fad3228b676f7d3cd4284a5443f17f1962b36e491b30a40b2405849e597ba5fb555620f42407fada5013122d395ba3c54772283fb069b10426056ef8ca54750cb9bb552a59e7d5560029052690a968163f0a57b4000007fabbb5caa7dda850e60932de0934eb1f9d0f59695050f761dc64e443e5030a5695561099990816100a58239f35b600080fdfe608060408181526004918236101561001657600080fd5b600092833560e01c918263204120bc1461063e5750816335d3766414610548578163431f63c91461047e5781634aa06652146103ce5781634b2fc7bb146102d1578163721318b01461020f57816373d84e42146100b6575063d02641a01461007d57600080fd5b346100b25760203660031901126100b25760209181906001600160a01b036100a3610671565b16815280845220549051908152f35b5080fd5b9190503461020b576100c7366106c1565b91969095909391926001600160a01b03928316929081906100e9851515610706565b16936100f6851515610752565b61010189151561079e565b169361010e8515156107ea565b828152806020526101448682205485835261013f888420549180151580610202575b61013990610836565b8b610882565b6108ab565b906103e5918281029281840414901517156101ef57506103e8900495861061019d57507fee4825a7988c5519a874be79f2a84d13d02cfe5f74cad97cda2d5b55d2b13bfa8460209781519081528789820152a451908152f35b608490602086519162461bcd60e51b8352820152602660248201527f414d4d416461707465723a20496e73756666696369656e74206f757470757420604482015265185b5bdd5b9d60d21b6064820152fd5b634e487b7160e01b815260118352602490fd5b50821515610130565b8280fd5b8284346102ce5761026d6102223661068c565b6001600160a01b03928316939092909161023d851515610706565b16610249811515610752565b821593610256851561079e565b8552846020528585205490855285852054906108ab565b91670de0b6b3a76400009384830291838304861417156102bb5769d3c21bcecceda100000083018093116102bb57602086866102b3876102ad88886108ab565b90610882565b049051908152f35b634e487b7160e01b815260118752602490fd5b80fd5b8383346100b2576102e1366106c1565b909390926001600160a01b0391821692919081906103008515156108cb565b169361030d851515610917565b821515806103c5575b156103825716936103288515156107ea565b8082019687831161036f5750602097507f6c663e88dcc86a651e6a0758b9902b496aa7e7a85977182c8fac129a8ad15ed3918691825191825289820152a4519060011c8152f35b634e487b7160e01b815260118952602490fd5b865162461bcd60e51b81526020818b0152601b60248201527f414d4d416461707465723a20496e76616c696420616d6f756e747300000000006044820152606490fd5b50851515610316565b905082346102ce5761043f61013f6103e53661068c565b92916001600160a01b03908116916103fe831515610706565b169061040b821515610752565b61041684151561079e565b85528460205286852054908552868520549281151580610475575b61043a90610836565b610882565b916103e592838102938185041490151715610462576020836103e8865191048152f35b634e487b7160e01b825260119052602490fd5b50831515610431565b9190503461020b578060031936011261020b57610499610671565b602435926001600160a01b039091169081156105055783156104c2575083528260205282205580f35b606490602084519162461bcd60e51b8352820152601960248201527f414d4d416461707465723a20496e76616c6964207072696365000000000000006044820152fd5b606490602084519162461bcd60e51b8352820152601960248201527f414d4d416461707465723a20496e76616c696420746f6b656e000000000000006044820152fd5b905082346102ce5760803660031901126102ce57610564610671565b6024356001600160a01b03818116929183900361063a5760443591606435948286168096036102ce5750169361059b8515156108cb565b6105a6831515610917565b81156105f757506105b88315156107ea565b60011c927fd18855db300cdd1baf52060b0a20e0775fdd88922464565b49afc0bf7a28266d858051868152866020820152a48151908082526020820152f35b606490602087519162461bcd60e51b8352820152601d60248201527f414d4d416461707465723a20496e76616c6964206c69717569646974790000006044820152fd5b8380fd5b8490843461020b57602036600319011261020b576020926001600160a01b03610665610671565b16815280845220548152f35b600435906001600160a01b038216820361068757565b600080fd5b6060906003190112610687576001600160a01b0390600435828116810361068757916024359081168103610687579060443590565b60a0906003190112610687576001600160a01b036004358181168103610687579160243582811681036106875791604435916064359160843590811681036106875790565b1561070d57565b60405162461bcd60e51b815260206004820152601c60248201527f414d4d416461707465723a20496e76616c696420746f6b656e20696e000000006044820152606490fd5b1561075957565b60405162461bcd60e51b815260206004820152601d60248201527f414d4d416461707465723a20496e76616c696420746f6b656e206f75740000006044820152606490fd5b156107a557565b60405162461bcd60e51b815260206004820152601d60248201527f414d4d416461707465723a20496e76616c696420616d6f756e7420696e0000006044820152606490fd5b156107f157565b60405162461bcd60e51b815260206004820152601760248201527f414d4d416461707465723a20496e76616c6964204445580000000000000000006044820152606490fd5b1561083d57565b60405162461bcd60e51b815260206004820152601f60248201527f414d4d416461707465723a205072696365206e6f7420617661696c61626c65006044820152606490fd5b8181029291811591840414171561089557565b634e487b7160e01b600052601160045260246000fd5b81156108b5570490565b634e487b7160e01b600052601260045260246000fd5b156108d257565b60405162461bcd60e51b815260206004820152601b60248201527f414d4d416461707465723a20496e76616c696420746f6b656e204100000000006044820152606490fd5b1561091e57565b60405162461bcd60e51b815260206004820152601b60248201527f414d4d416461707465723a20496e76616c696420746f6b656e204200000000006044820152606490fdfea2646970667358221220650997984c00771fedcbe810dbe748851ba30d07029ffc48a4d0ff21d65054b764736f6c63430008130033","opcodes":"PUSH1 0x80 DUP1 PUSH1 0x40 MSTORE CALLVALUE PUSH2 0x9F JUMPI PUSH1 0x0 PUSH1 0x20 DUP2 SWAP1 MSTORE PUSH8 0xDE0B6B3A7640000 PUSH32 0xAD3228B676F7D3CD4284A5443F17F1962B36E491B30A40B2405849E597BA5FB5 SSTORE PUSH3 0xF4240 PUSH32 0xADA5013122D395BA3C54772283FB069B10426056EF8CA54750CB9BB552A59E7D SSTORE PUSH1 0x2 SWAP1 MSTORE PUSH10 0xA968163F0A57B400000 PUSH32 0xABBB5CAA7DDA850E60932DE0934EB1F9D0F59695050F761DC64E443E5030A569 SSTORE PUSH2 0x999 SWAP1 DUP2 PUSH2 0xA5 DUP3 CODECOPY RETURN JUMPDEST PUSH1 0x0 DUP1 REVERT INVALID PUSH1 0x80 PUSH1 0x40 DUP2 DUP2 MSTORE PUSH1 0x4 SWAP2 DUP3 CALLDATASIZE LT ISZERO PUSH2 0x16 JUMPI PUSH1 0x0 DUP1 REVERT JUMPDEST PUSH1 0x0 SWAP3 DUP4 CALLDATALOAD PUSH1 0xE0 SHR SWAP2 DUP3 PUSH4 0x204120BC EQ PUSH2 0x63E JUMPI POP DUP2 PUSH4 0x35D37664 EQ PUSH2 0x548 JUMPI DUP2 PUSH4 0x431F63C9 EQ PUSH2 0x47E JUMPI DUP2 PUSH4 0x4AA06652 EQ PUSH2 0x3CE JUMPI DUP2 PUSH4 0x4B2FC7BB EQ PUSH2 0x2D1 JUMPI DUP2 PUSH4 0x721318B0 EQ PUSH2 0x20F JUMPI DUP2 PUSH4 0x73D84E42 EQ PUSH2 0xB6 JUMPI POP PUSH4 0xD02641A0 EQ PUSH2 0x7D JUMPI PUSH1 0x0 DUP1 REVERT JUMPDEST CALLVALUE PUSH2 0xB2 JUMPI PUSH1 0x20 CALLDATASIZE PUSH1 0x3 NOT ADD SLT PUSH2 0xB2 JUMPI PUSH1 0x20 SWAP2 DUP2 SWAP1 PUSH1 0x1 PUSH1 0x1 PUSH1 0xA0 SHL SUB PUSH2 0xA3 PUSH2 0x671 JUMP JUMPDEST AND DUP2 MSTORE DUP1 DUP5 MSTORE KECCAK256 SLOAD SWAP1 MLOAD SWAP1 DUP2 MSTORE RETURN JUMPDEST POP DUP1 REVERT JUMPDEST SWAP2 SWAP1 POP CALLVALUE PUSH2 0x20B JUMPI PUSH2 0xC7 CALLDATASIZE PUSH2 0x6C1 JUMP JUMPDEST SWAP2 SWAP7 SWAP1 SWAP6 SWAP1 SWAP4 SWAP2 SWAP3 PUSH1 0x1 PUSH1 0x1 PUSH1 0xA0 SHL SUB SWAP3 DUP4 AND SWAP3 SWAP1 DUP2 SWAP1 PUSH2 0xE9 DUP6 ISZERO ISZERO PUSH2 0x706 JUMP JUMPDEST AND SWAP4 PUSH2 0xF6 DUP6 ISZERO ISZERO PUSH2 0x752 JUMP JUMPDEST PUSH2 0x101 DUP10 ISZERO ISZERO PUSH2 0x79E JUMP JUMPDEST AND SWAP4 PUSH2 0x10E DUP6 ISZERO ISZERO PUSH2 0x7EA JUMP JUMPDEST DUP3 DUP2 MSTORE DUP1 PUSH1 0x20 MSTORE PUSH2 0x144 DUP7 DUP3 KECCAK256 SLOAD DUP6 DUP4 MSTORE PUSH2 0x13F DUP9 DUP5 KECCAK256 SLOAD SWAP2 DUP1 ISZERO ISZERO DUP1 PUSH2 0x202 JUMPI JUMPDEST PUSH2 0x139 SWAP1 PUSH2 0x836 JUMP JUMPDEST DUP12 PUSH2 0x882 JUMP JUMPDEST PUSH2 0x8AB JUMP JUMPDEST SWAP1 PUSH2 0x3E5 SWAP2 DUP3 DUP2 MUL SWAP3 DUP2 DUP5 DIV EQ SWAP1 ISZERO OR ISZERO PUSH2 0x1EF JUMPI POP PUSH2 0x3E8 SWAP1 DIV SWAP6 DUP7 LT PUSH2 0x19D JUMPI POP PUSH32 0xEE4825A7988C5519A874BE79F2A84D13D02CFE5F74CAD97CDA2D5B55D2B13BFA DUP5 PUSH1 0x20 SWAP8 DUP2 MLOAD SWAP1 DUP2 MSTORE DUP8 DUP10 DUP3 ADD MSTORE LOG4 MLOAD SWAP1 DUP2 MSTORE RETURN JUMPDEST PUSH1 0x84 SWAP1 PUSH1 0x20 DUP7 MLOAD SWAP2 PUSH3 0x461BCD PUSH1 0xE5 SHL DUP4 MSTORE DUP3 ADD MSTORE PUSH1 0x26 PUSH1 0x24 DUP3 ADD MSTORE PUSH32 0x414D4D416461707465723A20496E73756666696369656E74206F757470757420 PUSH1 0x44 DUP3 ADD MSTORE PUSH6 0x185B5BDD5B9D PUSH1 0xD2 SHL PUSH1 0x64 DUP3 ADD MSTORE REVERT JUMPDEST PUSH4 0x4E487B71 PUSH1 0xE0 SHL DUP2 MSTORE PUSH1 0x11 DUP4 MSTORE PUSH1 0x24 SWAP1 REVERT JUMPDEST POP DUP3 ISZERO ISZERO PUSH2 0x130 JUMP JUMPDEST DUP3 DUP1 REVERT JUMPDEST DUP3 DUP5 CALLVALUE PUSH2 0x2CE JUMPI PUSH2 0x26D PUSH2 0x222 CALLDATASIZE PUSH2 0x68C JUMP JUMPDEST PUSH1 0x1 PUSH1 0x1 PUSH1 0xA0 SHL SUB SWAP3 DUP4 AND SWAP4 SWAP1 SWAP3 SWAP1 SWAP2 PUSH2 0x23D DUP6 ISZERO ISZERO PUSH2 0x706 JUMP JUMPDEST AND PUSH2 0x249 DUP2 ISZERO ISZERO PUSH2 0x752 JUMP JUMPDEST DUP3 ISZERO SWAP4 PUSH2 0x256 DUP6 ISZERO PUSH2 0x79E JUMP JUMPDEST DUP6 MSTORE DUP5 PUSH1 0x20 MSTORE DUP6 DUP6 KECCAK256 SLOAD SWAP1 DUP6 MSTORE DUP6 DUP6 KECCAK256 SLOAD SWAP1 PUSH2 0x8AB JUMP JUMPDEST SWAP2 PUSH8 0xDE0B6B3A7640000 SWAP4 DUP5 DUP4 MUL SWAP2 DUP4 DUP4 DIV DUP7 EQ OR ISZERO PUSH2 0x2BB JUMPI PUSH10 0xD3C21BCECCEDA1000000 DUP4 ADD DUP1 SWAP4 GT PUSH2 0x2BB JUMPI PUSH1 0x20 DUP7 DUP7 PUSH2 0x2B3 DUP8 PUSH2 0x2AD DUP9 DUP9 PUSH2 0x8AB JUMP JUMPDEST SWAP1 PUSH2 0x882 JUMP JUMPDEST DIV SWAP1 MLOAD SWAP1 DUP2 MSTORE RETURN JUMPDEST PUSH4 0x4E487B71 PUSH1 0xE0 SHL DUP2 MSTORE PUSH1 0x11 DUP8 MSTORE PUSH1 0x24 SWAP1 REVERT JUMPDEST DUP1 REVERT JUMPDEST DUP4 DUP4 CALLVALUE PUSH2 0xB2 JUMPI PUSH2 0x2E1 CALLDATASIZE PUSH2 0x6C1 JUMP JUMPDEST SWAP1 SWAP4 SWAP1 SWAP3 PUSH1 0x1 PUSH1 0x1 PUSH1 0xA0 SHL SUB SWAP2 DUP3 AND SWAP3 SWAP2 SWAP1 DUP2 SWAP1 PUSH2 0x300 DUP6 ISZERO ISZERO PUSH2 0x8CB JUMP JUMPDEST AND SWAP4 PUSH2 0x30D DUP6 ISZERO ISZERO PUSH2 0x917 JUMP JUMPDEST DUP3 ISZERO ISZERO DUP1 PUSH2 0x3C5 JUMPI JUMPDEST ISZERO PUSH2 0x382 JUMPI AND SWAP4 PUSH2 0x328 DUP6 ISZERO ISZERO PUSH2 0x7EA JUMP JUMPDEST DUP1 DUP3 ADD SWAP7 DUP8 DUP4 GT PUSH2 0x36F JUMPI POP PUSH1 0x20 SWAP8 POP PUSH32 0x6C663E88DCC86A651E6A0758B9902B496AA7E7A85977182C8FAC129A8AD15ED3 SWAP2 DUP7 SWAP2 DUP3 MLOAD SWAP2 DUP3 MSTORE DUP10 DUP3 ADD MSTORE LOG4 MLOAD SWAP1 PUSH1 0x1 SHR DUP2 MSTORE RETURN JUMPDEST PUSH4 0x4E487B71 PUSH1 0xE0 SHL DUP2 MSTORE PUSH1 0x11 DUP10 MSTORE PUSH1 0x24 SWAP1 REVERT JUMPDEST DUP7 MLOAD PUSH3 0x461BCD PUSH1 0xE5 SHL DUP2 MSTORE PUSH1 0x20 DUP2 DUP12 ADD MSTORE PUSH1 0x1B PUSH1 0x24 DUP3 ADD MSTORE PUSH32 0x414D4D416461707465723A20496E76616C696420616D6F756E74730000000000 PUSH1 0x44 DUP3 ADD MSTORE PUSH1 0x64 SWAP1 REVERT JUMPDEST POP DUP6 ISZERO ISZERO PUSH2 0x316 JUMP JUMPDEST SWAP1 POP DUP3 CALLVALUE PUSH2 0x2CE JUMPI PUSH2 0x43F PUSH2 0x13F PUSH2 0x3E5 CALLDATASIZE PUSH2 0x68C JUMP JUMPDEST SWAP3 SWAP2 PUSH1 0x1 PUSH1 0x1 PUSH1 0xA0 SHL SUB SWAP1 DUP2 AND SWAP2 PUSH2 0x3FE DUP4 ISZERO ISZERO PUSH2 0x706 JUMP JUMPDEST AND SWAP1 PUSH2 0x40B DUP3 ISZERO ISZERO PUSH2 0x752 JUMP JUMPDEST PUSH2 0x416 DUP5 ISZERO ISZERO PUSH2 0x79E JUMP JUMPDEST DUP6 MSTORE DUP5 PUSH1 0x20 MSTORE DUP7 DUP6 KECCAK256 SLOAD SWAP1 DUP6 MSTORE DUP7 DUP6 KECCAK256 SLOAD SWAP3 DUP2 ISZERO ISZERO DUP1 PUSH2 0x475 JUMPI JUMPDEST PUSH2 0x43A SWAP1 PUSH2 0x836 JUMP JUMPDEST PUSH2 0x882 JUMP JUMPDEST SWAP2 PUSH2 0x3E5 SWAP3 DUP4 DUP2 MUL SWAP4 DUP2 DUP6 DIV EQ SWAP1 ISZERO OR ISZERO PUSH2 0x462 JUMPI PUSH1 0x20 DUP4 PUSH2 0x3E8 DUP7 MLOAD SWAP2 DIV DUP2 MSTORE RETURN JUMPDEST PUSH4 0x4E487B71 PUSH1 0xE0 SHL DUP3 MSTORE PUSH1 0x11 SWAP1 MSTORE PUSH1 0x24 SWAP1 REVERT JUMPDEST POP DUP4 ISZERO ISZERO PUSH2 0x431 JUMP JUMPDEST SWAP2 SWAP1 POP CALLVALUE PUSH2 0x20B JUMPI DUP1 PUSH1 0x3 NOT CALLDATASIZE ADD SLT PUSH2 0x20B JUMPI PUSH2 0x499 PUSH2 0x671 JUMP JUMPDEST PUSH1 0x24 CALLDATALOAD SWAP3 PUSH1 0x1 PUSH1 0x1 PUSH1 0xA0 SHL SUB SWAP1 SWAP2 AND SWAP1 DUP2 ISZERO PUSH2 0x505 JUMPI DUP4 ISZERO PUSH2 0x4C2 JUMPI POP DUP4 MSTORE DUP3 PUSH1 0x20 MSTORE DUP3 KECCAK256 SSTORE DUP1 RETURN JUMPDEST PUSH1 0x64 SWAP1 PUSH1 0x20 DUP5 MLOAD SWAP2 PUSH3 0x461BCD PUSH1 0xE5 SHL DUP4 MSTORE DUP3 ADD MSTORE PUSH1 0x19 PUSH1 0x24 DUP3 ADD MSTORE PUSH32 0x414D4D416461707465723A20496E76616C696420707269636500000000000000 PUSH1 0x44 DUP3 ADD MSTORE REVERT JUMPDEST PUSH1 0x64 SWAP1 PUSH1 0x20 DUP5 MLOAD SWAP2 PUSH3 0x461BCD PUSH1 0xE5 SHL DUP4 MSTORE DUP3 ADD MSTORE PUSH1 0x19 PUSH1 0x24 DUP3 ADD MSTORE PUSH32 0x414D4D416461707465723A20496E76616C696420746F6B656E00000000000000 PUSH1 0x44 DUP3 ADD MSTORE REVERT JUMPDEST SWAP1 POP DUP3 CALLVALUE PUSH2 0x2CE JUMPI PUSH1 0x80 CALLDATASIZE PUSH1 0x3 NOT ADD SLT PUSH2 0x2CE JUMPI PUSH2 0x564 PUSH2 0x671 JUMP JUMPDEST PUSH1 0x24 CALLDATALOAD PUSH1 0x1 PUSH1 0x1 PUSH1 0xA0 SHL SUB DUP2 DUP2 AND SWAP3 SWAP2 DUP4 SWAP1 SUB PUSH2 0x63A JUMPI PUSH1 0x44 CALLDATALOAD SWAP2 PUSH1 0x64 CALLDATALOAD SWAP5 DUP3 DUP7 AND DUP1 SWAP7 SUB PUSH2 0x2CE JUMPI POP AND SWAP4 PUSH2 0x59B DUP6 ISZERO ISZERO PUSH2 0x8CB JUMP JUMPDEST PUSH2 0x5A6 DUP4 ISZERO ISZERO PUSH2 0x917 JUMP JUMPDEST DUP2 ISZERO PUSH2 0x5F7 JUMPI POP PUSH2 0x5B8 DUP4 ISZERO ISZERO PUSH2 0x7EA JUMP JUMPDEST PUSH1 0x1 SHR SWAP3 PUSH32 0xD18855DB300CDD1BAF52060B0A20E0775FDD88922464565B49AFC0BF7A28266D DUP6 DUP1 MLOAD DUP7 DUP2 MSTORE DUP7 PUSH1 0x20 DUP3 ADD MSTORE LOG4 DUP2 MLOAD SWAP1 DUP1 DUP3 MSTORE PUSH1 0x20 DUP3 ADD MSTORE RETURN JUMPDEST PUSH1 0x64 SWAP1 PUSH1 0x20 DUP8 MLOAD SWAP2 PUSH3 0x461BCD PUSH1 0xE5 SHL DUP4 MSTORE DUP3 ADD MSTORE PUSH1 0x1D PUSH1 0x24 DUP3 ADD MSTORE PUSH32 0x414D4D416461707465723A20496E76616C6964206C6971756964697479000000 PUSH1 0x44 DUP3 ADD MSTORE REVERT JUMPDEST DUP4 DUP1 REVERT JUMPDEST DUP5 SWAP1 DUP5 CALLVALUE PUSH2 0x20B JUMPI PUSH1 0x20 CALLDATASIZE PUSH1 0x3 NOT ADD SLT PUSH2 0x20B JUMPI PUSH1 0x20 SWAP3 PUSH1 0x1 PUSH1 0x1 PUSH1 0xA0 SHL SUB PUSH2 0x665 PUSH2 0x671 JUMP JUMPDEST AND DUP2 MSTORE DUP1 DUP5 MSTORE KECCAK256 SLOAD DUP2 MSTORE RETURN JUMPDEST PUSH1 0x4 CALLDATALOAD SWAP1 PUSH1 0x1 PUSH1 0x1 PUSH1 0xA0 SHL SUB DUP3 AND DUP3 SUB PUSH2 0x687 JUMPI JUMP JUMPDEST PUSH1 0x0 DUP1 REVERT JUMPDEST PUSH1 0x60 SWAP1 PUSH1 0x3 NOT ADD SLT PUSH2 0x687 JUMPI PUSH1 0x1 PUSH1 0x1 PUSH1 0xA0 SHL SUB SWAP1 PUSH1 0x4 CALLDATALOAD DUP3 DUP2 AND DUP2 SUB PUSH2 0x687 JUMPI SWAP2 PUSH1 0x24 CALLDATALOAD SWAP1 DUP2 AND DUP2 SUB PUSH2 0x687 JUMPI SWAP1 PUSH1 0x44 CALLDATALOAD SWAP1 JUMP JUMPDEST PUSH1 0xA0 SWAP1 PUSH1 0x3 NOT ADD SLT PUSH2 0x687 JUMPI PUSH1 0x1 PUSH1 0x1 PUSH1 0xA0 SHL SUB PUSH1 0x4 CALLDATALOAD DUP2 DUP2 AND DUP2 SUB PUSH2 0x687 JUMPI SWAP2 PUSH1 0x24 CALLDATALOAD DUP3 DUP2 AND DUP2 SUB PUSH2 0x687 JUMPI SWAP2 PUSH1 0x44 CALLDATALOAD SWAP2 PUSH1 0x64 CALLDATALOAD SWAP2 PUSH1 0x84 CALLDATALOAD SWAP1 DUP2 AND DUP2 SUB PUSH2 0x687 JUMPI SWAP1 JUMP JUMPDEST ISZERO PUSH2 0x70D JUMPI JUMP JUMPDEST PUSH1 0x40 MLOAD PUSH3 0x461BCD PUSH1 0xE5 SHL DUP2 MSTORE PUSH1 0x20 PUSH1 0x4 DUP3 ADD MSTORE PUSH1 0x1C PUSH1 0x24 DUP3 ADD MSTORE PUSH32 0x414D4D416461707465723A20496E76616C696420746F6B656E20696E00000000 PUSH1 0x44 DUP3 ADD MSTORE PUSH1 0x64 SWAP1 REVERT JUMPDEST ISZERO PUSH2 0x759 JUMPI JUMP JUMPDEST PUSH1 0x40 MLOAD PUSH3 0x461BCD PUSH1 0xE5 SHL DUP2 MSTORE PUSH1 0x20 PUSH1 0x4 DUP3 ADD MSTORE PUSH1 0x1D PUSH1 0x24 DUP3 ADD MSTORE PUSH32 0x414D4D416461707465723A20496E76616C696420746F6B656E206F7574000000 PUSH1 0x44 DUP3 ADD MSTORE PUSH1 0x64 SWAP1 REVERT JUMPDEST ISZERO PUSH2 0x7A5 JUMPI JUMP JUMPDEST PUSH1 0x40 MLOAD PUSH3 0x461BCD PUSH1 0xE5 SHL DUP2 MSTORE PUSH1 0x20 PUSH1 0x4 DUP3 ADD MSTORE PUSH1 0x1D PUSH1 0x24 DUP3 ADD MSTORE PUSH32 0x414D4D416461707465723A20496E76616C696420616D6F756E7420696E000000 PUSH1 0x44 DUP3 ADD MSTORE PUSH1 0x64 SWAP1 REVERT JUMPDEST ISZERO PUSH2 0x7F1 JUMPI JUMP JUMPDEST PUSH1 0x40 MLOAD PUSH3 0x461BCD PUSH1 0xE5 SHL DUP2 MSTORE PUSH1 0x20 PUSH1 0x4 DUP3 ADD MSTORE PUSH1 0x17 PUSH1 0x24 DUP3 ADD MSTORE PUSH32 0x414D4D416461707465723A20496E76616C696420444558000000000000000000 PUSH1 0x44 DUP3 ADD MSTORE PUSH1 0x64 SWAP1 REVERT JUMPDEST ISZERO PUSH2 0x83D JUMPI JUMP JUMPDEST PUSH1 0x40 MLOAD PUSH3 0x461BCD PUSH1 0xE5 SHL DUP2 MSTORE PUSH1 0x20 PUSH1 0x4 DUP3 ADD MSTORE PUSH1 0x1F PUSH1 0x24 DUP3 ADD MSTORE PUSH32 0x414D4D416461707465723A205072696365206E6F7420617661696C61626C6500 PUSH1 0x44 DUP3 ADD MSTORE PUSH1 0x64 SWAP1 REVERT JUMPDEST DUP2 DUP2 MUL SWAP3 SWAP2 DUP2 ISZERO SWAP2 DUP5 DIV EQ OR ISZERO PUSH2 0x895 JUMPI JUMP JUMPDEST PUSH4 0x4E487B71 PUSH1 0xE0 SHL PUSH1 0x0 MSTORE PUSH1 0x11 PUSH1 0x4 MSTORE PUSH1 0x24 PUSH1 0x0 REVERT JUMPDEST DUP2 ISZERO PUSH2 0x8B5 JUMPI DIV SWAP1 JUMP JUMPDEST PUSH4 0x4E487B71 PUSH1 0xE0 SHL PUSH1 0x0 MSTORE PUSH1 0x12 PUSH1 0x4 MSTORE PUSH1 0x24 PUSH1 0x0 REVERT JUMPDEST ISZERO PUSH2 0x8D2 JUMPI JUMP JUMPDEST PUSH1 0x40 MLOAD PUSH3 0x461BCD PUSH1 0xE5 SHL DUP2 MSTORE PUSH1 0x20 PUSH1 0x4 DUP3 ADD MSTORE PUSH1 0x1B PUSH1 0x24 DUP3 ADD MSTORE PUSH32 0x414D4D416461707465723A20496E76616C696420746F6B656E20410000000000 PUSH1 0x44 DUP3 ADD MSTORE PUSH1 0x64 SWAP1 REVERT JUMPDEST ISZERO PUSH2 0x91E JUMPI JUMP JUMPDEST PUSH1 0x40 MLOAD PUSH3 0x461BCD PUSH1 0xE5 SHL DUP2 MSTORE PUSH1 0x20 PUSH1 0x4 DUP3 ADD MSTORE PUSH1 0x1B PUSH1 0x24 DUP3 ADD MSTORE PUSH32 0x414D4D416461707465723A20496E76616C696420746F6B656E20420000000000 PUSH1 0x44 DUP3 ADD MSTORE PUSH1 0x64 SWAP1 REVERT INVALID LOG2 PUSH5 0x6970667358 0x22 SLT KECCAK256 PUSH6 0x997984C0077 0x1F 0xED 0xCB 0xE8 LT 0xDB 0xE7 BASEFEE DUP6 SHL LOG3 0xD SMOD MUL SWAP16 0xFC BASEFEE LOG4 0xD0 SELFDESTRUCT 0x21 0xD6 POP SLOAD 0xB7 PUSH5 0x736F6C6343 STOP ADDMOD SGT STOP CALLER "},"methodIdentifiers":{"addLiquidity(address,address,uint256,uint256,address)":"4b2fc7bb","calculatePriceImpact(address,address,uint256)":"721318b0","executeSwap(address,address,uint256,uint256,address)":"73d84e42","getAmountOut(address,address,uint256)":"4aa06652","getTokenPrice(address)":"d02641a0","removeLiquidity(address,address,uint256,address)":"35d37664","setTokenPrice(address,uint256)":"431f63c9","tokenPrices(address)":"204120bc"}}}}}