{"src/contracts/PolicyManager.sol":{"PolicyManager":{"abi":[{"anonymous":false,"inputs":[{"indexed":true,"internalType":"address","name":"previousOwner","type":"address"},{"indexed":true,"internalType":"address","name":"newOwner","type":"address"}],"name":"OwnershipTransferred","type":"event"},{"anonymous":false,"inputs":[{"indexed":true,"internalType":"address","name":"vault","type":"address"},{"indexed":true,"internalType":"uint256","name":"policyId","type":"uint256"}],"name":"PolicyCreated","type":"event"},{"anonymous":false,"inputs":[{"indexed":true,"internalType":"address","name":"vault","type":"address"},{"indexed":true,"internalType":"uint256","name":"policyId","type":"uint256"}],"name":"PolicyDeactivated","type":"event"},{"anonymous":false,"inputs":[{"indexed":true,"internalType":"address","name":"vault","type":"address"},{"indexed":true,"internalType":"uint256","name":"policyId","type":"uint256"}],"name":"PolicyUpdated","type":"event"},{"inputs":[],"name":"MAX_EMERGENCY_THRESHOLD","outputs":[{"internalType":"uint256","name":"","type":"uint256"}],"stateMutability":"view","type":"function"},{"inputs":[],"name":"MAX_RISK_TOLERANCE","outputs":[{"internalType":"uint256","name":"","type":"uint256"}],"stateMutability":"view","type":"function"},{"inputs":[],"name":"MAX_TRADE_PERCENT","outputs":[{"internalType":"uint256","name":"","type":"uint256"}],"stateMutability":"view","type":"function"},{"inputs":[{"internalType":"address","name":"validator","type":"address"}],"name":"addAuthorizedValidator","outputs":[],"stateMutability":"nonpayable","type":"function"},{"inputs":[{"internalType":"address","name":"","type":"address"}],"name":"authorizedValidators","outputs":[{"internalType":"bool","name":"","type":"bool"}],"stateMutability":"view","type":"function"},{"inputs":[{"internalType":"address","name":"vault","type":"address"}],"name":"deactivatePolicy","outputs":[],"stateMutability":"nonpayable","type":"function"},{"inputs":[{"internalType":"address","name":"vault","type":"address"}],"name":"getPolicy","outputs":[{"components":[{"internalType":"uint256","name":"riskTolerance","type":"uint256"},{"internalType":"uint256","name":"maxTradePercent","type":"uint256"},{"internalType":"uint256","name":"emergencyThreshold","type":"uint256"},{"internalType":"address[]","name":"allowedDex","type":"address[]"},{"internalType":"bool","name":"isActive","type":"bool"},{"internalType":"uint256","name":"createdAt","type":"uint256"},{"internalType":"uint256","name":"updatedAt","type":"uint256"}],"internalType":"struct PolicyManager.Policy","name":"policy","type":"tuple"}],"stateMutability":"view","type":"function"},{"inputs":[{"internalType":"address","name":"vault","type":"address"}],"name":"hasActivePolicy","outputs":[{"internalType":"bool","name":"hasPolicy","type":"bool"}],"stateMutability":"view","type":"function"},{"inputs":[],"name":"owner","outputs":[{"internalType":"address","name":"","type":"address"}],"stateMutability":"view","type":"function"},{"inputs":[{"internalType":"address","name":"validator","type":"address"}],"name":"removeAuthorizedValidator","outputs":[],"stateMutability":"nonpayable","type":"function"},{"inputs":[],"name":"renounceOwnership","outputs":[],"stateMutability":"nonpayable","type":"function"},{"inputs":[{"internalType":"address","name":"vault","type":"address"},{"internalType":"uint256","name":"riskTolerance","type":"uint256"},{"internalType":"uint256","name":"maxTradePercent","type":"uint256"},{"internalType":"uint256","name":"emergencyThreshold","type":"uint256"},{"internalType":"address[]","name":"allowedDex","type":"address[]"}],"name":"setPolicy","outputs":[],"stateMutability":"nonpayable","type":"function"},{"inputs":[{"internalType":"address","name":"newOwner","type":"address"}],"name":"transferOwnership","outputs":[],"stateMutability":"nonpayable","type":"function"},{"inputs":[{"internalType":"address","name":"vault","type":"address"},{"internalType":"uint8","name":"actionType","type":"uint8"},{"internalType":"bytes","name":"params","type":"bytes"}],"name":"validateAction","outputs":[{"internalType":"bool","name":"isValid","type":"bool"},{"internalType":"string","name":"message","type":"string"}],"stateMutability":"view","type":"function"},{"inputs":[{"internalType":"address","name":"","type":"address"}],"name":"vaultPolicies","outputs":[{"internalType":"uint256","name":"riskTolerance","type":"uint256"},{"internalType":"uint256","name":"maxTradePercent","type":"uint256"},{"internalType":"uint256","name":"emergencyThreshold","type":"uint256"},{"internalType":"bool","name":"isActive","type":"bool"},{"internalType":"uint256","name":"createdAt","type":"uint256"},{"internalType":"uint256","name":"updatedAt","type":"uint256"}],"stateMutability":"view","type":"function"}],"evm":{"bytecode":{"linkReferences":{},"object":"6080806040523461005b5760008054336001600160a01b0319821681178355916001600160a01b03909116907f8be0079c531659141344cd1fd0a4f28419497f9722a3daafe3b4186f6b6457e09080a36112a090816100618239f35b600080fdfe6080604052600436101561001257600080fd5b60003560e01c80630b2a892a14610c0e5780633791dc6a14610a8c578063388cfb3b146102d85780635871416314610a4d5780635eba2526146109d75780635f79b26b1461056e5780636c26f2bc14610529578063715018a6146104d05780638da5cb5b146104a7578063b0d5e4d5146103b7578063bb287131146102dd578063d04ac29d146102d8578063dbe3051d146102d8578063e9340a781461018f5763f2fde38b146100c157600080fd5b3461018a57602036600319011261018a576100da610c50565b6100e2610c82565b6001600160a01b0390811690811561013657600054826bffffffffffffffffffffffff60a01b821617600055167f8be0079c531659141344cd1fd0a4f28419497f9722a3daafe3b4186f6b6457e0600080a3005b60405162461bcd60e51b815260206004820152602660248201527f4f776e61626c653a206e6577206f776e657220697320746865207a65726f206160448201526564647265737360d01b6064820152608490fd5b600080fd5b3461018a5760608060031936011261018a576101a9610c50565b906024359060ff8216820361018a576044359267ffffffffffffffff9081851161018a573660238601121561018a57846004013591821161018a57366024838701011161018a57336000526020936002855260ff6040600020541680156102c4575b1561027157602461021f9495960191610d99565b6040519384921515835260408184015281519182604085015260005b83811061025b575050600083830185015250601f01601f19168101030190f35b818101830151878201870152869450820161023b565b60405162461bcd60e51b815260048101869052602560248201527f506f6c6963794d616e616765723a20556e617574686f72697a65642076616c696044820152643230ba37b960d91b6064820152608490fd5b506000546001600160a01b0316331461020b565b610c66565b3461018a57602036600319011261018a576102f6610c50565b6102fe610c82565b6001600160a01b0316600081815260016020526040902060050154156103665780600052600160205260406000206004810160ff198154169055600642910155807f3ffdfc47aeee903849a80971f2e5b39d79fcc09d99d84dc63a313059b9e14cdd600080a3005b60405162461bcd60e51b8152602060048201526024808201527f506f6c6963794d616e616765723a20506f6c69637920646f6573206e6f7420656044820152631e1a5cdd60e21b6064820152608490fd5b3461018a5760208060031936011261018a576001600160a01b03806103da610c50565b166000526001808352604060002090604051926103f684610d23565b8254845281830154858501526002830154604085015260038301604051908193849288835491828152019260005288600020946000905b8a83831061048d57505050505061044692500382610d77565b606083015260ff60048201541615159182608082015260c060066005840154938460a0850152015491015215159081610485575b506040519015158152f35b90508261047a565b87548216865296840196889650909401939083019061042d565b3461018a57600036600319011261018a576000546040516001600160a01b039091168152602090f35b3461018a57600036600319011261018a576104e9610c82565b600080546001600160a01b0319811682556001600160a01b03167f8be0079c531659141344cd1fd0a4f28419497f9722a3daafe3b4186f6b6457e08280a3005b3461018a57602036600319011261018a57610542610c50565b61054a610c82565b6001600160a01b03166000908152600260205260409020805460ff19166001179055005b3461018a5760a036600319011261018a57610587610c50565b67ffffffffffffffff806084351161018a5736602360843501121561018a57608435600401351161018a573660246084356004013560051b60843501011161018a576105d1610c82565b606460243511610984576064604435116109335760648035116108db576001600160a01b0381161561088a5760843560040135156108305760018060a01b0381166000526001602052604060002060058101541560243582556044356001830155606435600283015560048201600160ff1982541617905542600683015560038201546000600384015580610806575b5060005b6084356004013581106106e35750156106b15742600591909101556001600160a01b0316807f0c82a59457f321d45ec38f6aaf95786bb68907c4273ed492d000832b5951c486600080a3005b506001600160a01b0316807f6d69364a3d2877037e33cea027500f2c22234886348c83cca1207d145b52bb23600080a3005b6001600160a01b0361070861070383608435600481013590602401610cff565b610d0f565b16156107b6576107276107038260843560040135602460843501610cff565b90600384015491680100000000000000008310156107a0576001830180600387015583101561078a5761078592600386016000526020600020019060018060a01b03166bffffffffffffffffffffffff60a01b825416179055610cda565b610665565b634e487b7160e01b600052603260045260246000fd5b634e487b7160e01b600052604160045260246000fd5b60405162461bcd60e51b815260206004820152602260248201527f506f6c6963794d616e616765723a20496e76616c696420444558206164647265604482015261737360f01b6064820152608490fd5b600383016000526020600020908101905b8181106108245750610661565b60008155600101610817565b60405162461bcd60e51b815260206004820152602c60248201527f506f6c6963794d616e616765723a204d7573742073706563696679206174206c60448201526b0cac2e6e840dedcca40888ab60a31b6064820152608490fd5b60405162461bcd60e51b8152602060048201526024808201527f506f6c6963794d616e616765723a20496e76616c6964207661756c74206164646044820152637265737360e01b6064820152608490fd5b60405162461bcd60e51b815260206004820152602a60248201527f506f6c6963794d616e616765723a20496e76616c696420656d657267656e6379604482015269081d1a1c995cda1bdb1960b21b6064820152608490fd5b60405162461bcd60e51b8152602060048201526024808201527f506f6c6963794d616e616765723a20496e76616c69642074726164652070657260448201526318d95b9d60e21b6064820152608490fd5b60405162461bcd60e51b815260206004820152602560248201527f506f6c6963794d616e616765723a20496e76616c6964207269736b20746f6c6560448201526472616e636560d81b6064820152608490fd5b3461018a57602036600319011261018a576001600160a01b036109f8610c50565b16600052600160205260c06040600020805490600181015490600281015460ff6004830154169060066005840154930154936040519586526020860152604085015215156060840152608083015260a0820152f35b3461018a57602036600319011261018a576001600160a01b03610a6e610c50565b166000526002602052602060ff604060002054166040519015158152f35b3461018a5760208060031936011261018a57610aa6610c50565b600060c0604051610ab681610d23565b82815282858201528260408201526060808201528260808201528260a0820152015260018060a01b0380911660005260019182815260406000209160405192610afe84610d23565b805484528481015493838101948552600282015492604082019384526003830191604051928387825491828152019160005287600020908a60005b828110610bf9575050505083610b50910384610d77565b6060810192835260ff60048501541692608082019315158452600660058601549560a0840196875201549560c0830196875260405198888a526101008a019351898b01525160408a0152516060890152519560e0608089015286518092528061012089019701926000905b838210610be257505050505084955051151560a08501525160c08401525160e08301520390f35b8451811689529782019793820193908a0190610bbb565b835487168552938a0193928101928101610b39565b3461018a57602036600319011261018a57610c27610c50565b610c2f610c82565b6001600160a01b03166000908152600260205260409020805460ff19169055005b600435906001600160a01b038216820361018a57565b3461018a57600036600319011261018a57602060405160648152f35b6000546001600160a01b03163303610c9657565b606460405162461bcd60e51b815260206004820152602060248201527f4f776e61626c653a2063616c6c6572206973206e6f7420746865206f776e65726044820152fd5b6000198114610ce95760010190565b634e487b7160e01b600052601160045260246000fd5b919081101561078a5760051b0190565b356001600160a01b038116810361018a5790565b60e0810190811067ffffffffffffffff8211176107a057604052565b6060810190811067ffffffffffffffff8211176107a057604052565b6020810190811067ffffffffffffffff8211176107a057604052565b90601f8019910116810190811067ffffffffffffffff8211176107a057604052565b919392909360018060a01b039283600091168152600190602091808352604097888320895197610dc889610d23565b8154895283820154868a015260028201548b8a01528a5160038301805480835290875287872091928391828a019189905b898c848410610f71575050505050610e1392500382610d77565b606089015260ff6004820154169060808901911515825260066005820154918260a08c0152015460c08a015215610f21575115610ed95760ff169081610e665750505050610e62939450610fac565b9091565b8103610e7a57505050610e62939450611128565b600203610e8e575050610e629394506111c5565b91509250656e207479706560d01b9150937f506f6c6963794d616e616765723a20556e737570706f7274656420616374696f815193610ecc85610d3f565b6026855284015282015290565b505091509250606560f81b9150937f506f6c6963794d616e616765723a20506f6c69637920697320696e6163746976815193610f1485610d3f565b6021855284015282015290565b50505091509250671bdc881d985d5b1d60c21b9150937f506f6c6963794d616e616765723a204e6f20706f6c69637920666f756e642066815193610f6485610d3f565b6028855284015282015290565b87548316865296810196889650909401939190910190610df9565b8115610f96570490565b634e487b7160e01b600052601260045260246000fd5b91829160609384918101031261018a576001600160a01b038235818116939084900361018a5760209384820135926000805b88870151805182101561110357838986928460051b010151161461100a5761100590610cda565b610fde565b50505050909192935060015b156110b357606482029180830460641490151715610ce9578391604061103e92013590610f8c565b9101511061105d575060019060405161105681610d5b565b6000815290565b906000917f506f6c6963794d616e616765723a2054726164652073697a65206578636565646040519161108f83610d3f565b60318352820152701cc81b585e1a5b5d5b48185b1b1bddd959607a1b604082015290565b505050906000917f506f6c6963794d616e616765723a20444558206e6f7420616c6c6f7765642062604051916110e883610d3f565b60288352820152677920706f6c69637960c01b604082015290565b50509293949596505050611016565b919082604091031261018a576020823592013590565b61113491810190611112565b90606481029080820460641490151715610ce95760209161115491610f8c565b9101511061116b5760019060405161105681610d5b565b60009060405161117a81610d3f565b603581527f506f6c6963794d616e616765723a204c656e64696e6720616d6f756e7420657860208201527418d959591cc81b585e1a5b5d5b48185b1b1bddd959605a1b604082015290565b6111d191810190611112565b90606481029080820460641490151715610ce9576020916111f191610f8c565b910151106112085760019060405161105681610d5b565b60009060405161121781610d3f565b603781527f506f6c6963794d616e616765723a20426f72726f77696e6720616d6f756e742060208201527f65786365656473206d6178696d756d20616c6c6f77656400000000000000000060408201529056fea26469706673582212209a41db6b606f18368e8165e59fd38faeea291e9338b5487ed44ead263d268a9b64736f6c63430008130033","opcodes":"PUSH1 0x80 DUP1 PUSH1 0x40 MSTORE CALLVALUE PUSH2 0x5B JUMPI PUSH1 0x0 DUP1 SLOAD CALLER PUSH1 0x1 PUSH1 0x1 PUSH1 0xA0 SHL SUB NOT DUP3 AND DUP2 OR DUP4 SSTORE SWAP2 PUSH1 0x1 PUSH1 0x1 PUSH1 0xA0 SHL SUB SWAP1 SWAP2 AND SWAP1 PUSH32 0x8BE0079C531659141344CD1FD0A4F28419497F9722A3DAAFE3B4186F6B6457E0 SWAP1 DUP1 LOG3 PUSH2 0x12A0 SWAP1 DUP2 PUSH2 0x61 DUP3 CODECOPY RETURN JUMPDEST PUSH1 0x0 DUP1 REVERT INVALID PUSH1 0x80 PUSH1 0x40 MSTORE PUSH1 0x4 CALLDATASIZE LT ISZERO PUSH2 0x12 JUMPI PUSH1 0x0 DUP1 REVERT JUMPDEST PUSH1 0x0 CALLDATALOAD PUSH1 0xE0 SHR DUP1 PUSH4 0xB2A892A EQ PUSH2 0xC0E JUMPI DUP1 PUSH4 0x3791DC6A EQ PUSH2 0xA8C JUMPI DUP1 PUSH4 0x388CFB3B EQ PUSH2 0x2D8 JUMPI DUP1 PUSH4 0x58714163 EQ PUSH2 0xA4D JUMPI DUP1 PUSH4 0x5EBA2526 EQ PUSH2 0x9D7 JUMPI DUP1 PUSH4 0x5F79B26B EQ PUSH2 0x56E JUMPI DUP1 PUSH4 0x6C26F2BC EQ PUSH2 0x529 JUMPI DUP1 PUSH4 0x715018A6 EQ PUSH2 0x4D0 JUMPI DUP1 PUSH4 0x8DA5CB5B EQ PUSH2 0x4A7 JUMPI DUP1 PUSH4 0xB0D5E4D5 EQ PUSH2 0x3B7 JUMPI DUP1 PUSH4 0xBB287131 EQ PUSH2 0x2DD JUMPI DUP1 PUSH4 0xD04AC29D EQ PUSH2 0x2D8 JUMPI DUP1 PUSH4 0xDBE3051D EQ PUSH2 0x2D8 JUMPI DUP1 PUSH4 0xE9340A78 EQ PUSH2 0x18F JUMPI PUSH4 0xF2FDE38B EQ PUSH2 0xC1 JUMPI PUSH1 0x0 DUP1 REVERT JUMPDEST CALLVALUE PUSH2 0x18A JUMPI PUSH1 0x20 CALLDATASIZE PUSH1 0x3 NOT ADD SLT PUSH2 0x18A JUMPI PUSH2 0xDA PUSH2 0xC50 JUMP JUMPDEST PUSH2 0xE2 PUSH2 0xC82 JUMP JUMPDEST PUSH1 0x1 PUSH1 0x1 PUSH1 0xA0 SHL SUB SWAP1 DUP2 AND SWAP1 DUP2 ISZERO PUSH2 0x136 JUMPI PUSH1 0x0 SLOAD DUP3 PUSH12 0xFFFFFFFFFFFFFFFFFFFFFFFF PUSH1 0xA0 SHL DUP3 AND OR PUSH1 0x0 SSTORE AND PUSH32 0x8BE0079C531659141344CD1FD0A4F28419497F9722A3DAAFE3B4186F6B6457E0 PUSH1 0x0 DUP1 LOG3 STOP JUMPDEST PUSH1 0x40 MLOAD PUSH3 0x461BCD PUSH1 0xE5 SHL DUP2 MSTORE PUSH1 0x20 PUSH1 0x4 DUP3 ADD MSTORE PUSH1 0x26 PUSH1 0x24 DUP3 ADD MSTORE PUSH32 0x4F776E61626C653A206E6577206F776E657220697320746865207A65726F2061 PUSH1 0x44 DUP3 ADD MSTORE PUSH6 0x646472657373 PUSH1 0xD0 SHL PUSH1 0x64 DUP3 ADD MSTORE PUSH1 0x84 SWAP1 REVERT JUMPDEST PUSH1 0x0 DUP1 REVERT JUMPDEST CALLVALUE PUSH2 0x18A JUMPI PUSH1 0x60 DUP1 PUSH1 0x3 NOT CALLDATASIZE ADD SLT PUSH2 0x18A JUMPI PUSH2 0x1A9 PUSH2 0xC50 JUMP JUMPDEST SWAP1 PUSH1 0x24 CALLDATALOAD SWAP1 PUSH1 0xFF DUP3 AND DUP3 SUB PUSH2 0x18A JUMPI PUSH1 0x44 CALLDATALOAD SWAP3 PUSH8 0xFFFFFFFFFFFFFFFF SWAP1 DUP2 DUP6 GT PUSH2 0x18A JUMPI CALLDATASIZE PUSH1 0x23 DUP7 ADD SLT ISZERO PUSH2 0x18A JUMPI DUP5 PUSH1 0x4 ADD CALLDATALOAD SWAP2 DUP3 GT PUSH2 0x18A JUMPI CALLDATASIZE PUSH1 0x24 DUP4 DUP8 ADD ADD GT PUSH2 0x18A JUMPI CALLER PUSH1 0x0 MSTORE PUSH1 0x20 SWAP4 PUSH1 0x2 DUP6 MSTORE PUSH1 0xFF PUSH1 0x40 PUSH1 0x0 KECCAK256 SLOAD AND DUP1 ISZERO PUSH2 0x2C4 JUMPI JUMPDEST ISZERO PUSH2 0x271 JUMPI PUSH1 0x24 PUSH2 0x21F SWAP5 SWAP6 SWAP7 ADD SWAP2 PUSH2 0xD99 JUMP JUMPDEST PUSH1 0x40 MLOAD SWAP4 DUP5 SWAP3 ISZERO ISZERO DUP4 MSTORE PUSH1 0x40 DUP2 DUP5 ADD MSTORE DUP2 MLOAD SWAP2 DUP3 PUSH1 0x40 DUP6 ADD MSTORE PUSH1 0x0 JUMPDEST DUP4 DUP2 LT PUSH2 0x25B JUMPI POP POP PUSH1 0x0 DUP4 DUP4 ADD DUP6 ADD MSTORE POP PUSH1 0x1F ADD PUSH1 0x1F NOT AND DUP2 ADD SUB ADD SWAP1 RETURN JUMPDEST DUP2 DUP2 ADD DUP4 ADD MLOAD DUP8 DUP3 ADD DUP8 ADD MSTORE DUP7 SWAP5 POP DUP3 ADD PUSH2 0x23B JUMP JUMPDEST PUSH1 0x40 MLOAD PUSH3 0x461BCD PUSH1 0xE5 SHL DUP2 MSTORE PUSH1 0x4 DUP2 ADD DUP7 SWAP1 MSTORE PUSH1 0x25 PUSH1 0x24 DUP3 ADD MSTORE PUSH32 0x506F6C6963794D616E616765723A20556E617574686F72697A65642076616C69 PUSH1 0x44 DUP3 ADD MSTORE PUSH5 0x3230BA37B9 PUSH1 0xD9 SHL PUSH1 0x64 DUP3 ADD MSTORE PUSH1 0x84 SWAP1 REVERT JUMPDEST POP PUSH1 0x0 SLOAD PUSH1 0x1 PUSH1 0x1 PUSH1 0xA0 SHL SUB AND CALLER EQ PUSH2 0x20B JUMP JUMPDEST PUSH2 0xC66 JUMP JUMPDEST CALLVALUE PUSH2 0x18A JUMPI PUSH1 0x20 CALLDATASIZE PUSH1 0x3 NOT ADD SLT PUSH2 0x18A JUMPI PUSH2 0x2F6 PUSH2 0xC50 JUMP JUMPDEST PUSH2 0x2FE PUSH2 0xC82 JUMP JUMPDEST PUSH1 0x1 PUSH1 0x1 PUSH1 0xA0 SHL SUB AND PUSH1 0x0 DUP2 DUP2 MSTORE PUSH1 0x1 PUSH1 0x20 MSTORE PUSH1 0x40 SWAP1 KECCAK256 PUSH1 0x5 ADD SLOAD ISZERO PUSH2 0x366 JUMPI DUP1 PUSH1 0x0 MSTORE PUSH1 0x1 PUSH1 0x20 MSTORE PUSH1 0x40 PUSH1 0x0 KECCAK256 PUSH1 0x4 DUP2 ADD PUSH1 0xFF NOT DUP2 SLOAD AND SWAP1 SSTORE PUSH1 0x6 TIMESTAMP SWAP2 ADD SSTORE DUP1 PUSH32 0x3FFDFC47AEEE903849A80971F2E5B39D79FCC09D99D84DC63A313059B9E14CDD PUSH1 0x0 DUP1 LOG3 STOP JUMPDEST PUSH1 0x40 MLOAD PUSH3 0x461BCD PUSH1 0xE5 SHL DUP2 MSTORE PUSH1 0x20 PUSH1 0x4 DUP3 ADD MSTORE PUSH1 0x24 DUP1 DUP3 ADD MSTORE PUSH32 0x506F6C6963794D616E616765723A20506F6C69637920646F6573206E6F742065 PUSH1 0x44 DUP3 ADD MSTORE PUSH4 0x1E1A5CDD PUSH1 0xE2 SHL PUSH1 0x64 DUP3 ADD MSTORE PUSH1 0x84 SWAP1 REVERT JUMPDEST CALLVALUE PUSH2 0x18A JUMPI PUSH1 0x20 DUP1 PUSH1 0x3 NOT CALLDATASIZE ADD SLT PUSH2 0x18A JUMPI PUSH1 0x1 PUSH1 0x1 PUSH1 0xA0 SHL SUB DUP1 PUSH2 0x3DA PUSH2 0xC50 JUMP JUMPDEST AND PUSH1 0x0 MSTORE PUSH1 0x1 DUP1 DUP4 MSTORE PUSH1 0x40 PUSH1 0x0 KECCAK256 SWAP1 PUSH1 0x40 MLOAD SWAP3 PUSH2 0x3F6 DUP5 PUSH2 0xD23 JUMP JUMPDEST DUP3 SLOAD DUP5 MSTORE DUP2 DUP4 ADD SLOAD DUP6 DUP6 ADD MSTORE PUSH1 0x2 DUP4 ADD SLOAD PUSH1 0x40 DUP6 ADD MSTORE PUSH1 0x3 DUP4 ADD PUSH1 0x40 MLOAD SWAP1 DUP2 SWAP4 DUP5 SWAP3 DUP9 DUP4 SLOAD SWAP2 DUP3 DUP2 MSTORE ADD SWAP3 PUSH1 0x0 MSTORE DUP9 PUSH1 0x0 KECCAK256 SWAP5 PUSH1 0x0 SWAP1 JUMPDEST DUP11 DUP4 DUP4 LT PUSH2 0x48D JUMPI POP POP POP POP POP PUSH2 0x446 SWAP3 POP SUB DUP3 PUSH2 0xD77 JUMP JUMPDEST PUSH1 0x60 DUP4 ADD MSTORE PUSH1 0xFF PUSH1 0x4 DUP3 ADD SLOAD AND ISZERO ISZERO SWAP2 DUP3 PUSH1 0x80 DUP3 ADD MSTORE PUSH1 0xC0 PUSH1 0x6 PUSH1 0x5 DUP5 ADD SLOAD SWAP4 DUP5 PUSH1 0xA0 DUP6 ADD MSTORE ADD SLOAD SWAP2 ADD MSTORE ISZERO ISZERO SWAP1 DUP2 PUSH2 0x485 JUMPI JUMPDEST POP PUSH1 0x40 MLOAD SWAP1 ISZERO ISZERO DUP2 MSTORE RETURN JUMPDEST SWAP1 POP DUP3 PUSH2 0x47A JUMP JUMPDEST DUP8 SLOAD DUP3 AND DUP7 MSTORE SWAP7 DUP5 ADD SWAP7 DUP9 SWAP7 POP SWAP1 SWAP5 ADD SWAP4 SWAP1 DUP4 ADD SWAP1 PUSH2 0x42D JUMP JUMPDEST CALLVALUE PUSH2 0x18A JUMPI PUSH1 0x0 CALLDATASIZE PUSH1 0x3 NOT ADD SLT PUSH2 0x18A JUMPI PUSH1 0x0 SLOAD PUSH1 0x40 MLOAD PUSH1 0x1 PUSH1 0x1 PUSH1 0xA0 SHL SUB SWAP1 SWAP2 AND DUP2 MSTORE PUSH1 0x20 SWAP1 RETURN JUMPDEST CALLVALUE PUSH2 0x18A JUMPI PUSH1 0x0 CALLDATASIZE PUSH1 0x3 NOT ADD SLT PUSH2 0x18A JUMPI PUSH2 0x4E9 PUSH2 0xC82 JUMP JUMPDEST PUSH1 0x0 DUP1 SLOAD PUSH1 0x1 PUSH1 0x1 PUSH1 0xA0 SHL SUB NOT DUP2 AND DUP3 SSTORE PUSH1 0x1 PUSH1 0x1 PUSH1 0xA0 SHL SUB AND PUSH32 0x8BE0079C531659141344CD1FD0A4F28419497F9722A3DAAFE3B4186F6B6457E0 DUP3 DUP1 LOG3 STOP JUMPDEST CALLVALUE PUSH2 0x18A JUMPI PUSH1 0x20 CALLDATASIZE PUSH1 0x3 NOT ADD SLT PUSH2 0x18A JUMPI PUSH2 0x542 PUSH2 0xC50 JUMP JUMPDEST PUSH2 0x54A PUSH2 0xC82 JUMP JUMPDEST PUSH1 0x1 PUSH1 0x1 PUSH1 0xA0 SHL SUB AND PUSH1 0x0 SWAP1 DUP2 MSTORE PUSH1 0x2 PUSH1 0x20 MSTORE PUSH1 0x40 SWAP1 KECCAK256 DUP1 SLOAD PUSH1 0xFF NOT AND PUSH1 0x1 OR SWAP1 SSTORE STOP JUMPDEST CALLVALUE PUSH2 0x18A JUMPI PUSH1 0xA0 CALLDATASIZE PUSH1 0x3 NOT ADD SLT PUSH2 0x18A JUMPI PUSH2 0x587 PUSH2 0xC50 JUMP JUMPDEST PUSH8 0xFFFFFFFFFFFFFFFF DUP1 PUSH1 0x84 CALLDATALOAD GT PUSH2 0x18A JUMPI CALLDATASIZE PUSH1 0x23 PUSH1 0x84 CALLDATALOAD ADD SLT ISZERO PUSH2 0x18A JUMPI PUSH1 0x84 CALLDATALOAD PUSH1 0x4 ADD CALLDATALOAD GT PUSH2 0x18A JUMPI CALLDATASIZE PUSH1 0x24 PUSH1 0x84 CALLDATALOAD PUSH1 0x4 ADD CALLDATALOAD PUSH1 0x5 SHL PUSH1 0x84 CALLDATALOAD ADD ADD GT PUSH2 0x18A JUMPI PUSH2 0x5D1 PUSH2 0xC82 JUMP JUMPDEST PUSH1 0x64 PUSH1 0x24 CALLDATALOAD GT PUSH2 0x984 JUMPI PUSH1 0x64 PUSH1 0x44 CALLDATALOAD GT PUSH2 0x933 JUMPI PUSH1 0x64 DUP1 CALLDATALOAD GT PUSH2 0x8DB JUMPI PUSH1 0x1 PUSH1 0x1 PUSH1 0xA0 SHL SUB DUP2 AND ISZERO PUSH2 0x88A JUMPI PUSH1 0x84 CALLDATALOAD PUSH1 0x4 ADD CALLDATALOAD ISZERO PUSH2 0x830 JUMPI PUSH1 0x1 DUP1 PUSH1 0xA0 SHL SUB DUP2 AND PUSH1 0x0 MSTORE PUSH1 0x1 PUSH1 0x20 MSTORE PUSH1 0x40 PUSH1 0x0 KECCAK256 PUSH1 0x5 DUP2 ADD SLOAD ISZERO PUSH1 0x24 CALLDATALOAD DUP3 SSTORE PUSH1 0x44 CALLDATALOAD PUSH1 0x1 DUP4 ADD SSTORE PUSH1 0x64 CALLDATALOAD PUSH1 0x2 DUP4 ADD SSTORE PUSH1 0x4 DUP3 ADD PUSH1 0x1 PUSH1 0xFF NOT DUP3 SLOAD AND OR SWAP1 SSTORE TIMESTAMP PUSH1 0x6 DUP4 ADD SSTORE PUSH1 0x3 DUP3 ADD SLOAD PUSH1 0x0 PUSH1 0x3 DUP5 ADD SSTORE DUP1 PUSH2 0x806 JUMPI JUMPDEST POP PUSH1 0x0 JUMPDEST PUSH1 0x84 CALLDATALOAD PUSH1 0x4 ADD CALLDATALOAD DUP2 LT PUSH2 0x6E3 JUMPI POP ISZERO PUSH2 0x6B1 JUMPI TIMESTAMP PUSH1 0x5 SWAP2 SWAP1 SWAP2 ADD SSTORE PUSH1 0x1 PUSH1 0x1 PUSH1 0xA0 SHL SUB AND DUP1 PUSH32 0xC82A59457F321D45EC38F6AAF95786BB68907C4273ED492D000832B5951C486 PUSH1 0x0 DUP1 LOG3 STOP JUMPDEST POP PUSH1 0x1 PUSH1 0x1 PUSH1 0xA0 SHL SUB AND DUP1 PUSH32 0x6D69364A3D2877037E33CEA027500F2C22234886348C83CCA1207D145B52BB23 PUSH1 0x0 DUP1 LOG3 STOP JUMPDEST PUSH1 0x1 PUSH1 0x1 PUSH1 0xA0 SHL SUB PUSH2 0x708 PUSH2 0x703 DUP4 PUSH1 0x84 CALLDATALOAD PUSH1 0x4 DUP2 ADD CALLDATALOAD SWAP1 PUSH1 0x24 ADD PUSH2 0xCFF JUMP JUMPDEST PUSH2 0xD0F JUMP JUMPDEST AND ISZERO PUSH2 0x7B6 JUMPI PUSH2 0x727 PUSH2 0x703 DUP3 PUSH1 0x84 CALLDATALOAD PUSH1 0x4 ADD CALLDATALOAD PUSH1 0x24 PUSH1 0x84 CALLDATALOAD ADD PUSH2 0xCFF JUMP JUMPDEST SWAP1 PUSH1 0x3 DUP5 ADD SLOAD SWAP2 PUSH9 0x10000000000000000 DUP4 LT ISZERO PUSH2 0x7A0 JUMPI PUSH1 0x1 DUP4 ADD DUP1 PUSH1 0x3 DUP8 ADD SSTORE DUP4 LT ISZERO PUSH2 0x78A JUMPI PUSH2 0x785 SWAP3 PUSH1 0x3 DUP7 ADD PUSH1 0x0 MSTORE PUSH1 0x20 PUSH1 0x0 KECCAK256 ADD SWAP1 PUSH1 0x1 DUP1 PUSH1 0xA0 SHL SUB AND PUSH12 0xFFFFFFFFFFFFFFFFFFFFFFFF PUSH1 0xA0 SHL DUP3 SLOAD AND OR SWAP1 SSTORE PUSH2 0xCDA JUMP JUMPDEST PUSH2 0x665 JUMP JUMPDEST PUSH4 0x4E487B71 PUSH1 0xE0 SHL PUSH1 0x0 MSTORE PUSH1 0x32 PUSH1 0x4 MSTORE PUSH1 0x24 PUSH1 0x0 REVERT JUMPDEST PUSH4 0x4E487B71 PUSH1 0xE0 SHL PUSH1 0x0 MSTORE PUSH1 0x41 PUSH1 0x4 MSTORE PUSH1 0x24 PUSH1 0x0 REVERT JUMPDEST PUSH1 0x40 MLOAD PUSH3 0x461BCD PUSH1 0xE5 SHL DUP2 MSTORE PUSH1 0x20 PUSH1 0x4 DUP3 ADD MSTORE PUSH1 0x22 PUSH1 0x24 DUP3 ADD MSTORE PUSH32 0x506F6C6963794D616E616765723A20496E76616C696420444558206164647265 PUSH1 0x44 DUP3 ADD MSTORE PUSH2 0x7373 PUSH1 0xF0 SHL PUSH1 0x64 DUP3 ADD MSTORE PUSH1 0x84 SWAP1 REVERT JUMPDEST PUSH1 0x3 DUP4 ADD PUSH1 0x0 MSTORE PUSH1 0x20 PUSH1 0x0 KECCAK256 SWAP1 DUP2 ADD SWAP1 JUMPDEST DUP2 DUP2 LT PUSH2 0x824 JUMPI POP PUSH2 0x661 JUMP JUMPDEST PUSH1 0x0 DUP2 SSTORE PUSH1 0x1 ADD PUSH2 0x817 JUMP JUMPDEST PUSH1 0x40 MLOAD PUSH3 0x461BCD PUSH1 0xE5 SHL DUP2 MSTORE PUSH1 0x20 PUSH1 0x4 DUP3 ADD MSTORE PUSH1 0x2C PUSH1 0x24 DUP3 ADD MSTORE PUSH32 0x506F6C6963794D616E616765723A204D7573742073706563696679206174206C PUSH1 0x44 DUP3 ADD MSTORE PUSH12 0xCAC2E6E840DEDCCA40888AB PUSH1 0xA3 SHL PUSH1 0x64 DUP3 ADD MSTORE PUSH1 0x84 SWAP1 REVERT JUMPDEST PUSH1 0x40 MLOAD PUSH3 0x461BCD PUSH1 0xE5 SHL DUP2 MSTORE PUSH1 0x20 PUSH1 0x4 DUP3 ADD MSTORE PUSH1 0x24 DUP1 DUP3 ADD MSTORE PUSH32 0x506F6C6963794D616E616765723A20496E76616C6964207661756C7420616464 PUSH1 0x44 DUP3 ADD MSTORE PUSH4 0x72657373 PUSH1 0xE0 SHL PUSH1 0x64 DUP3 ADD MSTORE PUSH1 0x84 SWAP1 REVERT JUMPDEST PUSH1 0x40 MLOAD PUSH3 0x461BCD PUSH1 0xE5 SHL DUP2 MSTORE PUSH1 0x20 PUSH1 0x4 DUP3 ADD MSTORE PUSH1 0x2A PUSH1 0x24 DUP3 ADD MSTORE PUSH32 0x506F6C6963794D616E616765723A20496E76616C696420656D657267656E6379 PUSH1 0x44 DUP3 ADD MSTORE PUSH10 0x81D1A1C995CDA1BDB19 PUSH1 0xB2 SHL PUSH1 0x64 DUP3 ADD MSTORE PUSH1 0x84 SWAP1 REVERT JUMPDEST PUSH1 0x40 MLOAD PUSH3 0x461BCD PUSH1 0xE5 SHL DUP2 MSTORE PUSH1 0x20 PUSH1 0x4 DUP3 ADD MSTORE PUSH1 0x24 DUP1 DUP3 ADD MSTORE PUSH32 0x506F6C6963794D616E616765723A20496E76616C696420747261646520706572 PUSH1 0x44 DUP3 ADD MSTORE PUSH4 0x18D95B9D PUSH1 0xE2 SHL PUSH1 0x64 DUP3 ADD MSTORE PUSH1 0x84 SWAP1 REVERT JUMPDEST PUSH1 0x40 MLOAD PUSH3 0x461BCD PUSH1 0xE5 SHL DUP2 MSTORE PUSH1 0x20 PUSH1 0x4 DUP3 ADD MSTORE PUSH1 0x25 PUSH1 0x24 DUP3 ADD MSTORE PUSH32 0x506F6C6963794D616E616765723A20496E76616C6964207269736B20746F6C65 PUSH1 0x44 DUP3 ADD MSTORE PUSH5 0x72616E6365 PUSH1 0xD8 SHL PUSH1 0x64 DUP3 ADD MSTORE PUSH1 0x84 SWAP1 REVERT JUMPDEST CALLVALUE PUSH2 0x18A JUMPI PUSH1 0x20 CALLDATASIZE PUSH1 0x3 NOT ADD SLT PUSH2 0x18A JUMPI PUSH1 0x1 PUSH1 0x1 PUSH1 0xA0 SHL SUB PUSH2 0x9F8 PUSH2 0xC50 JUMP JUMPDEST AND PUSH1 0x0 MSTORE PUSH1 0x1 PUSH1 0x20 MSTORE PUSH1 0xC0 PUSH1 0x40 PUSH1 0x0 KECCAK256 DUP1 SLOAD SWAP1 PUSH1 0x1 DUP2 ADD SLOAD SWAP1 PUSH1 0x2 DUP2 ADD SLOAD PUSH1 0xFF PUSH1 0x4 DUP4 ADD SLOAD AND SWAP1 PUSH1 0x6 PUSH1 0x5 DUP5 ADD SLOAD SWAP4 ADD SLOAD SWAP4 PUSH1 0x40 MLOAD SWAP6 DUP7 MSTORE PUSH1 0x20 DUP7 ADD MSTORE PUSH1 0x40 DUP6 ADD MSTORE ISZERO ISZERO PUSH1 0x60 DUP5 ADD MSTORE PUSH1 0x80 DUP4 ADD MSTORE PUSH1 0xA0 DUP3 ADD MSTORE RETURN JUMPDEST CALLVALUE PUSH2 0x18A JUMPI PUSH1 0x20 CALLDATASIZE PUSH1 0x3 NOT ADD SLT PUSH2 0x18A JUMPI PUSH1 0x1 PUSH1 0x1 PUSH1 0xA0 SHL SUB PUSH2 0xA6E PUSH2 0xC50 JUMP JUMPDEST AND PUSH1 0x0 MSTORE PUSH1 0x2 PUSH1 0x20 MSTORE PUSH1 0x20 PUSH1 0xFF PUSH1 0x40 PUSH1 0x0 KECCAK256 SLOAD AND PUSH1 0x40 MLOAD SWAP1 ISZERO ISZERO DUP2 MSTORE RETURN JUMPDEST CALLVALUE PUSH2 0x18A JUMPI PUSH1 0x20 DUP1 PUSH1 0x3 NOT CALLDATASIZE ADD SLT PUSH2 0x18A JUMPI PUSH2 0xAA6 PUSH2 0xC50 JUMP JUMPDEST PUSH1 0x0 PUSH1 0xC0 PUSH1 0x40 MLOAD PUSH2 0xAB6 DUP2 PUSH2 0xD23 JUMP JUMPDEST DUP3 DUP2 MSTORE DUP3 DUP6 DUP3 ADD MSTORE DUP3 PUSH1 0x40 DUP3 ADD MSTORE PUSH1 0x60 DUP1 DUP3 ADD MSTORE DUP3 PUSH1 0x80 DUP3 ADD MSTORE DUP3 PUSH1 0xA0 DUP3 ADD MSTORE ADD MSTORE PUSH1 0x1 DUP1 PUSH1 0xA0 SHL SUB DUP1 SWAP2 AND PUSH1 0x0 MSTORE PUSH1 0x1 SWAP2 DUP3 DUP2 MSTORE PUSH1 0x40 PUSH1 0x0 KECCAK256 SWAP2 PUSH1 0x40 MLOAD SWAP3 PUSH2 0xAFE DUP5 PUSH2 0xD23 JUMP JUMPDEST DUP1 SLOAD DUP5 MSTORE DUP5 DUP2 ADD SLOAD SWAP4 DUP4 DUP2 ADD SWAP5 DUP6 MSTORE PUSH1 0x2 DUP3 ADD SLOAD SWAP3 PUSH1 0x40 DUP3 ADD SWAP4 DUP5 MSTORE PUSH1 0x3 DUP4 ADD SWAP2 PUSH1 0x40 MLOAD SWAP3 DUP4 DUP8 DUP3 SLOAD SWAP2 DUP3 DUP2 MSTORE ADD SWAP2 PUSH1 0x0 MSTORE DUP8 PUSH1 0x0 KECCAK256 SWAP1 DUP11 PUSH1 0x0 JUMPDEST DUP3 DUP2 LT PUSH2 0xBF9 JUMPI POP POP POP POP DUP4 PUSH2 0xB50 SWAP2 SUB DUP5 PUSH2 0xD77 JUMP JUMPDEST PUSH1 0x60 DUP2 ADD SWAP3 DUP4 MSTORE PUSH1 0xFF PUSH1 0x4 DUP6 ADD SLOAD AND SWAP3 PUSH1 0x80 DUP3 ADD SWAP4 ISZERO ISZERO DUP5 MSTORE PUSH1 0x6 PUSH1 0x5 DUP7 ADD SLOAD SWAP6 PUSH1 0xA0 DUP5 ADD SWAP7 DUP8 MSTORE ADD SLOAD SWAP6 PUSH1 0xC0 DUP4 ADD SWAP7 DUP8 MSTORE PUSH1 0x40 MLOAD SWAP9 DUP9 DUP11 MSTORE PUSH2 0x100 DUP11 ADD SWAP4 MLOAD DUP10 DUP12 ADD MSTORE MLOAD PUSH1 0x40 DUP11 ADD MSTORE MLOAD PUSH1 0x60 DUP10 ADD MSTORE MLOAD SWAP6 PUSH1 0xE0 PUSH1 0x80 DUP10 ADD MSTORE DUP7 MLOAD DUP1 SWAP3 MSTORE DUP1 PUSH2 0x120 DUP10 ADD SWAP8 ADD SWAP3 PUSH1 0x0 SWAP1 JUMPDEST DUP4 DUP3 LT PUSH2 0xBE2 JUMPI POP POP POP POP POP DUP5 SWAP6 POP MLOAD ISZERO ISZERO PUSH1 0xA0 DUP6 ADD MSTORE MLOAD PUSH1 0xC0 DUP5 ADD MSTORE MLOAD PUSH1 0xE0 DUP4 ADD MSTORE SUB SWAP1 RETURN JUMPDEST DUP5 MLOAD DUP2 AND DUP10 MSTORE SWAP8 DUP3 ADD SWAP8 SWAP4 DUP3 ADD SWAP4 SWAP1 DUP11 ADD SWAP1 PUSH2 0xBBB JUMP JUMPDEST DUP4 SLOAD DUP8 AND DUP6 MSTORE SWAP4 DUP11 ADD SWAP4 SWAP3 DUP2 ADD SWAP3 DUP2 ADD PUSH2 0xB39 JUMP JUMPDEST CALLVALUE PUSH2 0x18A JUMPI PUSH1 0x20 CALLDATASIZE PUSH1 0x3 NOT ADD SLT PUSH2 0x18A JUMPI PUSH2 0xC27 PUSH2 0xC50 JUMP JUMPDEST PUSH2 0xC2F PUSH2 0xC82 JUMP JUMPDEST PUSH1 0x1 PUSH1 0x1 PUSH1 0xA0 SHL SUB AND PUSH1 0x0 SWAP1 DUP2 MSTORE PUSH1 0x2 PUSH1 0x20 MSTORE PUSH1 0x40 SWAP1 KECCAK256 DUP1 SLOAD PUSH1 0xFF NOT AND SWAP1 SSTORE STOP JUMPDEST PUSH1 0x4 CALLDATALOAD SWAP1 PUSH1 0x1 PUSH1 0x1 PUSH1 0xA0 SHL SUB DUP3 AND DUP3 SUB PUSH2 0x18A JUMPI JUMP JUMPDEST CALLVALUE PUSH2 0x18A JUMPI PUSH1 0x0 CALLDATASIZE PUSH1 0x3 NOT ADD SLT PUSH2 0x18A JUMPI PUSH1 0x20 PUSH1 0x40 MLOAD PUSH1 0x64 DUP2 MSTORE RETURN JUMPDEST PUSH1 0x0 SLOAD PUSH1 0x1 PUSH1 0x1 PUSH1 0xA0 SHL SUB AND CALLER SUB PUSH2 0xC96 JUMPI JUMP JUMPDEST PUSH1 0x64 PUSH1 0x40 MLOAD PUSH3 0x461BCD PUSH1 0xE5 SHL DUP2 MSTORE PUSH1 0x20 PUSH1 0x4 DUP3 ADD MSTORE PUSH1 0x20 PUSH1 0x24 DUP3 ADD MSTORE PUSH32 0x4F776E61626C653A2063616C6C6572206973206E6F7420746865206F776E6572 PUSH1 0x44 DUP3 ADD MSTORE REVERT JUMPDEST PUSH1 0x0 NOT DUP2 EQ PUSH2 0xCE9 JUMPI PUSH1 0x1 ADD SWAP1 JUMP JUMPDEST PUSH4 0x4E487B71 PUSH1 0xE0 SHL PUSH1 0x0 MSTORE PUSH1 0x11 PUSH1 0x4 MSTORE PUSH1 0x24 PUSH1 0x0 REVERT JUMPDEST SWAP2 SWAP1 DUP2 LT ISZERO PUSH2 0x78A JUMPI PUSH1 0x5 SHL ADD SWAP1 JUMP JUMPDEST CALLDATALOAD PUSH1 0x1 PUSH1 0x1 PUSH1 0xA0 SHL SUB DUP2 AND DUP2 SUB PUSH2 0x18A JUMPI SWAP1 JUMP JUMPDEST PUSH1 0xE0 DUP2 ADD SWAP1 DUP2 LT PUSH8 0xFFFFFFFFFFFFFFFF DUP3 GT OR PUSH2 0x7A0 JUMPI PUSH1 0x40 MSTORE JUMP JUMPDEST PUSH1 0x60 DUP2 ADD SWAP1 DUP2 LT PUSH8 0xFFFFFFFFFFFFFFFF DUP3 GT OR PUSH2 0x7A0 JUMPI PUSH1 0x40 MSTORE JUMP JUMPDEST PUSH1 0x20 DUP2 ADD SWAP1 DUP2 LT PUSH8 0xFFFFFFFFFFFFFFFF DUP3 GT OR PUSH2 0x7A0 JUMPI PUSH1 0x40 MSTORE JUMP JUMPDEST SWAP1 PUSH1 0x1F DUP1 NOT SWAP2 ADD AND DUP2 ADD SWAP1 DUP2 LT PUSH8 0xFFFFFFFFFFFFFFFF DUP3 GT OR PUSH2 0x7A0 JUMPI PUSH1 0x40 MSTORE JUMP JUMPDEST SWAP2 SWAP4 SWAP3 SWAP1 SWAP4 PUSH1 0x1 DUP1 PUSH1 0xA0 SHL SUB SWAP3 DUP4 PUSH1 0x0 SWAP2 AND DUP2 MSTORE PUSH1 0x1 SWAP1 PUSH1 0x20 SWAP2 DUP1 DUP4 MSTORE PUSH1 0x40 SWAP8 DUP9 DUP4 KECCAK256 DUP10 MLOAD SWAP8 PUSH2 0xDC8 DUP10 PUSH2 0xD23 JUMP JUMPDEST DUP2 SLOAD DUP10 MSTORE DUP4 DUP3 ADD SLOAD DUP7 DUP11 ADD MSTORE PUSH1 0x2 DUP3 ADD SLOAD DUP12 DUP11 ADD MSTORE DUP11 MLOAD PUSH1 0x3 DUP4 ADD DUP1 SLOAD DUP1 DUP4 MSTORE SWAP1 DUP8 MSTORE DUP8 DUP8 KECCAK256 SWAP2 SWAP3 DUP4 SWAP2 DUP3 DUP11 ADD SWAP2 DUP10 SWAP1 JUMPDEST DUP10 DUP13 DUP5 DUP5 LT PUSH2 0xF71 JUMPI POP POP POP POP POP PUSH2 0xE13 SWAP3 POP SUB DUP3 PUSH2 0xD77 JUMP JUMPDEST PUSH1 0x60 DUP10 ADD MSTORE PUSH1 0xFF PUSH1 0x4 DUP3 ADD SLOAD AND SWAP1 PUSH1 0x80 DUP10 ADD SWAP2 ISZERO ISZERO DUP3 MSTORE PUSH1 0x6 PUSH1 0x5 DUP3 ADD SLOAD SWAP2 DUP3 PUSH1 0xA0 DUP13 ADD MSTORE ADD SLOAD PUSH1 0xC0 DUP11 ADD MSTORE ISZERO PUSH2 0xF21 JUMPI MLOAD ISZERO PUSH2 0xED9 JUMPI PUSH1 0xFF AND SWAP1 DUP2 PUSH2 0xE66 JUMPI POP POP POP POP PUSH2 0xE62 SWAP4 SWAP5 POP PUSH2 0xFAC JUMP JUMPDEST SWAP1 SWAP2 JUMP JUMPDEST DUP2 SUB PUSH2 0xE7A JUMPI POP POP POP PUSH2 0xE62 SWAP4 SWAP5 POP PUSH2 0x1128 JUMP JUMPDEST PUSH1 0x2 SUB PUSH2 0xE8E JUMPI POP POP PUSH2 0xE62 SWAP4 SWAP5 POP PUSH2 0x11C5 JUMP JUMPDEST SWAP2 POP SWAP3 POP PUSH6 0x6E2074797065 PUSH1 0xD0 SHL SWAP2 POP SWAP4 PUSH32 0x506F6C6963794D616E616765723A20556E737570706F7274656420616374696F DUP2 MLOAD SWAP4 PUSH2 0xECC DUP6 PUSH2 0xD3F JUMP JUMPDEST PUSH1 0x26 DUP6 MSTORE DUP5 ADD MSTORE DUP3 ADD MSTORE SWAP1 JUMP JUMPDEST POP POP SWAP2 POP SWAP3 POP PUSH1 0x65 PUSH1 0xF8 SHL SWAP2 POP SWAP4 PUSH32 0x506F6C6963794D616E616765723A20506F6C69637920697320696E6163746976 DUP2 MLOAD SWAP4 PUSH2 0xF14 DUP6 PUSH2 0xD3F JUMP JUMPDEST PUSH1 0x21 DUP6 MSTORE DUP5 ADD MSTORE DUP3 ADD MSTORE SWAP1 JUMP JUMPDEST POP POP POP SWAP2 POP SWAP3 POP PUSH8 0x1BDC881D985D5B1D PUSH1 0xC2 SHL SWAP2 POP SWAP4 PUSH32 0x506F6C6963794D616E616765723A204E6F20706F6C69637920666F756E642066 DUP2 MLOAD SWAP4 PUSH2 0xF64 DUP6 PUSH2 0xD3F JUMP JUMPDEST PUSH1 0x28 DUP6 MSTORE DUP5 ADD MSTORE DUP3 ADD MSTORE SWAP1 JUMP JUMPDEST DUP8 SLOAD DUP4 AND DUP7 MSTORE SWAP7 DUP2 ADD SWAP7 DUP9 SWAP7 POP SWAP1 SWAP5 ADD SWAP4 SWAP2 SWAP1 SWAP2 ADD SWAP1 PUSH2 0xDF9 JUMP JUMPDEST DUP2 ISZERO PUSH2 0xF96 JUMPI DIV SWAP1 JUMP JUMPDEST PUSH4 0x4E487B71 PUSH1 0xE0 SHL PUSH1 0x0 MSTORE PUSH1 0x12 PUSH1 0x4 MSTORE PUSH1 0x24 PUSH1 0x0 REVERT JUMPDEST SWAP2 DUP3 SWAP2 PUSH1 0x60 SWAP4 DUP5 SWAP2 DUP2 ADD SUB SLT PUSH2 0x18A JUMPI PUSH1 0x1 PUSH1 0x1 PUSH1 0xA0 SHL SUB DUP3 CALLDATALOAD DUP2 DUP2 AND SWAP4 SWAP1 DUP5 SWAP1 SUB PUSH2 0x18A JUMPI PUSH1 0x20 SWAP4 DUP5 DUP3 ADD CALLDATALOAD SWAP3 PUSH1 0x0 DUP1 JUMPDEST DUP9 DUP8 ADD MLOAD DUP1 MLOAD DUP3 LT ISZERO PUSH2 0x1103 JUMPI DUP4 DUP10 DUP7 SWAP3 DUP5 PUSH1 0x5 SHL ADD ADD MLOAD AND EQ PUSH2 0x100A JUMPI PUSH2 0x1005 SWAP1 PUSH2 0xCDA JUMP JUMPDEST PUSH2 0xFDE JUMP JUMPDEST POP POP POP POP SWAP1 SWAP2 SWAP3 SWAP4 POP PUSH1 0x1 JUMPDEST ISZERO PUSH2 0x10B3 JUMPI PUSH1 0x64 DUP3 MUL SWAP2 DUP1 DUP4 DIV PUSH1 0x64 EQ SWAP1 ISZERO OR ISZERO PUSH2 0xCE9 JUMPI DUP4 SWAP2 PUSH1 0x40 PUSH2 0x103E SWAP3 ADD CALLDATALOAD SWAP1 PUSH2 0xF8C JUMP JUMPDEST SWAP2 ADD MLOAD LT PUSH2 0x105D JUMPI POP PUSH1 0x1 SWAP1 PUSH1 0x40 MLOAD PUSH2 0x1056 DUP2 PUSH2 0xD5B JUMP JUMPDEST PUSH1 0x0 DUP2 MSTORE SWAP1 JUMP JUMPDEST SWAP1 PUSH1 0x0 SWAP2 PUSH32 0x506F6C6963794D616E616765723A2054726164652073697A6520657863656564 PUSH1 0x40 MLOAD SWAP2 PUSH2 0x108F DUP4 PUSH2 0xD3F JUMP JUMPDEST PUSH1 0x31 DUP4 MSTORE DUP3 ADD MSTORE PUSH17 0x1CC81B585E1A5B5D5B48185B1B1BDDD959 PUSH1 0x7A SHL PUSH1 0x40 DUP3 ADD MSTORE SWAP1 JUMP JUMPDEST POP POP POP SWAP1 PUSH1 0x0 SWAP2 PUSH32 0x506F6C6963794D616E616765723A20444558206E6F7420616C6C6F7765642062 PUSH1 0x40 MLOAD SWAP2 PUSH2 0x10E8 DUP4 PUSH2 0xD3F JUMP JUMPDEST PUSH1 0x28 DUP4 MSTORE DUP3 ADD MSTORE PUSH8 0x7920706F6C696379 PUSH1 0xC0 SHL PUSH1 0x40 DUP3 ADD MSTORE SWAP1 JUMP JUMPDEST POP POP SWAP3 SWAP4 SWAP5 SWAP6 SWAP7 POP POP POP PUSH2 0x1016 JUMP JUMPDEST SWAP2 SWAP1 DUP3 PUSH1 0x40 SWAP2 SUB SLT PUSH2 0x18A JUMPI PUSH1 0x20 DUP3 CALLDATALOAD SWAP3 ADD CALLDATALOAD SWAP1 JUMP JUMPDEST PUSH2 0x1134 SWAP2 DUP2 ADD SWAP1 PUSH2 0x1112 JUMP JUMPDEST SWAP1 PUSH1 0x64 DUP2 MUL SWAP1 DUP1 DUP3 DIV PUSH1 0x64 EQ SWAP1 ISZERO OR ISZERO PUSH2 0xCE9 JUMPI PUSH1 0x20 SWAP2 PUSH2 0x1154 SWAP2 PUSH2 0xF8C JUMP JUMPDEST SWAP2 ADD MLOAD LT PUSH2 0x116B JUMPI PUSH1 0x1 SWAP1 PUSH1 0x40 MLOAD PUSH2 0x1056 DUP2 PUSH2 0xD5B JUMP JUMPDEST PUSH1 0x0 SWAP1 PUSH1 0x40 MLOAD PUSH2 0x117A DUP2 PUSH2 0xD3F JUMP JUMPDEST PUSH1 0x35 DUP2 MSTORE PUSH32 0x506F6C6963794D616E616765723A204C656E64696E6720616D6F756E74206578 PUSH1 0x20 DUP3 ADD MSTORE PUSH21 0x18D959591CC81B585E1A5B5D5B48185B1B1BDDD959 PUSH1 0x5A SHL PUSH1 0x40 DUP3 ADD MSTORE SWAP1 JUMP JUMPDEST PUSH2 0x11D1 SWAP2 DUP2 ADD SWAP1 PUSH2 0x1112 JUMP JUMPDEST SWAP1 PUSH1 0x64 DUP2 MUL SWAP1 DUP1 DUP3 DIV PUSH1 0x64 EQ SWAP1 ISZERO OR ISZERO PUSH2 0xCE9 JUMPI PUSH1 0x20 SWAP2 PUSH2 0x11F1 SWAP2 PUSH2 0xF8C JUMP JUMPDEST SWAP2 ADD MLOAD LT PUSH2 0x1208 JUMPI PUSH1 0x1 SWAP1 PUSH1 0x40 MLOAD PUSH2 0x1056 DUP2 PUSH2 0xD5B JUMP JUMPDEST PUSH1 0x0 SWAP1 PUSH1 0x40 MLOAD PUSH2 0x1217 DUP2 PUSH2 0xD3F JUMP JUMPDEST PUSH1 0x37 DUP2 MSTORE PUSH32 0x506F6C6963794D616E616765723A20426F72726F77696E6720616D6F756E7420 PUSH1 0x20 DUP3 ADD MSTORE PUSH32 0x65786365656473206D6178696D756D20616C6C6F776564000000000000000000 PUSH1 0x40 DUP3 ADD MSTORE SWAP1 JUMP INVALID LOG2 PUSH5 0x6970667358 0x22 SLT KECCAK256 SWAP11 COINBASE 0xDB PUSH12 0x606F18368E8165E59FD38FAE 0xEA 0x29 0x1E SWAP4 CODESIZE 0xB5 BASEFEE PUSH31 0xD44EAD263D268A9B64736F6C63430008130033000000000000000000000000 "},"methodIdentifiers":{"MAX_EMERGENCY_THRESHOLD()":"388cfb3b","MAX_RISK_TOLERANCE()":"dbe3051d","MAX_TRADE_PERCENT()":"d04ac29d","addAuthorizedValidator(address)":"6c26f2bc","authorizedValidators(address)":"58714163","deactivatePolicy(address)":"bb287131","getPolicy(address)":"3791dc6a","hasActivePolicy(address)":"b0d5e4d5","owner()":"8da5cb5b","removeAuthorizedValidator(address)":"0b2a892a","renounceOwnership()":"715018a6","setPolicy(address,uint256,uint256,uint256,address[])":"5f79b26b","transferOwnership(address)":"f2fde38b","validateAction(address,uint8,bytes)":"e9340a78","vaultPolicies(address)":"5eba2526"}}}}}