{"src/contracts/Executor.sol":{"Executor":{"abi":[{"inputs":[{"internalType":"address","name":"_agentSigner","type":"address"},{"internalType":"address","name":"_policyManager","type":"address"},{"internalType":"address","name":"_auditLog","type":"address"}],"stateMutability":"nonpayable","type":"constructor"},{"anonymous":false,"inputs":[{"indexed":true,"internalType":"address","name":"oldSigner","type":"address"},{"indexed":true,"internalType":"address","name":"newSigner","type":"address"}],"name":"AgentSignerUpdated","type":"event"},{"anonymous":false,"inputs":[{"indexed":true,"internalType":"address","name":"oldAuditLog","type":"address"},{"indexed":true,"internalType":"address","name":"newAuditLog","type":"address"}],"name":"AuditLogUpdated","type":"event"},{"anonymous":false,"inputs":[{"indexed":true,"internalType":"address","name":"previousOwner","type":"address"},{"indexed":true,"internalType":"address","name":"newOwner","type":"address"}],"name":"OwnershipTransferred","type":"event"},{"anonymous":false,"inputs":[{"indexed":true,"internalType":"address","name":"oldManager","type":"address"},{"indexed":true,"internalType":"address","name":"newManager","type":"address"}],"name":"PolicyManagerUpdated","type":"event"},{"anonymous":false,"inputs":[{"indexed":true,"internalType":"address","name":"vault","type":"address"},{"indexed":true,"internalType":"address","name":"executor","type":"address"},{"indexed":false,"internalType":"uint8","name":"actionType","type":"uint8"},{"indexed":false,"internalType":"bytes","name":"params","type":"bytes"},{"indexed":true,"internalType":"bytes32","name":"proposalHash","type":"bytes32"},{"indexed":false,"internalType":"bytes32","name":"ipfsHash","type":"bytes32"},{"indexed":false,"internalType":"uint256","name":"timestamp","type":"uint256"}],"name":"ProposalExecuted","type":"event"},{"inputs":[],"name":"MAX_DEADLINE_DURATION","outputs":[{"internalType":"uint256","name":"","type":"uint256"}],"stateMutability":"view","type":"function"},{"inputs":[],"name":"MIN_DEADLINE_DURATION","outputs":[{"internalType":"uint256","name":"","type":"uint256"}],"stateMutability":"view","type":"function"},{"inputs":[],"name":"agentSigner","outputs":[{"internalType":"address","name":"","type":"address"}],"stateMutability":"view","type":"function"},{"inputs":[],"name":"auditLog","outputs":[{"internalType":"contract AuditLog","name":"","type":"address"}],"stateMutability":"view","type":"function"},{"inputs":[],"name":"emergencyPause","outputs":[],"stateMutability":"nonpayable","type":"function"},{"inputs":[{"internalType":"address","name":"newAgentSigner","type":"address"}],"name":"emergencyUnpause","outputs":[],"stateMutability":"nonpayable","type":"function"},{"inputs":[{"internalType":"address","name":"vault","type":"address"},{"internalType":"uint8","name":"actionType","type":"uint8"},{"internalType":"bytes","name":"params","type":"bytes"},{"internalType":"bytes32","name":"ipfsHash","type":"bytes32"},{"internalType":"uint256","name":"nonce","type":"uint256"},{"internalType":"uint256","name":"deadline","type":"uint256"},{"internalType":"bytes","name":"signature","type":"bytes"}],"name":"executeProposal","outputs":[],"stateMutability":"nonpayable","type":"function"},{"inputs":[{"internalType":"address","name":"vault","type":"address"}],"name":"getNextNonce","outputs":[{"internalType":"uint256","name":"","type":"uint256"}],"stateMutability":"view","type":"function"},{"inputs":[{"internalType":"address","name":"vault","type":"address"},{"internalType":"uint8","name":"actionType","type":"uint8"},{"internalType":"bytes","name":"params","type":"bytes"},{"internalType":"bytes32","name":"ipfsHash","type":"bytes32"},{"internalType":"uint256","name":"nonce","type":"uint256"},{"internalType":"uint256","name":"deadline","type":"uint256"}],"name":"getProposalHash","outputs":[{"internalType":"bytes32","name":"","type":"bytes32"}],"stateMutability":"pure","type":"function"},{"inputs":[{"internalType":"uint256","name":"nonce","type":"uint256"}],"name":"isNonceUsed","outputs":[{"internalType":"bool","name":"","type":"bool"}],"stateMutability":"view","type":"function"},{"inputs":[],"name":"owner","outputs":[{"internalType":"address","name":"","type":"address"}],"stateMutability":"view","type":"function"},{"inputs":[],"name":"policyManager","outputs":[{"internalType":"contract PolicyManager","name":"","type":"address"}],"stateMutability":"view","type":"function"},{"inputs":[],"name":"renounceOwnership","outputs":[],"stateMutability":"nonpayable","type":"function"},{"inputs":[{"internalType":"address","name":"newOwner","type":"address"}],"name":"transferOwnership","outputs":[],"stateMutability":"nonpayable","type":"function"},{"inputs":[{"internalType":"address","name":"newAgentSigner","type":"address"}],"name":"updateAgentSigner","outputs":[],"stateMutability":"nonpayable","type":"function"},{"inputs":[{"internalType":"address","name":"newAuditLog","type":"address"}],"name":"updateAuditLog","outputs":[],"stateMutability":"nonpayable","type":"function"},{"inputs":[{"internalType":"address","name":"newPolicyManager","type":"address"}],"name":"updatePolicyManager","outputs":[],"stateMutability":"nonpayable","type":"function"},{"inputs":[{"internalType":"bytes32","name":"","type":"bytes32"}],"name":"usedNonces","outputs":[{"internalType":"bool","name":"","type":"bool"}],"stateMutability":"view","type":"function"},{"inputs":[{"internalType":"address","name":"","type":"address"}],"name":"vaultNonces","outputs":[{"internalType":"uint256","name":"","type":"uint256"}],"stateMutability":"view","type":"function"}],"evm":{"bytecode":{"linkReferences":{},"object":"6080346101c257601f6111c838819003918201601f191683019291906001600160401b038411838510176101c75781606092849260409687528339810103126101c25761004b816101dd565b906100638361005c602084016101dd565b92016101dd565b6001600081815581546001600160a01b03198082163390811790945587519690956001600160a01b0394909385938416907f8be0079c531659141344cd1fd0a4f28419497f9722a3daafe3b4186f6b6457e09080a3169485156101805750811691821561013d57169283156100f957826002541617600255816003541617600355600454161760045551610fd690816101f28239f35b845162461bcd60e51b815260206004820152601b60248201527f4578656375746f723a20496e76616c6964206175646974206c6f6700000000006044820152606490fd5b6064865162461bcd60e51b815260206004820152602060248201527f4578656375746f723a20496e76616c696420706f6c696379206d616e616765726044820152fd5b62461bcd60e51b815260206004820152601e60248201527f4578656375746f723a20496e76616c6964206167656e74207369676e657200006044820152606490fd5b600080fd5b634e487b7160e01b600052604160045260246000fd5b51906001600160a01b03821682036101c25756fe6080604052600436101561001257600080fd5b6000803560e01c806315c4b06a14610d4d5780634c653a3e14610c9757806351858e2714610c6b5780635a2d6ebd14610c425780635d00bb1214610bda578063643776de14610b645780636fd368b014610b18578063715018a614610abb5780637322ae3714610a9e5780638da5cb5b14610a7557806390193b7c14610a1b578063ab3dbf3b146109f2578063b9745a5514610319578063c57b9c0c146102fc578063c629fe9014610247578063e361cd591461020e578063f2fde38b14610148578063f4e2592b1461011f5763feb61724146100ee57600080fd5b3461011c57602036600319011261011c5760ff60406020926004358152600584522054166040519015158152f35b80fd5b503461011c578060031936011261011c576002546040516001600160a01b039091168152602090f35b503461011c57602036600319011261011c57610162610db2565b61016a610e0b565b6001600160a01b039081169081156101ba57600154826001600160601b0360a01b821617600155167f8be0079c531659141344cd1fd0a4f28419497f9722a3daafe3b4186f6b6457e0600080a380f35b60405162461bcd60e51b815260206004820152602660248201527f4f776e61626c653a206e6577206f776e657220697320746865207a65726f206160448201526564647265737360d01b6064820152608490fd5b503461011c57602036600319011261011c576020906040906001600160a01b03610236610db2565b168152600683522054604051908152f35b503461011c57602036600319011261011c57610261610db2565b610269610e0b565b6001600160a01b039081169081156102b857600354826001600160601b0360a01b821617600355167f8db82d3061f259c28cee172c5d954c7be330a7ee1d949d6fc6e29b7e4c12447e8380a380f35b606460405162461bcd60e51b815260206004820152602060248201527f4578656375746f723a20496e76616c696420706f6c696379206d616e616765726044820152fd5b503461011c578060031936011261011c57602060405161012c8152f35b503461011c5760e036600319011261011c57610333610db2565b61033b610dcd565b9060443567ffffffffffffffff81116109ee5761035c903690600401610ddd565b929060a4359360c43567ffffffffffffffff81116109ea57610382903690600401610ddd565b9560028854146109a557600288554281111561096057610e10420180421161090757811161091b5761012c42018042116109075781106108c2576103d160419160843560643586888a8c610ef3565b960361087257604051907f19457468657265756d205369676e6564204d6573736167653a0a333200000000602083015286603c830152603c825281606081011067ffffffffffffffff60608401111761085e57608060608360208b9483829701604052825182840120848401526040810135861a85840152803560a0840152013560c08201528380520160015afa156108535785516002546001600160a01b03908116911681900361080e5760405160609190911b6bffffffffffffffffffffffff1916602082019081526084356034830152906104bc81605481015b03601f198101835282610e8d565b519020808752600560205260ff6040882054166107c957865260056020526040808720805460ff191660011790556003549051631d26814f60e31b81526001600160a01b03868116600483015260ff861660248301526060604483015290918891839116818061053060648201888a610ed2565b03915afa9081156106c75787908892610710575b50156106d257506001600160a01b0384163b156106a157604051632b67a89960e11b815260ff8416600482015260406024820152868180610589604482018688610ed2565b0381836001600160a01b038a165af180156106c7576106b4575b5060045486906001600160a01b0316803b156106b05760405163c9b708a360e01b81526001600160a01b038716600482015233602482015260ff8616604482015260e06064820152908290829081838161060160e482018a8c610ed2565b8d608483015260643560a48301524260c483015203925af180156106a55761068d575b50507f820156463455db49cc1814f6fe87f5bd75eeb8734fce3524fac878ba9d63734f916106669160ff60405195168552608060208601526080850191610ed2565b606435604084015242606084015233936001600160a01b0316929081900390a46001815580f35b61069690610e63565b6106a1578538610624565b8580fd5b6040513d84823e3d90fd5b5080fd5b6106c090969196610e63565b94386105a3565b6040513d89823e3d90fd5b6044604051809262461bcd60e51b8252602060048301526107028151809281602486015260208686019101610eaf565b601f01601f19168101030190fd5b9150503d8088833e6107228183610e8d565b8101906040818303126107c55780519081151582036107c15760208101519067ffffffffffffffff82116107a9570182601f820112156107c157805167ffffffffffffffff81116107ad5760405193610785601f8301601f191660200186610e8d565b818552602082840101116107a9576107a39160208086019101610eaf565b38610544565b8980fd5b634e487b7160e01b8a52604160045260248afd5b8880fd5b8780fd5b60405162461bcd60e51b815260206004820152601c60248201527f4578656375746f723a204e6f6e636520616c72656164792075736564000000006044820152606490fd5b60405162461bcd60e51b815260206004820152601b60248201527f4578656375746f723a20496e76616c6964207369676e617475726500000000006044820152606490fd5b6040513d87823e3d90fd5b634e487b7160e01b88526041600452602488fd5b60405162461bcd60e51b815260206004820152602260248201527f4578656375746f723a20496e76616c6964207369676e6174757265206c656e676044820152610e8d60f31b6064820152608490fd5b60405162461bcd60e51b815260206004820152601b60248201527f4578656375746f723a20446561646c696e6520746f6f20736f6f6e00000000006044820152606490fd5b634e487b7160e01b89526011600452602489fd5b60405162461bcd60e51b815260206004820152601a60248201527f4578656375746f723a20446561646c696e6520746f6f206661720000000000006044820152606490fd5b60405162461bcd60e51b815260206004820152601d60248201527f4578656375746f723a20446561646c696e6520686173207061737365640000006044820152606490fd5b60405162461bcd60e51b815260206004820152601f60248201527f5265656e7472616e637947756172643a207265656e7472616e742063616c6c006044820152606490fd5b8680fd5b8380fd5b503461011c578060031936011261011c576003546040516001600160a01b039091168152602090f35b503461011c57602036600319011261011c576001600160a01b03610a3d610db2565b168152600660205260408120549060018201809211610a6157602082604051908152f35b634e487b7160e01b81526011600452602490fd5b503461011c578060031936011261011c576001546040516001600160a01b039091168152602090f35b503461011c578060031936011261011c576020604051610e108152f35b503461011c578060031936011261011c57610ad4610e0b565b600180546001600160a01b0319811690915581906001600160a01b03167f8be0079c531659141344cd1fd0a4f28419497f9722a3daafe3b4186f6b6457e08280a380f35b503461011c57602036600319011261011c57610b32610db2565b610b3a610e0b565b6001600160a01b0316610b4e811515610f54565b6001600160601b0360a01b600254161760025580f35b503461011c57602036600319011261011c57610b7e610db2565b610b86610e0b565b6001600160a01b0390811690610b9d821515610f54565b600254826001600160601b0360a01b821617600255167f15c539f3c72a7122b9be60c5a7d9929c4882896eca5158969a1877c067192d9b8380a380f35b503461011c57602036600319011261011c576002546040805160609290921b6bffffffffffffffffffffffff1916602083810191825260043560348501529360ff93909190610c2c81605481016104ae565b5190208152600584522054166040519015158152f35b503461011c578060031936011261011c576004546040516001600160a01b039091168152602090f35b503461011c578060031936011261011c57610c84610e0b565b600280546001600160a01b031916905580f35b503461011c57602036600319011261011c57610cb1610db2565b610cb9610e0b565b6001600160a01b03908116908115610d0857600454826001600160601b0360a01b821617600455167f8d0432039a27e218a8f052890d0f2de847055c352338467e7215ec7e0ec61b588380a380f35b60405162461bcd60e51b815260206004820152601b60248201527f4578656375746f723a20496e76616c6964206175646974206c6f6700000000006044820152606490fd5b503461011c5760c036600319011261011c57610d67610db2565b90610d70610dcd565b906044359067ffffffffffffffff821161011c576020610daa8585610d983660048801610ddd565b60a43593608435936064359391610ef3565b604051908152f35b600435906001600160a01b0382168203610dc857565b600080fd5b6024359060ff82168203610dc857565b9181601f84011215610dc85782359167ffffffffffffffff8311610dc85760208381860195010111610dc857565b6001546001600160a01b03163303610e1f57565b606460405162461bcd60e51b815260206004820152602060248201527f4f776e61626c653a2063616c6c6572206973206e6f7420746865206f776e65726044820152fd5b67ffffffffffffffff8111610e7757604052565b634e487b7160e01b600052604160045260246000fd5b90601f8019910116810190811067ffffffffffffffff821117610e7757604052565b60005b838110610ec25750506000910152565b8181015183820152602001610eb2565b908060209392818452848401376000828201840152601f01601f1916010190565b95610f4e9491929560959480604051988996602088019b6001600160601b03199060601b168c5260ff60f81b9060f81b1660348801526035870137840192603584015260558301526075820152036075810184520182610e8d565b51902090565b15610f5b57565b60405162461bcd60e51b815260206004820152601e60248201527f4578656375746f723a20496e76616c6964206167656e74207369676e657200006044820152606490fdfea264697066735822122014734a1221b39b25fd434c63da5bd9ae807ac1e421bfb978c5984e9fea9a850664736f6c63430008130033","opcodes":"PUSH1 0x80 CALLVALUE PUSH2 0x1C2 JUMPI PUSH1 0x1F PUSH2 0x11C8 CODESIZE DUP2 SWAP1 SUB SWAP2 DUP3 ADD PUSH1 0x1F NOT AND DUP4 ADD SWAP3 SWAP2 SWAP1 PUSH1 0x1 PUSH1 0x1 PUSH1 0x40 SHL SUB DUP5 GT DUP4 DUP6 LT OR PUSH2 0x1C7 JUMPI DUP2 PUSH1 0x60 SWAP3 DUP5 SWAP3 PUSH1 0x40 SWAP7 DUP8 MSTORE DUP4 CODECOPY DUP2 ADD SUB SLT PUSH2 0x1C2 JUMPI PUSH2 0x4B DUP2 PUSH2 0x1DD JUMP JUMPDEST SWAP1 PUSH2 0x63 DUP4 PUSH2 0x5C PUSH1 0x20 DUP5 ADD PUSH2 0x1DD JUMP JUMPDEST SWAP3 ADD PUSH2 0x1DD JUMP JUMPDEST PUSH1 0x1 PUSH1 0x0 DUP2 DUP2 SSTORE DUP2 SLOAD PUSH1 0x1 PUSH1 0x1 PUSH1 0xA0 SHL SUB NOT DUP1 DUP3 AND CALLER SWAP1 DUP2 OR SWAP1 SWAP5 SSTORE DUP8 MLOAD SWAP7 SWAP1 SWAP6 PUSH1 0x1 PUSH1 0x1 PUSH1 0xA0 SHL SUB SWAP5 SWAP1 SWAP4 DUP6 SWAP4 DUP5 AND SWAP1 PUSH32 0x8BE0079C531659141344CD1FD0A4F28419497F9722A3DAAFE3B4186F6B6457E0 SWAP1 DUP1 LOG3 AND SWAP5 DUP6 ISZERO PUSH2 0x180 JUMPI POP DUP2 AND SWAP2 DUP3 ISZERO PUSH2 0x13D JUMPI AND SWAP3 DUP4 ISZERO PUSH2 0xF9 JUMPI DUP3 PUSH1 0x2 SLOAD AND OR PUSH1 0x2 SSTORE DUP2 PUSH1 0x3 SLOAD AND OR PUSH1 0x3 SSTORE PUSH1 0x4 SLOAD AND OR PUSH1 0x4 SSTORE MLOAD PUSH2 0xFD6 SWAP1 DUP2 PUSH2 0x1F2 DUP3 CODECOPY RETURN JUMPDEST DUP5 MLOAD PUSH3 0x461BCD PUSH1 0xE5 SHL DUP2 MSTORE PUSH1 0x20 PUSH1 0x4 DUP3 ADD MSTORE PUSH1 0x1B PUSH1 0x24 DUP3 ADD MSTORE PUSH32 0x4578656375746F723A20496E76616C6964206175646974206C6F670000000000 PUSH1 0x44 DUP3 ADD MSTORE PUSH1 0x64 SWAP1 REVERT JUMPDEST PUSH1 0x64 DUP7 MLOAD PUSH3 0x461BCD PUSH1 0xE5 SHL DUP2 MSTORE PUSH1 0x20 PUSH1 0x4 DUP3 ADD MSTORE PUSH1 0x20 PUSH1 0x24 DUP3 ADD MSTORE PUSH32 0x4578656375746F723A20496E76616C696420706F6C696379206D616E61676572 PUSH1 0x44 DUP3 ADD MSTORE REVERT JUMPDEST PUSH3 0x461BCD PUSH1 0xE5 SHL DUP2 MSTORE PUSH1 0x20 PUSH1 0x4 DUP3 ADD MSTORE PUSH1 0x1E PUSH1 0x24 DUP3 ADD MSTORE PUSH32 0x4578656375746F723A20496E76616C6964206167656E74207369676E65720000 PUSH1 0x44 DUP3 ADD MSTORE PUSH1 0x64 SWAP1 REVERT JUMPDEST PUSH1 0x0 DUP1 REVERT JUMPDEST PUSH4 0x4E487B71 PUSH1 0xE0 SHL PUSH1 0x0 MSTORE PUSH1 0x41 PUSH1 0x4 MSTORE PUSH1 0x24 PUSH1 0x0 REVERT JUMPDEST MLOAD SWAP1 PUSH1 0x1 PUSH1 0x1 PUSH1 0xA0 SHL SUB DUP3 AND DUP3 SUB PUSH2 0x1C2 JUMPI JUMP INVALID PUSH1 0x80 PUSH1 0x40 MSTORE PUSH1 0x4 CALLDATASIZE LT ISZERO PUSH2 0x12 JUMPI PUSH1 0x0 DUP1 REVERT JUMPDEST PUSH1 0x0 DUP1 CALLDATALOAD PUSH1 0xE0 SHR DUP1 PUSH4 0x15C4B06A EQ PUSH2 0xD4D JUMPI DUP1 PUSH4 0x4C653A3E EQ PUSH2 0xC97 JUMPI DUP1 PUSH4 0x51858E27 EQ PUSH2 0xC6B JUMPI DUP1 PUSH4 0x5A2D6EBD EQ PUSH2 0xC42 JUMPI DUP1 PUSH4 0x5D00BB12 EQ PUSH2 0xBDA JUMPI DUP1 PUSH4 0x643776DE EQ PUSH2 0xB64 JUMPI DUP1 PUSH4 0x6FD368B0 EQ PUSH2 0xB18 JUMPI DUP1 PUSH4 0x715018A6 EQ PUSH2 0xABB JUMPI DUP1 PUSH4 0x7322AE37 EQ PUSH2 0xA9E JUMPI DUP1 PUSH4 0x8DA5CB5B EQ PUSH2 0xA75 JUMPI DUP1 PUSH4 0x90193B7C EQ PUSH2 0xA1B JUMPI DUP1 PUSH4 0xAB3DBF3B EQ PUSH2 0x9F2 JUMPI DUP1 PUSH4 0xB9745A55 EQ PUSH2 0x319 JUMPI DUP1 PUSH4 0xC57B9C0C EQ PUSH2 0x2FC JUMPI DUP1 PUSH4 0xC629FE90 EQ PUSH2 0x247 JUMPI DUP1 PUSH4 0xE361CD59 EQ PUSH2 0x20E JUMPI DUP1 PUSH4 0xF2FDE38B EQ PUSH2 0x148 JUMPI DUP1 PUSH4 0xF4E2592B EQ PUSH2 0x11F JUMPI PUSH4 0xFEB61724 EQ PUSH2 0xEE JUMPI PUSH1 0x0 DUP1 REVERT JUMPDEST CALLVALUE PUSH2 0x11C JUMPI PUSH1 0x20 CALLDATASIZE PUSH1 0x3 NOT ADD SLT PUSH2 0x11C JUMPI PUSH1 0xFF PUSH1 0x40 PUSH1 0x20 SWAP3 PUSH1 0x4 CALLDATALOAD DUP2 MSTORE PUSH1 0x5 DUP5 MSTORE KECCAK256 SLOAD AND PUSH1 0x40 MLOAD SWAP1 ISZERO ISZERO DUP2 MSTORE RETURN JUMPDEST DUP1 REVERT JUMPDEST POP CALLVALUE PUSH2 0x11C JUMPI DUP1 PUSH1 0x3 NOT CALLDATASIZE ADD SLT PUSH2 0x11C JUMPI PUSH1 0x2 SLOAD PUSH1 0x40 MLOAD PUSH1 0x1 PUSH1 0x1 PUSH1 0xA0 SHL SUB SWAP1 SWAP2 AND DUP2 MSTORE PUSH1 0x20 SWAP1 RETURN JUMPDEST POP CALLVALUE PUSH2 0x11C JUMPI PUSH1 0x20 CALLDATASIZE PUSH1 0x3 NOT ADD SLT PUSH2 0x11C JUMPI PUSH2 0x162 PUSH2 0xDB2 JUMP JUMPDEST PUSH2 0x16A PUSH2 0xE0B JUMP JUMPDEST PUSH1 0x1 PUSH1 0x1 PUSH1 0xA0 SHL SUB SWAP1 DUP2 AND SWAP1 DUP2 ISZERO PUSH2 0x1BA JUMPI PUSH1 0x1 SLOAD DUP3 PUSH1 0x1 PUSH1 0x1 PUSH1 0x60 SHL SUB PUSH1 0xA0 SHL DUP3 AND OR PUSH1 0x1 SSTORE AND PUSH32 0x8BE0079C531659141344CD1FD0A4F28419497F9722A3DAAFE3B4186F6B6457E0 PUSH1 0x0 DUP1 LOG3 DUP1 RETURN JUMPDEST PUSH1 0x40 MLOAD PUSH3 0x461BCD PUSH1 0xE5 SHL DUP2 MSTORE PUSH1 0x20 PUSH1 0x4 DUP3 ADD MSTORE PUSH1 0x26 PUSH1 0x24 DUP3 ADD MSTORE PUSH32 0x4F776E61626C653A206E6577206F776E657220697320746865207A65726F2061 PUSH1 0x44 DUP3 ADD MSTORE PUSH6 0x646472657373 PUSH1 0xD0 SHL PUSH1 0x64 DUP3 ADD MSTORE PUSH1 0x84 SWAP1 REVERT JUMPDEST POP CALLVALUE PUSH2 0x11C JUMPI PUSH1 0x20 CALLDATASIZE PUSH1 0x3 NOT ADD SLT PUSH2 0x11C JUMPI PUSH1 0x20 SWAP1 PUSH1 0x40 SWAP1 PUSH1 0x1 PUSH1 0x1 PUSH1 0xA0 SHL SUB PUSH2 0x236 PUSH2 0xDB2 JUMP JUMPDEST AND DUP2 MSTORE PUSH1 0x6 DUP4 MSTORE KECCAK256 SLOAD PUSH1 0x40 MLOAD SWAP1 DUP2 MSTORE RETURN JUMPDEST POP CALLVALUE PUSH2 0x11C JUMPI PUSH1 0x20 CALLDATASIZE PUSH1 0x3 NOT ADD SLT PUSH2 0x11C JUMPI PUSH2 0x261 PUSH2 0xDB2 JUMP JUMPDEST PUSH2 0x269 PUSH2 0xE0B JUMP JUMPDEST PUSH1 0x1 PUSH1 0x1 PUSH1 0xA0 SHL SUB SWAP1 DUP2 AND SWAP1 DUP2 ISZERO PUSH2 0x2B8 JUMPI PUSH1 0x3 SLOAD DUP3 PUSH1 0x1 PUSH1 0x1 PUSH1 0x60 SHL SUB PUSH1 0xA0 SHL DUP3 AND OR PUSH1 0x3 SSTORE AND PUSH32 0x8DB82D3061F259C28CEE172C5D954C7BE330A7EE1D949D6FC6E29B7E4C12447E DUP4 DUP1 LOG3 DUP1 RETURN JUMPDEST PUSH1 0x64 PUSH1 0x40 MLOAD PUSH3 0x461BCD PUSH1 0xE5 SHL DUP2 MSTORE PUSH1 0x20 PUSH1 0x4 DUP3 ADD MSTORE PUSH1 0x20 PUSH1 0x24 DUP3 ADD MSTORE PUSH32 0x4578656375746F723A20496E76616C696420706F6C696379206D616E61676572 PUSH1 0x44 DUP3 ADD MSTORE REVERT JUMPDEST POP CALLVALUE PUSH2 0x11C JUMPI DUP1 PUSH1 0x3 NOT CALLDATASIZE ADD SLT PUSH2 0x11C JUMPI PUSH1 0x20 PUSH1 0x40 MLOAD PUSH2 0x12C DUP2 MSTORE RETURN JUMPDEST POP CALLVALUE PUSH2 0x11C JUMPI PUSH1 0xE0 CALLDATASIZE PUSH1 0x3 NOT ADD SLT PUSH2 0x11C JUMPI PUSH2 0x333 PUSH2 0xDB2 JUMP JUMPDEST PUSH2 0x33B PUSH2 0xDCD JUMP JUMPDEST SWAP1 PUSH1 0x44 CALLDATALOAD PUSH8 0xFFFFFFFFFFFFFFFF DUP2 GT PUSH2 0x9EE JUMPI PUSH2 0x35C SWAP1 CALLDATASIZE SWAP1 PUSH1 0x4 ADD PUSH2 0xDDD JUMP JUMPDEST SWAP3 SWAP1 PUSH1 0xA4 CALLDATALOAD SWAP4 PUSH1 0xC4 CALLDATALOAD PUSH8 0xFFFFFFFFFFFFFFFF DUP2 GT PUSH2 0x9EA JUMPI PUSH2 0x382 SWAP1 CALLDATASIZE SWAP1 PUSH1 0x4 ADD PUSH2 0xDDD JUMP JUMPDEST SWAP6 PUSH1 0x2 DUP9 SLOAD EQ PUSH2 0x9A5 JUMPI PUSH1 0x2 DUP9 SSTORE TIMESTAMP DUP2 GT ISZERO PUSH2 0x960 JUMPI PUSH2 0xE10 TIMESTAMP ADD DUP1 TIMESTAMP GT PUSH2 0x907 JUMPI DUP2 GT PUSH2 0x91B JUMPI PUSH2 0x12C TIMESTAMP ADD DUP1 TIMESTAMP GT PUSH2 0x907 JUMPI DUP2 LT PUSH2 0x8C2 JUMPI PUSH2 0x3D1 PUSH1 0x41 SWAP2 PUSH1 0x84 CALLDATALOAD PUSH1 0x64 CALLDATALOAD DUP7 DUP9 DUP11 DUP13 PUSH2 0xEF3 JUMP JUMPDEST SWAP7 SUB PUSH2 0x872 JUMPI PUSH1 0x40 MLOAD SWAP1 PUSH32 0x19457468657265756D205369676E6564204D6573736167653A0A333200000000 PUSH1 0x20 DUP4 ADD MSTORE DUP7 PUSH1 0x3C DUP4 ADD MSTORE PUSH1 0x3C DUP3 MSTORE DUP2 PUSH1 0x60 DUP2 ADD LT PUSH8 0xFFFFFFFFFFFFFFFF PUSH1 0x60 DUP5 ADD GT OR PUSH2 0x85E JUMPI PUSH1 0x80 PUSH1 0x60 DUP4 PUSH1 0x20 DUP12 SWAP5 DUP4 DUP3 SWAP8 ADD PUSH1 0x40 MSTORE DUP3 MLOAD DUP3 DUP5 ADD KECCAK256 DUP5 DUP5 ADD MSTORE PUSH1 0x40 DUP2 ADD CALLDATALOAD DUP7 BYTE DUP6 DUP5 ADD MSTORE DUP1 CALLDATALOAD PUSH1 0xA0 DUP5 ADD MSTORE ADD CALLDATALOAD PUSH1 0xC0 DUP3 ADD MSTORE DUP4 DUP1 MSTORE ADD PUSH1 0x1 GAS STATICCALL ISZERO PUSH2 0x853 JUMPI DUP6 MLOAD PUSH1 0x2 SLOAD PUSH1 0x1 PUSH1 0x1 PUSH1 0xA0 SHL SUB SWAP1 DUP2 AND SWAP2 AND DUP2 SWAP1 SUB PUSH2 0x80E JUMPI PUSH1 0x40 MLOAD PUSH1 0x60 SWAP2 SWAP1 SWAP2 SHL PUSH12 0xFFFFFFFFFFFFFFFFFFFFFFFF NOT AND PUSH1 0x20 DUP3 ADD SWAP1 DUP2 MSTORE PUSH1 0x84 CALLDATALOAD PUSH1 0x34 DUP4 ADD MSTORE SWAP1 PUSH2 0x4BC DUP2 PUSH1 0x54 DUP2 ADD JUMPDEST SUB PUSH1 0x1F NOT DUP2 ADD DUP4 MSTORE DUP3 PUSH2 0xE8D JUMP JUMPDEST MLOAD SWAP1 KECCAK256 DUP1 DUP8 MSTORE PUSH1 0x5 PUSH1 0x20 MSTORE PUSH1 0xFF PUSH1 0x40 DUP9 KECCAK256 SLOAD AND PUSH2 0x7C9 JUMPI DUP7 MSTORE PUSH1 0x5 PUSH1 0x20 MSTORE PUSH1 0x40 DUP1 DUP8 KECCAK256 DUP1 SLOAD PUSH1 0xFF NOT AND PUSH1 0x1 OR SWAP1 SSTORE PUSH1 0x3 SLOAD SWAP1 MLOAD PUSH4 0x1D26814F PUSH1 0xE3 SHL DUP2 MSTORE PUSH1 0x1 PUSH1 0x1 PUSH1 0xA0 SHL SUB DUP7 DUP2 AND PUSH1 0x4 DUP4 ADD MSTORE PUSH1 0xFF DUP7 AND PUSH1 0x24 DUP4 ADD MSTORE PUSH1 0x60 PUSH1 0x44 DUP4 ADD MSTORE SWAP1 SWAP2 DUP9 SWAP2 DUP4 SWAP2 AND DUP2 DUP1 PUSH2 0x530 PUSH1 0x64 DUP3 ADD DUP9 DUP11 PUSH2 0xED2 JUMP JUMPDEST SUB SWAP2 GAS STATICCALL SWAP1 DUP2 ISZERO PUSH2 0x6C7 JUMPI DUP8 SWAP1 DUP9 SWAP3 PUSH2 0x710 JUMPI JUMPDEST POP ISZERO PUSH2 0x6D2 JUMPI POP PUSH1 0x1 PUSH1 0x1 PUSH1 0xA0 SHL SUB DUP5 AND EXTCODESIZE ISZERO PUSH2 0x6A1 JUMPI PUSH1 0x40 MLOAD PUSH4 0x2B67A899 PUSH1 0xE1 SHL DUP2 MSTORE PUSH1 0xFF DUP5 AND PUSH1 0x4 DUP3 ADD MSTORE PUSH1 0x40 PUSH1 0x24 DUP3 ADD MSTORE DUP7 DUP2 DUP1 PUSH2 0x589 PUSH1 0x44 DUP3 ADD DUP7 DUP9 PUSH2 0xED2 JUMP JUMPDEST SUB DUP2 DUP4 PUSH1 0x1 PUSH1 0x1 PUSH1 0xA0 SHL SUB DUP11 AND GAS CALL DUP1 ISZERO PUSH2 0x6C7 JUMPI PUSH2 0x6B4 JUMPI JUMPDEST POP PUSH1 0x4 SLOAD DUP7 SWAP1 PUSH1 0x1 PUSH1 0x1 PUSH1 0xA0 SHL SUB AND DUP1 EXTCODESIZE ISZERO PUSH2 0x6B0 JUMPI PUSH1 0x40 MLOAD PUSH4 0xC9B708A3 PUSH1 0xE0 SHL DUP2 MSTORE PUSH1 0x1 PUSH1 0x1 PUSH1 0xA0 SHL SUB DUP8 AND PUSH1 0x4 DUP3 ADD MSTORE CALLER PUSH1 0x24 DUP3 ADD MSTORE PUSH1 0xFF DUP7 AND PUSH1 0x44 DUP3 ADD MSTORE PUSH1 0xE0 PUSH1 0x64 DUP3 ADD MSTORE SWAP1 DUP3 SWAP1 DUP3 SWAP1 DUP2 DUP4 DUP2 PUSH2 0x601 PUSH1 0xE4 DUP3 ADD DUP11 DUP13 PUSH2 0xED2 JUMP JUMPDEST DUP14 PUSH1 0x84 DUP4 ADD MSTORE PUSH1 0x64 CALLDATALOAD PUSH1 0xA4 DUP4 ADD MSTORE TIMESTAMP PUSH1 0xC4 DUP4 ADD MSTORE SUB SWAP3 GAS CALL DUP1 ISZERO PUSH2 0x6A5 JUMPI PUSH2 0x68D JUMPI JUMPDEST POP POP PUSH32 0x820156463455DB49CC1814F6FE87F5BD75EEB8734FCE3524FAC878BA9D63734F SWAP2 PUSH2 0x666 SWAP2 PUSH1 0xFF PUSH1 0x40 MLOAD SWAP6 AND DUP6 MSTORE PUSH1 0x80 PUSH1 0x20 DUP7 ADD MSTORE PUSH1 0x80 DUP6 ADD SWAP2 PUSH2 0xED2 JUMP JUMPDEST PUSH1 0x64 CALLDATALOAD PUSH1 0x40 DUP5 ADD MSTORE TIMESTAMP PUSH1 0x60 DUP5 ADD MSTORE CALLER SWAP4 PUSH1 0x1 PUSH1 0x1 PUSH1 0xA0 SHL SUB AND SWAP3 SWAP1 DUP2 SWAP1 SUB SWAP1 LOG4 PUSH1 0x1 DUP2 SSTORE DUP1 RETURN JUMPDEST PUSH2 0x696 SWAP1 PUSH2 0xE63 JUMP JUMPDEST PUSH2 0x6A1 JUMPI DUP6 CODESIZE PUSH2 0x624 JUMP JUMPDEST DUP6 DUP1 REVERT JUMPDEST PUSH1 0x40 MLOAD RETURNDATASIZE DUP5 DUP3 RETURNDATACOPY RETURNDATASIZE SWAP1 REVERT JUMPDEST POP DUP1 REVERT JUMPDEST PUSH2 0x6C0 SWAP1 SWAP7 SWAP2 SWAP7 PUSH2 0xE63 JUMP JUMPDEST SWAP5 CODESIZE PUSH2 0x5A3 JUMP JUMPDEST PUSH1 0x40 MLOAD RETURNDATASIZE DUP10 DUP3 RETURNDATACOPY RETURNDATASIZE SWAP1 REVERT JUMPDEST PUSH1 0x44 PUSH1 0x40 MLOAD DUP1 SWAP3 PUSH3 0x461BCD PUSH1 0xE5 SHL DUP3 MSTORE PUSH1 0x20 PUSH1 0x4 DUP4 ADD MSTORE PUSH2 0x702 DUP2 MLOAD DUP1 SWAP3 DUP2 PUSH1 0x24 DUP7 ADD MSTORE PUSH1 0x20 DUP7 DUP7 ADD SWAP2 ADD PUSH2 0xEAF JUMP JUMPDEST PUSH1 0x1F ADD PUSH1 0x1F NOT AND DUP2 ADD SUB ADD SWAP1 REVERT JUMPDEST SWAP2 POP POP RETURNDATASIZE DUP1 DUP9 DUP4 RETURNDATACOPY PUSH2 0x722 DUP2 DUP4 PUSH2 0xE8D JUMP JUMPDEST DUP2 ADD SWAP1 PUSH1 0x40 DUP2 DUP4 SUB SLT PUSH2 0x7C5 JUMPI DUP1 MLOAD SWAP1 DUP2 ISZERO ISZERO DUP3 SUB PUSH2 0x7C1 JUMPI PUSH1 0x20 DUP2 ADD MLOAD SWAP1 PUSH8 0xFFFFFFFFFFFFFFFF DUP3 GT PUSH2 0x7A9 JUMPI ADD DUP3 PUSH1 0x1F DUP3 ADD SLT ISZERO PUSH2 0x7C1 JUMPI DUP1 MLOAD PUSH8 0xFFFFFFFFFFFFFFFF DUP2 GT PUSH2 0x7AD JUMPI PUSH1 0x40 MLOAD SWAP4 PUSH2 0x785 PUSH1 0x1F DUP4 ADD PUSH1 0x1F NOT AND PUSH1 0x20 ADD DUP7 PUSH2 0xE8D JUMP JUMPDEST DUP2 DUP6 MSTORE PUSH1 0x20 DUP3 DUP5 ADD ADD GT PUSH2 0x7A9 JUMPI PUSH2 0x7A3 SWAP2 PUSH1 0x20 DUP1 DUP7 ADD SWAP2 ADD PUSH2 0xEAF JUMP JUMPDEST CODESIZE PUSH2 0x544 JUMP JUMPDEST DUP10 DUP1 REVERT JUMPDEST PUSH4 0x4E487B71 PUSH1 0xE0 SHL DUP11 MSTORE PUSH1 0x41 PUSH1 0x4 MSTORE PUSH1 0x24 DUP11 REVERT JUMPDEST DUP9 DUP1 REVERT JUMPDEST DUP8 DUP1 REVERT JUMPDEST PUSH1 0x40 MLOAD PUSH3 0x461BCD PUSH1 0xE5 SHL DUP2 MSTORE PUSH1 0x20 PUSH1 0x4 DUP3 ADD MSTORE PUSH1 0x1C PUSH1 0x24 DUP3 ADD MSTORE PUSH32 0x4578656375746F723A204E6F6E636520616C7265616479207573656400000000 PUSH1 0x44 DUP3 ADD MSTORE PUSH1 0x64 SWAP1 REVERT JUMPDEST PUSH1 0x40 MLOAD PUSH3 0x461BCD PUSH1 0xE5 SHL DUP2 MSTORE PUSH1 0x20 PUSH1 0x4 DUP3 ADD MSTORE PUSH1 0x1B PUSH1 0x24 DUP3 ADD MSTORE PUSH32 0x4578656375746F723A20496E76616C6964207369676E61747572650000000000 PUSH1 0x44 DUP3 ADD MSTORE PUSH1 0x64 SWAP1 REVERT JUMPDEST PUSH1 0x40 MLOAD RETURNDATASIZE DUP8 DUP3 RETURNDATACOPY RETURNDATASIZE SWAP1 REVERT JUMPDEST PUSH4 0x4E487B71 PUSH1 0xE0 SHL DUP9 MSTORE PUSH1 0x41 PUSH1 0x4 MSTORE PUSH1 0x24 DUP9 REVERT JUMPDEST PUSH1 0x40 MLOAD PUSH3 0x461BCD PUSH1 0xE5 SHL DUP2 MSTORE PUSH1 0x20 PUSH1 0x4 DUP3 ADD MSTORE PUSH1 0x22 PUSH1 0x24 DUP3 ADD MSTORE PUSH32 0x4578656375746F723A20496E76616C6964207369676E6174757265206C656E67 PUSH1 0x44 DUP3 ADD MSTORE PUSH2 0xE8D PUSH1 0xF3 SHL PUSH1 0x64 DUP3 ADD MSTORE PUSH1 0x84 SWAP1 REVERT JUMPDEST PUSH1 0x40 MLOAD PUSH3 0x461BCD PUSH1 0xE5 SHL DUP2 MSTORE PUSH1 0x20 PUSH1 0x4 DUP3 ADD MSTORE PUSH1 0x1B PUSH1 0x24 DUP3 ADD MSTORE PUSH32 0x4578656375746F723A20446561646C696E6520746F6F20736F6F6E0000000000 PUSH1 0x44 DUP3 ADD MSTORE PUSH1 0x64 SWAP1 REVERT JUMPDEST PUSH4 0x4E487B71 PUSH1 0xE0 SHL DUP10 MSTORE PUSH1 0x11 PUSH1 0x4 MSTORE PUSH1 0x24 DUP10 REVERT JUMPDEST PUSH1 0x40 MLOAD PUSH3 0x461BCD PUSH1 0xE5 SHL DUP2 MSTORE PUSH1 0x20 PUSH1 0x4 DUP3 ADD MSTORE PUSH1 0x1A PUSH1 0x24 DUP3 ADD MSTORE PUSH32 0x4578656375746F723A20446561646C696E6520746F6F20666172000000000000 PUSH1 0x44 DUP3 ADD MSTORE PUSH1 0x64 SWAP1 REVERT JUMPDEST PUSH1 0x40 MLOAD PUSH3 0x461BCD PUSH1 0xE5 SHL DUP2 MSTORE PUSH1 0x20 PUSH1 0x4 DUP3 ADD MSTORE PUSH1 0x1D PUSH1 0x24 DUP3 ADD MSTORE PUSH32 0x4578656375746F723A20446561646C696E652068617320706173736564000000 PUSH1 0x44 DUP3 ADD MSTORE PUSH1 0x64 SWAP1 REVERT JUMPDEST PUSH1 0x40 MLOAD PUSH3 0x461BCD PUSH1 0xE5 SHL DUP2 MSTORE PUSH1 0x20 PUSH1 0x4 DUP3 ADD MSTORE PUSH1 0x1F PUSH1 0x24 DUP3 ADD MSTORE PUSH32 0x5265656E7472616E637947756172643A207265656E7472616E742063616C6C00 PUSH1 0x44 DUP3 ADD MSTORE PUSH1 0x64 SWAP1 REVERT JUMPDEST DUP7 DUP1 REVERT JUMPDEST DUP4 DUP1 REVERT JUMPDEST POP CALLVALUE PUSH2 0x11C JUMPI DUP1 PUSH1 0x3 NOT CALLDATASIZE ADD SLT PUSH2 0x11C JUMPI PUSH1 0x3 SLOAD PUSH1 0x40 MLOAD PUSH1 0x1 PUSH1 0x1 PUSH1 0xA0 SHL SUB SWAP1 SWAP2 AND DUP2 MSTORE PUSH1 0x20 SWAP1 RETURN JUMPDEST POP CALLVALUE PUSH2 0x11C JUMPI PUSH1 0x20 CALLDATASIZE PUSH1 0x3 NOT ADD SLT PUSH2 0x11C JUMPI PUSH1 0x1 PUSH1 0x1 PUSH1 0xA0 SHL SUB PUSH2 0xA3D PUSH2 0xDB2 JUMP JUMPDEST AND DUP2 MSTORE PUSH1 0x6 PUSH1 0x20 MSTORE PUSH1 0x40 DUP2 KECCAK256 SLOAD SWAP1 PUSH1 0x1 DUP3 ADD DUP1 SWAP3 GT PUSH2 0xA61 JUMPI PUSH1 0x20 DUP3 PUSH1 0x40 MLOAD SWAP1 DUP2 MSTORE RETURN JUMPDEST PUSH4 0x4E487B71 PUSH1 0xE0 SHL DUP2 MSTORE PUSH1 0x11 PUSH1 0x4 MSTORE PUSH1 0x24 SWAP1 REVERT JUMPDEST POP CALLVALUE PUSH2 0x11C JUMPI DUP1 PUSH1 0x3 NOT CALLDATASIZE ADD SLT PUSH2 0x11C JUMPI PUSH1 0x1 SLOAD PUSH1 0x40 MLOAD PUSH1 0x1 PUSH1 0x1 PUSH1 0xA0 SHL SUB SWAP1 SWAP2 AND DUP2 MSTORE PUSH1 0x20 SWAP1 RETURN JUMPDEST POP CALLVALUE PUSH2 0x11C JUMPI DUP1 PUSH1 0x3 NOT CALLDATASIZE ADD SLT PUSH2 0x11C JUMPI PUSH1 0x20 PUSH1 0x40 MLOAD PUSH2 0xE10 DUP2 MSTORE RETURN JUMPDEST POP CALLVALUE PUSH2 0x11C JUMPI DUP1 PUSH1 0x3 NOT CALLDATASIZE ADD SLT PUSH2 0x11C JUMPI PUSH2 0xAD4 PUSH2 0xE0B JUMP JUMPDEST PUSH1 0x1 DUP1 SLOAD PUSH1 0x1 PUSH1 0x1 PUSH1 0xA0 SHL SUB NOT DUP2 AND SWAP1 SWAP2 SSTORE DUP2 SWAP1 PUSH1 0x1 PUSH1 0x1 PUSH1 0xA0 SHL SUB AND PUSH32 0x8BE0079C531659141344CD1FD0A4F28419497F9722A3DAAFE3B4186F6B6457E0 DUP3 DUP1 LOG3 DUP1 RETURN JUMPDEST POP CALLVALUE PUSH2 0x11C JUMPI PUSH1 0x20 CALLDATASIZE PUSH1 0x3 NOT ADD SLT PUSH2 0x11C JUMPI PUSH2 0xB32 PUSH2 0xDB2 JUMP JUMPDEST PUSH2 0xB3A PUSH2 0xE0B JUMP JUMPDEST PUSH1 0x1 PUSH1 0x1 PUSH1 0xA0 SHL SUB AND PUSH2 0xB4E DUP2 ISZERO ISZERO PUSH2 0xF54 JUMP JUMPDEST PUSH1 0x1 PUSH1 0x1 PUSH1 0x60 SHL SUB PUSH1 0xA0 SHL PUSH1 0x2 SLOAD AND OR PUSH1 0x2 SSTORE DUP1 RETURN JUMPDEST POP CALLVALUE PUSH2 0x11C JUMPI PUSH1 0x20 CALLDATASIZE PUSH1 0x3 NOT ADD SLT PUSH2 0x11C JUMPI PUSH2 0xB7E PUSH2 0xDB2 JUMP JUMPDEST PUSH2 0xB86 PUSH2 0xE0B JUMP JUMPDEST PUSH1 0x1 PUSH1 0x1 PUSH1 0xA0 SHL SUB SWAP1 DUP2 AND SWAP1 PUSH2 0xB9D DUP3 ISZERO ISZERO PUSH2 0xF54 JUMP JUMPDEST PUSH1 0x2 SLOAD DUP3 PUSH1 0x1 PUSH1 0x1 PUSH1 0x60 SHL SUB PUSH1 0xA0 SHL DUP3 AND OR PUSH1 0x2 SSTORE AND PUSH32 0x15C539F3C72A7122B9BE60C5A7D9929C4882896ECA5158969A1877C067192D9B DUP4 DUP1 LOG3 DUP1 RETURN JUMPDEST POP CALLVALUE PUSH2 0x11C JUMPI PUSH1 0x20 CALLDATASIZE PUSH1 0x3 NOT ADD SLT PUSH2 0x11C JUMPI PUSH1 0x2 SLOAD PUSH1 0x40 DUP1 MLOAD PUSH1 0x60 SWAP3 SWAP1 SWAP3 SHL PUSH12 0xFFFFFFFFFFFFFFFFFFFFFFFF NOT AND PUSH1 0x20 DUP4 DUP2 ADD SWAP2 DUP3 MSTORE PUSH1 0x4 CALLDATALOAD PUSH1 0x34 DUP6 ADD MSTORE SWAP4 PUSH1 0xFF SWAP4 SWAP1 SWAP2 SWAP1 PUSH2 0xC2C DUP2 PUSH1 0x54 DUP2 ADD PUSH2 0x4AE JUMP JUMPDEST MLOAD SWAP1 KECCAK256 DUP2 MSTORE PUSH1 0x5 DUP5 MSTORE KECCAK256 SLOAD AND PUSH1 0x40 MLOAD SWAP1 ISZERO ISZERO DUP2 MSTORE RETURN JUMPDEST POP CALLVALUE PUSH2 0x11C JUMPI DUP1 PUSH1 0x3 NOT CALLDATASIZE ADD SLT PUSH2 0x11C JUMPI PUSH1 0x4 SLOAD PUSH1 0x40 MLOAD PUSH1 0x1 PUSH1 0x1 PUSH1 0xA0 SHL SUB SWAP1 SWAP2 AND DUP2 MSTORE PUSH1 0x20 SWAP1 RETURN JUMPDEST POP CALLVALUE PUSH2 0x11C JUMPI DUP1 PUSH1 0x3 NOT CALLDATASIZE ADD SLT PUSH2 0x11C JUMPI PUSH2 0xC84 PUSH2 0xE0B JUMP JUMPDEST PUSH1 0x2 DUP1 SLOAD PUSH1 0x1 PUSH1 0x1 PUSH1 0xA0 SHL SUB NOT AND SWAP1 SSTORE DUP1 RETURN JUMPDEST POP CALLVALUE PUSH2 0x11C JUMPI PUSH1 0x20 CALLDATASIZE PUSH1 0x3 NOT ADD SLT PUSH2 0x11C JUMPI PUSH2 0xCB1 PUSH2 0xDB2 JUMP JUMPDEST PUSH2 0xCB9 PUSH2 0xE0B JUMP JUMPDEST PUSH1 0x1 PUSH1 0x1 PUSH1 0xA0 SHL SUB SWAP1 DUP2 AND SWAP1 DUP2 ISZERO PUSH2 0xD08 JUMPI PUSH1 0x4 SLOAD DUP3 PUSH1 0x1 PUSH1 0x1 PUSH1 0x60 SHL SUB PUSH1 0xA0 SHL DUP3 AND OR PUSH1 0x4 SSTORE AND PUSH32 0x8D0432039A27E218A8F052890D0F2DE847055C352338467E7215EC7E0EC61B58 DUP4 DUP1 LOG3 DUP1 RETURN JUMPDEST PUSH1 0x40 MLOAD PUSH3 0x461BCD PUSH1 0xE5 SHL DUP2 MSTORE PUSH1 0x20 PUSH1 0x4 DUP3 ADD MSTORE PUSH1 0x1B PUSH1 0x24 DUP3 ADD MSTORE PUSH32 0x4578656375746F723A20496E76616C6964206175646974206C6F670000000000 PUSH1 0x44 DUP3 ADD MSTORE PUSH1 0x64 SWAP1 REVERT JUMPDEST POP CALLVALUE PUSH2 0x11C JUMPI PUSH1 0xC0 CALLDATASIZE PUSH1 0x3 NOT ADD SLT PUSH2 0x11C JUMPI PUSH2 0xD67 PUSH2 0xDB2 JUMP JUMPDEST SWAP1 PUSH2 0xD70 PUSH2 0xDCD JUMP JUMPDEST SWAP1 PUSH1 0x44 CALLDATALOAD SWAP1 PUSH8 0xFFFFFFFFFFFFFFFF DUP3 GT PUSH2 0x11C JUMPI PUSH1 0x20 PUSH2 0xDAA DUP6 DUP6 PUSH2 0xD98 CALLDATASIZE PUSH1 0x4 DUP9 ADD PUSH2 0xDDD JUMP JUMPDEST PUSH1 0xA4 CALLDATALOAD SWAP4 PUSH1 0x84 CALLDATALOAD SWAP4 PUSH1 0x64 CALLDATALOAD SWAP4 SWAP2 PUSH2 0xEF3 JUMP JUMPDEST PUSH1 0x40 MLOAD SWAP1 DUP2 MSTORE RETURN JUMPDEST PUSH1 0x4 CALLDATALOAD SWAP1 PUSH1 0x1 PUSH1 0x1 PUSH1 0xA0 SHL SUB DUP3 AND DUP3 SUB PUSH2 0xDC8 JUMPI JUMP JUMPDEST PUSH1 0x0 DUP1 REVERT JUMPDEST PUSH1 0x24 CALLDATALOAD SWAP1 PUSH1 0xFF DUP3 AND DUP3 SUB PUSH2 0xDC8 JUMPI JUMP JUMPDEST SWAP2 DUP2 PUSH1 0x1F DUP5 ADD SLT ISZERO PUSH2 0xDC8 JUMPI DUP3 CALLDATALOAD SWAP2 PUSH8 0xFFFFFFFFFFFFFFFF DUP4 GT PUSH2 0xDC8 JUMPI PUSH1 0x20 DUP4 DUP2 DUP7 ADD SWAP6 ADD ADD GT PUSH2 0xDC8 JUMPI JUMP JUMPDEST PUSH1 0x1 SLOAD PUSH1 0x1 PUSH1 0x1 PUSH1 0xA0 SHL SUB AND CALLER SUB PUSH2 0xE1F JUMPI JUMP JUMPDEST PUSH1 0x64 PUSH1 0x40 MLOAD PUSH3 0x461BCD PUSH1 0xE5 SHL DUP2 MSTORE PUSH1 0x20 PUSH1 0x4 DUP3 ADD MSTORE PUSH1 0x20 PUSH1 0x24 DUP3 ADD MSTORE PUSH32 0x4F776E61626C653A2063616C6C6572206973206E6F7420746865206F776E6572 PUSH1 0x44 DUP3 ADD MSTORE REVERT JUMPDEST PUSH8 0xFFFFFFFFFFFFFFFF DUP2 GT PUSH2 0xE77 JUMPI PUSH1 0x40 MSTORE JUMP JUMPDEST PUSH4 0x4E487B71 PUSH1 0xE0 SHL PUSH1 0x0 MSTORE PUSH1 0x41 PUSH1 0x4 MSTORE PUSH1 0x24 PUSH1 0x0 REVERT JUMPDEST SWAP1 PUSH1 0x1F DUP1 NOT SWAP2 ADD AND DUP2 ADD SWAP1 DUP2 LT PUSH8 0xFFFFFFFFFFFFFFFF DUP3 GT OR PUSH2 0xE77 JUMPI PUSH1 0x40 MSTORE JUMP JUMPDEST PUSH1 0x0 JUMPDEST DUP4 DUP2 LT PUSH2 0xEC2 JUMPI POP POP PUSH1 0x0 SWAP2 ADD MSTORE JUMP JUMPDEST DUP2 DUP2 ADD MLOAD DUP4 DUP3 ADD MSTORE PUSH1 0x20 ADD PUSH2 0xEB2 JUMP JUMPDEST SWAP1 DUP1 PUSH1 0x20 SWAP4 SWAP3 DUP2 DUP5 MSTORE DUP5 DUP5 ADD CALLDATACOPY PUSH1 0x0 DUP3 DUP3 ADD DUP5 ADD MSTORE PUSH1 0x1F ADD PUSH1 0x1F NOT AND ADD ADD SWAP1 JUMP JUMPDEST SWAP6 PUSH2 0xF4E SWAP5 SWAP2 SWAP3 SWAP6 PUSH1 0x95 SWAP5 DUP1 PUSH1 0x40 MLOAD SWAP9 DUP10 SWAP7 PUSH1 0x20 DUP9 ADD SWAP12 PUSH1 0x1 PUSH1 0x1 PUSH1 0x60 SHL SUB NOT SWAP1 PUSH1 0x60 SHL AND DUP13 MSTORE PUSH1 0xFF PUSH1 0xF8 SHL SWAP1 PUSH1 0xF8 SHL AND PUSH1 0x34 DUP9 ADD MSTORE PUSH1 0x35 DUP8 ADD CALLDATACOPY DUP5 ADD SWAP3 PUSH1 0x35 DUP5 ADD MSTORE PUSH1 0x55 DUP4 ADD MSTORE PUSH1 0x75 DUP3 ADD MSTORE SUB PUSH1 0x75 DUP2 ADD DUP5 MSTORE ADD DUP3 PUSH2 0xE8D JUMP JUMPDEST MLOAD SWAP1 KECCAK256 SWAP1 JUMP JUMPDEST ISZERO PUSH2 0xF5B JUMPI JUMP JUMPDEST PUSH1 0x40 MLOAD PUSH3 0x461BCD PUSH1 0xE5 SHL DUP2 MSTORE PUSH1 0x20 PUSH1 0x4 DUP3 ADD MSTORE PUSH1 0x1E PUSH1 0x24 DUP3 ADD MSTORE PUSH32 0x4578656375746F723A20496E76616C6964206167656E74207369676E65720000 PUSH1 0x44 DUP3 ADD MSTORE PUSH1 0x64 SWAP1 REVERT INVALID LOG2 PUSH5 0x6970667358 0x22 SLT KECCAK256 EQ PUSH20 0x4A1221B39B25FD434C63DA5BD9AE807AC1E421BF 0xB9 PUSH25 0xC5984E9FEA9A850664736F6C63430008130033000000000000 "},"methodIdentifiers":{"MAX_DEADLINE_DURATION()":"7322ae37","MIN_DEADLINE_DURATION()":"c57b9c0c","agentSigner()":"f4e2592b","auditLog()":"5a2d6ebd","emergencyPause()":"51858e27","emergencyUnpause(address)":"6fd368b0","executeProposal(address,uint8,bytes,bytes32,uint256,uint256,bytes)":"b9745a55","getNextNonce(address)":"90193b7c","getProposalHash(address,uint8,bytes,bytes32,uint256,uint256)":"15c4b06a","isNonceUsed(uint256)":"5d00bb12","owner()":"8da5cb5b","policyManager()":"ab3dbf3b","renounceOwnership()":"715018a6","transferOwnership(address)":"f2fde38b","updateAgentSigner(address)":"643776de","updateAuditLog(address)":"4c653a3e","updatePolicyManager(address)":"c629fe90","usedNonces(bytes32)":"feb61724","vaultNonces(address)":"e361cd59"}}}}}