{"src/contracts/Vault.sol":{"Vault":{"abi":[{"inputs":[],"stateMutability":"nonpayable","type":"constructor"},{"anonymous":false,"inputs":[{"indexed":true,"internalType":"address","name":"executor","type":"address"},{"indexed":false,"internalType":"uint8","name":"actionType","type":"uint8"},{"indexed":false,"internalType":"bytes","name":"params","type":"bytes"},{"indexed":false,"internalType":"uint256","name":"timestamp","type":"uint256"}],"name":"ActionExecuted","type":"event"},{"anonymous":false,"inputs":[{"indexed":true,"internalType":"address","name":"user","type":"address"},{"indexed":true,"internalType":"address","name":"token","type":"address"},{"indexed":false,"internalType":"uint256","name":"amount","type":"uint256"}],"name":"Deposit","type":"event"},{"anonymous":false,"inputs":[{"indexed":true,"internalType":"address","name":"previousOwner","type":"address"},{"indexed":true,"internalType":"address","name":"newOwner","type":"address"}],"name":"OwnershipTransferred","type":"event"},{"anonymous":false,"inputs":[{"indexed":true,"internalType":"address","name":"user","type":"address"},{"indexed":true,"internalType":"address","name":"token","type":"address"},{"indexed":false,"internalType":"uint256","name":"amount","type":"uint256"}],"name":"Withdraw","type":"event"},{"inputs":[{"internalType":"address","name":"executor","type":"address"}],"name":"addAuthorizedExecutor","outputs":[],"stateMutability":"nonpayable","type":"function"},{"inputs":[{"internalType":"address","name":"token","type":"address"}],"name":"addSupportedToken","outputs":[],"stateMutability":"nonpayable","type":"function"},{"inputs":[{"internalType":"address","name":"","type":"address"}],"name":"authorizedExecutors","outputs":[{"internalType":"bool","name":"","type":"bool"}],"stateMutability":"view","type":"function"},{"inputs":[{"internalType":"address","name":"","type":"address"},{"internalType":"address","name":"","type":"address"}],"name":"balances","outputs":[{"internalType":"uint256","name":"","type":"uint256"}],"stateMutability":"view","type":"function"},{"inputs":[{"internalType":"address","name":"token","type":"address"},{"internalType":"uint256","name":"amount","type":"uint256"}],"name":"deposit","outputs":[],"stateMutability":"nonpayable","type":"function"},{"inputs":[{"internalType":"address","name":"token","type":"address"}],"name":"emergencyWithdraw","outputs":[],"stateMutability":"nonpayable","type":"function"},{"inputs":[{"internalType":"uint8","name":"actionType","type":"uint8"},{"internalType":"bytes","name":"params","type":"bytes"}],"name":"executeAction","outputs":[],"stateMutability":"nonpayable","type":"function"},{"inputs":[{"internalType":"address","name":"user","type":"address"},{"internalType":"address","name":"token","type":"address"}],"name":"getBalance","outputs":[{"internalType":"uint256","name":"","type":"uint256"}],"stateMutability":"view","type":"function"},{"inputs":[{"internalType":"address","name":"token","type":"address"}],"name":"getVaultBalance","outputs":[{"internalType":"uint256","name":"","type":"uint256"}],"stateMutability":"view","type":"function"},{"inputs":[],"name":"lastActivity","outputs":[{"internalType":"uint256","name":"","type":"uint256"}],"stateMutability":"view","type":"function"},{"inputs":[],"name":"owner","outputs":[{"internalType":"address","name":"","type":"address"}],"stateMutability":"view","type":"function"},{"inputs":[{"internalType":"address","name":"executor","type":"address"}],"name":"removeAuthorizedExecutor","outputs":[],"stateMutability":"nonpayable","type":"function"},{"inputs":[{"internalType":"address","name":"token","type":"address"}],"name":"removeSupportedToken","outputs":[],"stateMutability":"nonpayable","type":"function"},{"inputs":[],"name":"renounceOwnership","outputs":[],"stateMutability":"nonpayable","type":"function"},{"inputs":[{"internalType":"address","name":"","type":"address"}],"name":"supportedTokens","outputs":[{"internalType":"bool","name":"","type":"bool"}],"stateMutability":"view","type":"function"},{"inputs":[],"name":"totalDeposits","outputs":[{"internalType":"uint256","name":"","type":"uint256"}],"stateMutability":"view","type":"function"},{"inputs":[{"internalType":"address","name":"newOwner","type":"address"}],"name":"transferOwnership","outputs":[],"stateMutability":"nonpayable","type":"function"},{"inputs":[{"internalType":"address","name":"token","type":"address"},{"internalType":"address","name":"to","type":"address"},{"internalType":"uint256","name":"amount","type":"uint256"}],"name":"transferTo","outputs":[],"stateMutability":"nonpayable","type":"function"},{"inputs":[{"internalType":"address","name":"token","type":"address"},{"internalType":"uint256","name":"amount","type":"uint256"}],"name":"withdraw","outputs":[],"stateMutability":"nonpayable","type":"function"}],"evm":{"bytecode":{"linkReferences":{},"object":"6080806040523461006257600160008181558154336001600160a01b0319821681179093556001600160a01b0316907f8be0079c531659141344cd1fd0a4f28419497f9722a3daafe3b4186f6b6457e09080a342600655610ec190816100688239f35b600080fdfe6040608081526004908136101561001557600080fd5b600091823560e01c806347e7ef24146108ca57806356cf5132146107f35780635fd51b37146107d457806360c7bae214610794578063679d86a71461075657806368c4ac261461071a5780636d69fcaf146106da5780636ff1c9bc1461061f578063715018a6146105c257806376319190146105855780637d882097146105665780638da5cb5b1461053d578063a5f2a15214610403578063b2a7f494146103c0578063c23f001f146102db578063d3d7c00214610328578063d4fac45d146102db578063f2fde38b146102105763f3fef3a3146100f257600080fd5b3461020c578160031936011261020c5761010a6109de565b9060243591610117610b2e565b60018060a01b03169283855260209180835261013860ff8388205416610a67565b610143841515610ab3565b3386526002835281862085875283528382872054106101cb5750907f9b1bfa7fa9ee420a16e124f794c35ac9f90472acc99140eb2f6447c714cad8eb9133865260028252808620858752825280862061019d858254610de0565b90556101ab84600554610de0565b600555426006556101bd843387610ded565b519283523392a36001815580f35b82606492519162461bcd60e51b8352820152601b60248201527f5661756c743a20496e73756666696369656e742062616c616e636500000000006044820152fd5b8280fd5b503461020c57602036600319011261020c5761022a6109de565b90610233610a0f565b6001600160a01b03918216928315610289575050600154826bffffffffffffffffffffffff60a01b821617600155167f8be0079c531659141344cd1fd0a4f28419497f9722a3daafe3b4186f6b6457e08380a380f35b906020608492519162461bcd60e51b8352820152602660248201527f4f776e61626c653a206e6577206f776e657220697320746865207a65726f206160448201526564647265737360d01b6064820152fd5b505034610324578060031936011261032457806020926102f96109de565b6103016109f9565b6001600160a01b0391821683526002865283832091168252845220549051908152f35b5080fd5b50919034610324576020928360031936011261020c57836001600160a01b0361034f6109de565b169160248451809481936370a0823160e01b835230908301525afa9283156103b5578093610380575b505051908152f35b909192508382813d83116103ae575b6103998183610b84565b810103126103ab575051903880610378565b80fd5b503d61038f565b8251903d90823e3d90fd5b505034610324576020366003190112610324576103db6109de565b6103e3610a0f565b6001600160a01b0316825260036020528120805460ff1916600117905580f35b508290346103245760603660031901126103245761041f6109de565b6104276109f9565b90604435923385526020916003835261044560ff8888205416610e3f565b6001600160a01b0316808652818352868620549092906104679060ff16610a67565b610472851515610ab3565b86516370a0823160e01b815230838201528181602481875afa9081156105335790869188916104fe575b50106104b25750506104af939450610ded565b80f35b865162461bcd60e51b815291820152602160248201527f5661756c743a20496e73756666696369656e74207661756c742062616c616e636044820152606560f81b606482015260849150fd5b809250838092503d831161052c575b6105178183610b84565b81010312610528578590518961049c565b8680fd5b503d61050d565b88513d89823e3d90fd5b50503461032457816003193601126103245760015490516001600160a01b039091168152602090f35b5050346103245781600319360112610324576020906005549051908152f35b503461020c57602036600319011261020c5761059f6109de565b6105a7610a0f565b6001600160a01b031683526020528120805460ff1916905580f35b83346103ab57806003193601126103ab576105db610a0f565b600180546001600160a01b0319811690915581906001600160a01b03167f8be0079c531659141344cd1fd0a4f28419497f9722a3daafe3b4186f6b6457e08280a380f35b50903461020c57602036600319011261020c5761063a6109de565b91610643610a0f565b81516370a0823160e01b815230918101919091526001600160a01b0392831690602081602481855afa9283156106d15750849261069a575b5081610685578380f35b610693926001541690610ded565b3880808380f35b9091506020813d82116106c9575b816106b560209383610b84565b810103126106c55751903861067b565b8380fd5b3d91506106a8565b513d86823e3d90fd5b503461020c57602036600319011261020c576106f46109de565b6106fc610a0f565b6001600160a01b031683526020528120805460ff1916600117905580f35b503461020c57602036600319011261020c5760209260ff918391906001600160a01b036107456109de565b168252855220541690519015158152f35b5050346103245760203660031901126103245760209160ff9082906001600160a01b036107816109de565b1681526003855220541690519015158152f35b505034610324576020366003190112610324576107af6109de565b6107b7610a0f565b6001600160a01b0316825260036020528120805460ff1916905580f35b5050346103245781600319360112610324576020906006549051908152f35b50903461020c578060031936011261020c57813560ff81168091036106c5576024359167ffffffffffffffff938484116108c657366023850112156108c6578301359384116108c25736602485850101116108c2578360247ff16772217385fd120d6d510bae3e02d90d74e6461117737d7b7aff611950c38594338852600360205261088460ff858a205416610e3f565b42600655835194855260606020860152826060860152016080840137846080858401015242908201526080813394601f80199101168101030190a280f35b8480fd5b8580fd5b50903461020c578060031936011261020c576108e46109de565b90602435916108f1610b2e565b60018060a01b0316928385528060205261091060ff8387205416610a67565b61091b831515610ab3565b81516323b872dd60e01b6020820152336024820152306044820152606480820185905281529060a082019067ffffffffffffffff8211838310176109cb575082526109669084610bbc565b3384526002602052808420838552602052808420610985838254610b0b565b905561099382600554610b0b565b60055542600655519081527f5548c837ab068cf56a2c2479df0882a4922fd203edb7517321831d95078c5f6260203392a36001815580f35b634e487b7160e01b875260419052602486fd5b600435906001600160a01b03821682036109f457565b600080fd5b602435906001600160a01b03821682036109f457565b6001546001600160a01b03163303610a2357565b606460405162461bcd60e51b815260206004820152602060248201527f4f776e61626c653a2063616c6c6572206973206e6f7420746865206f776e65726044820152fd5b15610a6e57565b60405162461bcd60e51b815260206004820152601860248201527f5661756c743a20556e737570706f7274656420746f6b656e00000000000000006044820152606490fd5b15610aba57565b60405162461bcd60e51b8152602060048201526024808201527f5661756c743a20416d6f756e74206d75737420626520677265617465722074686044820152630616e20360e41b6064820152608490fd5b91908201809211610b1857565b634e487b7160e01b600052601160045260246000fd5b600260005414610b3f576002600055565b60405162461bcd60e51b815260206004820152601f60248201527f5265656e7472616e637947756172643a207265656e7472616e742063616c6c006044820152606490fd5b90601f8019910116810190811067ffffffffffffffff821117610ba657604052565b634e487b7160e01b600052604160045260246000fd5b60018060a01b0316906040516040810167ffffffffffffffff9082811082821117610ba6576040526020938483527f5361666545524332303a206c6f772d6c6576656c2063616c6c206661696c6564858401526000808587829751910182855af1903d15610d01573d928311610ced5790610c5793929160405192610c4a88601f19601f8401160185610b84565b83523d868885013e610d0c565b805191821591848315610cc9575b505050905015610c725750565b6084906040519062461bcd60e51b82526004820152602a60248201527f5361666545524332303a204552433230206f7065726174696f6e20646964206e6044820152691bdd081cdd58d8d9595960b21b6064820152fd5b919381809450010312610324578201519081151582036103ab575080388084610c65565b634e487b7160e01b85526041600452602485fd5b90610c579392506060915b91929015610d6e5750815115610d20575090565b3b15610d295790565b60405162461bcd60e51b815260206004820152601d60248201527f416464726573733a2063616c6c20746f206e6f6e2d636f6e74726163740000006044820152606490fd5b825190915015610d815750805190602001fd5b6040519062461bcd60e51b82528160208060048301528251908160248401526000935b828510610dc7575050604492506000838284010152601f80199101168101030190fd5b8481018201518686016044015293810193859350610da4565b91908203918211610b1857565b60405163a9059cbb60e01b60208201526001600160a01b039092166024830152604480830193909352918152608081019167ffffffffffffffff831182841017610ba657610e3d92604052610bbc565b565b15610e4657565b60405162461bcd60e51b815260206004820152601c60248201527f5661756c743a20556e617574686f72697a6564206578656375746f72000000006044820152606490fdfea2646970667358221220745224c3cc8c754b9f9ca4b556977bf61db9cb903b431e60fbdd7a927abdce5664736f6c63430008130033","opcodes":"PUSH1 0x80 DUP1 PUSH1 0x40 MSTORE CALLVALUE PUSH2 0x62 JUMPI PUSH1 0x1 PUSH1 0x0 DUP2 DUP2 SSTORE DUP2 SLOAD CALLER PUSH1 0x1 PUSH1 0x1 PUSH1 0xA0 SHL SUB NOT DUP3 AND DUP2 OR SWAP1 SWAP4 SSTORE PUSH1 0x1 PUSH1 0x1 PUSH1 0xA0 SHL SUB AND SWAP1 PUSH32 0x8BE0079C531659141344CD1FD0A4F28419497F9722A3DAAFE3B4186F6B6457E0 SWAP1 DUP1 LOG3 TIMESTAMP PUSH1 0x6 SSTORE PUSH2 0xEC1 SWAP1 DUP2 PUSH2 0x68 DUP3 CODECOPY RETURN JUMPDEST PUSH1 0x0 DUP1 REVERT INVALID PUSH1 0x40 PUSH1 0x80 DUP2 MSTORE PUSH1 0x4 SWAP1 DUP2 CALLDATASIZE LT ISZERO PUSH2 0x15 JUMPI PUSH1 0x0 DUP1 REVERT JUMPDEST PUSH1 0x0 SWAP2 DUP3 CALLDATALOAD PUSH1 0xE0 SHR DUP1 PUSH4 0x47E7EF24 EQ PUSH2 0x8CA JUMPI DUP1 PUSH4 0x56CF5132 EQ PUSH2 0x7F3 JUMPI DUP1 PUSH4 0x5FD51B37 EQ PUSH2 0x7D4 JUMPI DUP1 PUSH4 0x60C7BAE2 EQ PUSH2 0x794 JUMPI DUP1 PUSH4 0x679D86A7 EQ PUSH2 0x756 JUMPI DUP1 PUSH4 0x68C4AC26 EQ PUSH2 0x71A JUMPI DUP1 PUSH4 0x6D69FCAF EQ PUSH2 0x6DA JUMPI DUP1 PUSH4 0x6FF1C9BC EQ PUSH2 0x61F JUMPI DUP1 PUSH4 0x715018A6 EQ PUSH2 0x5C2 JUMPI DUP1 PUSH4 0x76319190 EQ PUSH2 0x585 JUMPI DUP1 PUSH4 0x7D882097 EQ PUSH2 0x566 JUMPI DUP1 PUSH4 0x8DA5CB5B EQ PUSH2 0x53D JUMPI DUP1 PUSH4 0xA5F2A152 EQ PUSH2 0x403 JUMPI DUP1 PUSH4 0xB2A7F494 EQ PUSH2 0x3C0 JUMPI DUP1 PUSH4 0xC23F001F EQ PUSH2 0x2DB JUMPI DUP1 PUSH4 0xD3D7C002 EQ PUSH2 0x328 JUMPI DUP1 PUSH4 0xD4FAC45D EQ PUSH2 0x2DB JUMPI DUP1 PUSH4 0xF2FDE38B EQ PUSH2 0x210 JUMPI PUSH4 0xF3FEF3A3 EQ PUSH2 0xF2 JUMPI PUSH1 0x0 DUP1 REVERT JUMPDEST CALLVALUE PUSH2 0x20C JUMPI DUP2 PUSH1 0x3 NOT CALLDATASIZE ADD SLT PUSH2 0x20C JUMPI PUSH2 0x10A PUSH2 0x9DE JUMP JUMPDEST SWAP1 PUSH1 0x24 CALLDATALOAD SWAP2 PUSH2 0x117 PUSH2 0xB2E JUMP JUMPDEST PUSH1 0x1 DUP1 PUSH1 0xA0 SHL SUB AND SWAP3 DUP4 DUP6 MSTORE PUSH1 0x20 SWAP2 DUP1 DUP4 MSTORE PUSH2 0x138 PUSH1 0xFF DUP4 DUP9 KECCAK256 SLOAD AND PUSH2 0xA67 JUMP JUMPDEST PUSH2 0x143 DUP5 ISZERO ISZERO PUSH2 0xAB3 JUMP JUMPDEST CALLER DUP7 MSTORE PUSH1 0x2 DUP4 MSTORE DUP2 DUP7 KECCAK256 DUP6 DUP8 MSTORE DUP4 MSTORE DUP4 DUP3 DUP8 KECCAK256 SLOAD LT PUSH2 0x1CB JUMPI POP SWAP1 PUSH32 0x9B1BFA7FA9EE420A16E124F794C35AC9F90472ACC99140EB2F6447C714CAD8EB SWAP2 CALLER DUP7 MSTORE PUSH1 0x2 DUP3 MSTORE DUP1 DUP7 KECCAK256 DUP6 DUP8 MSTORE DUP3 MSTORE DUP1 DUP7 KECCAK256 PUSH2 0x19D DUP6 DUP3 SLOAD PUSH2 0xDE0 JUMP JUMPDEST SWAP1 SSTORE PUSH2 0x1AB DUP5 PUSH1 0x5 SLOAD PUSH2 0xDE0 JUMP JUMPDEST PUSH1 0x5 SSTORE TIMESTAMP PUSH1 0x6 SSTORE PUSH2 0x1BD DUP5 CALLER DUP8 PUSH2 0xDED JUMP JUMPDEST MLOAD SWAP3 DUP4 MSTORE CALLER SWAP3 LOG3 PUSH1 0x1 DUP2 SSTORE DUP1 RETURN JUMPDEST DUP3 PUSH1 0x64 SWAP3 MLOAD SWAP2 PUSH3 0x461BCD PUSH1 0xE5 SHL DUP4 MSTORE DUP3 ADD MSTORE PUSH1 0x1B PUSH1 0x24 DUP3 ADD MSTORE PUSH32 0x5661756C743A20496E73756666696369656E742062616C616E63650000000000 PUSH1 0x44 DUP3 ADD MSTORE REVERT JUMPDEST DUP3 DUP1 REVERT JUMPDEST POP CALLVALUE PUSH2 0x20C JUMPI PUSH1 0x20 CALLDATASIZE PUSH1 0x3 NOT ADD SLT PUSH2 0x20C JUMPI PUSH2 0x22A PUSH2 0x9DE JUMP JUMPDEST SWAP1 PUSH2 0x233 PUSH2 0xA0F JUMP JUMPDEST PUSH1 0x1 PUSH1 0x1 PUSH1 0xA0 SHL SUB SWAP2 DUP3 AND SWAP3 DUP4 ISZERO PUSH2 0x289 JUMPI POP POP PUSH1 0x1 SLOAD DUP3 PUSH12 0xFFFFFFFFFFFFFFFFFFFFFFFF PUSH1 0xA0 SHL DUP3 AND OR PUSH1 0x1 SSTORE AND PUSH32 0x8BE0079C531659141344CD1FD0A4F28419497F9722A3DAAFE3B4186F6B6457E0 DUP4 DUP1 LOG3 DUP1 RETURN JUMPDEST SWAP1 PUSH1 0x20 PUSH1 0x84 SWAP3 MLOAD SWAP2 PUSH3 0x461BCD PUSH1 0xE5 SHL DUP4 MSTORE DUP3 ADD MSTORE PUSH1 0x26 PUSH1 0x24 DUP3 ADD MSTORE PUSH32 0x4F776E61626C653A206E6577206F776E657220697320746865207A65726F2061 PUSH1 0x44 DUP3 ADD MSTORE PUSH6 0x646472657373 PUSH1 0xD0 SHL PUSH1 0x64 DUP3 ADD MSTORE REVERT JUMPDEST POP POP CALLVALUE PUSH2 0x324 JUMPI DUP1 PUSH1 0x3 NOT CALLDATASIZE ADD SLT PUSH2 0x324 JUMPI DUP1 PUSH1 0x20 SWAP3 PUSH2 0x2F9 PUSH2 0x9DE JUMP JUMPDEST PUSH2 0x301 PUSH2 0x9F9 JUMP JUMPDEST PUSH1 0x1 PUSH1 0x1 PUSH1 0xA0 SHL SUB SWAP2 DUP3 AND DUP4 MSTORE PUSH1 0x2 DUP7 MSTORE DUP4 DUP4 KECCAK256 SWAP2 AND DUP3 MSTORE DUP5 MSTORE KECCAK256 SLOAD SWAP1 MLOAD SWAP1 DUP2 MSTORE RETURN JUMPDEST POP DUP1 REVERT JUMPDEST POP SWAP2 SWAP1 CALLVALUE PUSH2 0x324 JUMPI PUSH1 0x20 SWAP3 DUP4 PUSH1 0x3 NOT CALLDATASIZE ADD SLT PUSH2 0x20C JUMPI DUP4 PUSH1 0x1 PUSH1 0x1 PUSH1 0xA0 SHL SUB PUSH2 0x34F PUSH2 0x9DE JUMP JUMPDEST AND SWAP2 PUSH1 0x24 DUP5 MLOAD DUP1 SWAP5 DUP2 SWAP4 PUSH4 0x70A08231 PUSH1 0xE0 SHL DUP4 MSTORE ADDRESS SWAP1 DUP4 ADD MSTORE GAS STATICCALL SWAP3 DUP4 ISZERO PUSH2 0x3B5 JUMPI DUP1 SWAP4 PUSH2 0x380 JUMPI JUMPDEST POP POP MLOAD SWAP1 DUP2 MSTORE RETURN JUMPDEST SWAP1 SWAP2 SWAP3 POP DUP4 DUP3 DUP2 RETURNDATASIZE DUP4 GT PUSH2 0x3AE JUMPI JUMPDEST PUSH2 0x399 DUP2 DUP4 PUSH2 0xB84 JUMP JUMPDEST DUP2 ADD SUB SLT PUSH2 0x3AB JUMPI POP MLOAD SWAP1 CODESIZE DUP1 PUSH2 0x378 JUMP JUMPDEST DUP1 REVERT JUMPDEST POP RETURNDATASIZE PUSH2 0x38F JUMP JUMPDEST DUP3 MLOAD SWAP1 RETURNDATASIZE SWAP1 DUP3 RETURNDATACOPY RETURNDATASIZE SWAP1 REVERT JUMPDEST POP POP CALLVALUE PUSH2 0x324 JUMPI PUSH1 0x20 CALLDATASIZE PUSH1 0x3 NOT ADD SLT PUSH2 0x324 JUMPI PUSH2 0x3DB PUSH2 0x9DE JUMP JUMPDEST PUSH2 0x3E3 PUSH2 0xA0F JUMP JUMPDEST PUSH1 0x1 PUSH1 0x1 PUSH1 0xA0 SHL SUB AND DUP3 MSTORE PUSH1 0x3 PUSH1 0x20 MSTORE DUP2 KECCAK256 DUP1 SLOAD PUSH1 0xFF NOT AND PUSH1 0x1 OR SWAP1 SSTORE DUP1 RETURN JUMPDEST POP DUP3 SWAP1 CALLVALUE PUSH2 0x324 JUMPI PUSH1 0x60 CALLDATASIZE PUSH1 0x3 NOT ADD SLT PUSH2 0x324 JUMPI PUSH2 0x41F PUSH2 0x9DE JUMP JUMPDEST PUSH2 0x427 PUSH2 0x9F9 JUMP JUMPDEST SWAP1 PUSH1 0x44 CALLDATALOAD SWAP3 CALLER DUP6 MSTORE PUSH1 0x20 SWAP2 PUSH1 0x3 DUP4 MSTORE PUSH2 0x445 PUSH1 0xFF DUP9 DUP9 KECCAK256 SLOAD AND PUSH2 0xE3F JUMP JUMPDEST PUSH1 0x1 PUSH1 0x1 PUSH1 0xA0 SHL SUB AND DUP1 DUP7 MSTORE DUP2 DUP4 MSTORE DUP7 DUP7 KECCAK256 SLOAD SWAP1 SWAP3 SWAP1 PUSH2 0x467 SWAP1 PUSH1 0xFF AND PUSH2 0xA67 JUMP JUMPDEST PUSH2 0x472 DUP6 ISZERO ISZERO PUSH2 0xAB3 JUMP JUMPDEST DUP7 MLOAD PUSH4 0x70A08231 PUSH1 0xE0 SHL DUP2 MSTORE ADDRESS DUP4 DUP3 ADD MSTORE DUP2 DUP2 PUSH1 0x24 DUP2 DUP8 GAS STATICCALL SWAP1 DUP2 ISZERO PUSH2 0x533 JUMPI SWAP1 DUP7 SWAP2 DUP9 SWAP2 PUSH2 0x4FE JUMPI JUMPDEST POP LT PUSH2 0x4B2 JUMPI POP POP PUSH2 0x4AF SWAP4 SWAP5 POP PUSH2 0xDED JUMP JUMPDEST DUP1 RETURN JUMPDEST DUP7 MLOAD PUSH3 0x461BCD PUSH1 0xE5 SHL DUP2 MSTORE SWAP2 DUP3 ADD MSTORE PUSH1 0x21 PUSH1 0x24 DUP3 ADD MSTORE PUSH32 0x5661756C743A20496E73756666696369656E74207661756C742062616C616E63 PUSH1 0x44 DUP3 ADD MSTORE PUSH1 0x65 PUSH1 0xF8 SHL PUSH1 0x64 DUP3 ADD MSTORE PUSH1 0x84 SWAP2 POP REVERT JUMPDEST DUP1 SWAP3 POP DUP4 DUP1 SWAP3 POP RETURNDATASIZE DUP4 GT PUSH2 0x52C JUMPI JUMPDEST PUSH2 0x517 DUP2 DUP4 PUSH2 0xB84 JUMP JUMPDEST DUP2 ADD SUB SLT PUSH2 0x528 JUMPI DUP6 SWAP1 MLOAD DUP10 PUSH2 0x49C JUMP JUMPDEST DUP7 DUP1 REVERT JUMPDEST POP RETURNDATASIZE PUSH2 0x50D JUMP JUMPDEST DUP9 MLOAD RETURNDATASIZE DUP10 DUP3 RETURNDATACOPY RETURNDATASIZE SWAP1 REVERT JUMPDEST POP POP CALLVALUE PUSH2 0x324 JUMPI DUP2 PUSH1 0x3 NOT CALLDATASIZE ADD SLT PUSH2 0x324 JUMPI PUSH1 0x1 SLOAD SWAP1 MLOAD PUSH1 0x1 PUSH1 0x1 PUSH1 0xA0 SHL SUB SWAP1 SWAP2 AND DUP2 MSTORE PUSH1 0x20 SWAP1 RETURN JUMPDEST POP POP CALLVALUE PUSH2 0x324 JUMPI DUP2 PUSH1 0x3 NOT CALLDATASIZE ADD SLT PUSH2 0x324 JUMPI PUSH1 0x20 SWAP1 PUSH1 0x5 SLOAD SWAP1 MLOAD SWAP1 DUP2 MSTORE RETURN JUMPDEST POP CALLVALUE PUSH2 0x20C JUMPI PUSH1 0x20 CALLDATASIZE PUSH1 0x3 NOT ADD SLT PUSH2 0x20C JUMPI PUSH2 0x59F PUSH2 0x9DE JUMP JUMPDEST PUSH2 0x5A7 PUSH2 0xA0F JUMP JUMPDEST PUSH1 0x1 PUSH1 0x1 PUSH1 0xA0 SHL SUB AND DUP4 MSTORE PUSH1 0x20 MSTORE DUP2 KECCAK256 DUP1 SLOAD PUSH1 0xFF NOT AND SWAP1 SSTORE DUP1 RETURN JUMPDEST DUP4 CALLVALUE PUSH2 0x3AB JUMPI DUP1 PUSH1 0x3 NOT CALLDATASIZE ADD SLT PUSH2 0x3AB JUMPI PUSH2 0x5DB PUSH2 0xA0F JUMP JUMPDEST PUSH1 0x1 DUP1 SLOAD PUSH1 0x1 PUSH1 0x1 PUSH1 0xA0 SHL SUB NOT DUP2 AND SWAP1 SWAP2 SSTORE DUP2 SWAP1 PUSH1 0x1 PUSH1 0x1 PUSH1 0xA0 SHL SUB AND PUSH32 0x8BE0079C531659141344CD1FD0A4F28419497F9722A3DAAFE3B4186F6B6457E0 DUP3 DUP1 LOG3 DUP1 RETURN JUMPDEST POP SWAP1 CALLVALUE PUSH2 0x20C JUMPI PUSH1 0x20 CALLDATASIZE PUSH1 0x3 NOT ADD SLT PUSH2 0x20C JUMPI PUSH2 0x63A PUSH2 0x9DE JUMP JUMPDEST SWAP2 PUSH2 0x643 PUSH2 0xA0F JUMP JUMPDEST DUP2 MLOAD PUSH4 0x70A08231 PUSH1 0xE0 SHL DUP2 MSTORE ADDRESS SWAP2 DUP2 ADD SWAP2 SWAP1 SWAP2 MSTORE PUSH1 0x1 PUSH1 0x1 PUSH1 0xA0 SHL SUB SWAP3 DUP4 AND SWAP1 PUSH1 0x20 DUP2 PUSH1 0x24 DUP2 DUP6 GAS STATICCALL SWAP3 DUP4 ISZERO PUSH2 0x6D1 JUMPI POP DUP5 SWAP3 PUSH2 0x69A JUMPI JUMPDEST POP DUP2 PUSH2 0x685 JUMPI DUP4 DUP1 RETURN JUMPDEST PUSH2 0x693 SWAP3 PUSH1 0x1 SLOAD AND SWAP1 PUSH2 0xDED JUMP JUMPDEST CODESIZE DUP1 DUP1 DUP4 DUP1 RETURN JUMPDEST SWAP1 SWAP2 POP PUSH1 0x20 DUP2 RETURNDATASIZE DUP3 GT PUSH2 0x6C9 JUMPI JUMPDEST DUP2 PUSH2 0x6B5 PUSH1 0x20 SWAP4 DUP4 PUSH2 0xB84 JUMP JUMPDEST DUP2 ADD SUB SLT PUSH2 0x6C5 JUMPI MLOAD SWAP1 CODESIZE PUSH2 0x67B JUMP JUMPDEST DUP4 DUP1 REVERT JUMPDEST RETURNDATASIZE SWAP2 POP PUSH2 0x6A8 JUMP JUMPDEST MLOAD RETURNDATASIZE DUP7 DUP3 RETURNDATACOPY RETURNDATASIZE SWAP1 REVERT JUMPDEST POP CALLVALUE PUSH2 0x20C JUMPI PUSH1 0x20 CALLDATASIZE PUSH1 0x3 NOT ADD SLT PUSH2 0x20C JUMPI PUSH2 0x6F4 PUSH2 0x9DE JUMP JUMPDEST PUSH2 0x6FC PUSH2 0xA0F JUMP JUMPDEST PUSH1 0x1 PUSH1 0x1 PUSH1 0xA0 SHL SUB AND DUP4 MSTORE PUSH1 0x20 MSTORE DUP2 KECCAK256 DUP1 SLOAD PUSH1 0xFF NOT AND PUSH1 0x1 OR SWAP1 SSTORE DUP1 RETURN JUMPDEST POP CALLVALUE PUSH2 0x20C JUMPI PUSH1 0x20 CALLDATASIZE PUSH1 0x3 NOT ADD SLT PUSH2 0x20C JUMPI PUSH1 0x20 SWAP3 PUSH1 0xFF SWAP2 DUP4 SWAP2 SWAP1 PUSH1 0x1 PUSH1 0x1 PUSH1 0xA0 SHL SUB PUSH2 0x745 PUSH2 0x9DE JUMP JUMPDEST AND DUP3 MSTORE DUP6 MSTORE KECCAK256 SLOAD AND SWAP1 MLOAD SWAP1 ISZERO ISZERO DUP2 MSTORE RETURN JUMPDEST POP POP CALLVALUE PUSH2 0x324 JUMPI PUSH1 0x20 CALLDATASIZE PUSH1 0x3 NOT ADD SLT PUSH2 0x324 JUMPI PUSH1 0x20 SWAP2 PUSH1 0xFF SWAP1 DUP3 SWAP1 PUSH1 0x1 PUSH1 0x1 PUSH1 0xA0 SHL SUB PUSH2 0x781 PUSH2 0x9DE JUMP JUMPDEST AND DUP2 MSTORE PUSH1 0x3 DUP6 MSTORE KECCAK256 SLOAD AND SWAP1 MLOAD SWAP1 ISZERO ISZERO DUP2 MSTORE RETURN JUMPDEST POP POP CALLVALUE PUSH2 0x324 JUMPI PUSH1 0x20 CALLDATASIZE PUSH1 0x3 NOT ADD SLT PUSH2 0x324 JUMPI PUSH2 0x7AF PUSH2 0x9DE JUMP JUMPDEST PUSH2 0x7B7 PUSH2 0xA0F JUMP JUMPDEST PUSH1 0x1 PUSH1 0x1 PUSH1 0xA0 SHL SUB AND DUP3 MSTORE PUSH1 0x3 PUSH1 0x20 MSTORE DUP2 KECCAK256 DUP1 SLOAD PUSH1 0xFF NOT AND SWAP1 SSTORE DUP1 RETURN JUMPDEST POP POP CALLVALUE PUSH2 0x324 JUMPI DUP2 PUSH1 0x3 NOT CALLDATASIZE ADD SLT PUSH2 0x324 JUMPI PUSH1 0x20 SWAP1 PUSH1 0x6 SLOAD SWAP1 MLOAD SWAP1 DUP2 MSTORE RETURN JUMPDEST POP SWAP1 CALLVALUE PUSH2 0x20C JUMPI DUP1 PUSH1 0x3 NOT CALLDATASIZE ADD SLT PUSH2 0x20C JUMPI DUP2 CALLDATALOAD PUSH1 0xFF DUP2 AND DUP1 SWAP2 SUB PUSH2 0x6C5 JUMPI PUSH1 0x24 CALLDATALOAD SWAP2 PUSH8 0xFFFFFFFFFFFFFFFF SWAP4 DUP5 DUP5 GT PUSH2 0x8C6 JUMPI CALLDATASIZE PUSH1 0x23 DUP6 ADD SLT ISZERO PUSH2 0x8C6 JUMPI DUP4 ADD CALLDATALOAD SWAP4 DUP5 GT PUSH2 0x8C2 JUMPI CALLDATASIZE PUSH1 0x24 DUP6 DUP6 ADD ADD GT PUSH2 0x8C2 JUMPI DUP4 PUSH1 0x24 PUSH32 0xF16772217385FD120D6D510BAE3E02D90D74E6461117737D7B7AFF611950C385 SWAP5 CALLER DUP9 MSTORE PUSH1 0x3 PUSH1 0x20 MSTORE PUSH2 0x884 PUSH1 0xFF DUP6 DUP11 KECCAK256 SLOAD AND PUSH2 0xE3F JUMP JUMPDEST TIMESTAMP PUSH1 0x6 SSTORE DUP4 MLOAD SWAP5 DUP6 MSTORE PUSH1 0x60 PUSH1 0x20 DUP7 ADD MSTORE DUP3 PUSH1 0x60 DUP7 ADD MSTORE ADD PUSH1 0x80 DUP5 ADD CALLDATACOPY DUP5 PUSH1 0x80 DUP6 DUP5 ADD ADD MSTORE TIMESTAMP SWAP1 DUP3 ADD MSTORE PUSH1 0x80 DUP2 CALLER SWAP5 PUSH1 0x1F DUP1 NOT SWAP2 ADD AND DUP2 ADD SUB ADD SWAP1 LOG2 DUP1 RETURN JUMPDEST DUP5 DUP1 REVERT JUMPDEST DUP6 DUP1 REVERT JUMPDEST POP SWAP1 CALLVALUE PUSH2 0x20C JUMPI DUP1 PUSH1 0x3 NOT CALLDATASIZE ADD SLT PUSH2 0x20C JUMPI PUSH2 0x8E4 PUSH2 0x9DE JUMP JUMPDEST SWAP1 PUSH1 0x24 CALLDATALOAD SWAP2 PUSH2 0x8F1 PUSH2 0xB2E JUMP JUMPDEST PUSH1 0x1 DUP1 PUSH1 0xA0 SHL SUB AND SWAP3 DUP4 DUP6 MSTORE DUP1 PUSH1 0x20 MSTORE PUSH2 0x910 PUSH1 0xFF DUP4 DUP8 KECCAK256 SLOAD AND PUSH2 0xA67 JUMP JUMPDEST PUSH2 0x91B DUP4 ISZERO ISZERO PUSH2 0xAB3 JUMP JUMPDEST DUP2 MLOAD PUSH4 0x23B872DD PUSH1 0xE0 SHL PUSH1 0x20 DUP3 ADD MSTORE CALLER PUSH1 0x24 DUP3 ADD MSTORE ADDRESS PUSH1 0x44 DUP3 ADD MSTORE PUSH1 0x64 DUP1 DUP3 ADD DUP6 SWAP1 MSTORE DUP2 MSTORE SWAP1 PUSH1 0xA0 DUP3 ADD SWAP1 PUSH8 0xFFFFFFFFFFFFFFFF DUP3 GT DUP4 DUP4 LT OR PUSH2 0x9CB JUMPI POP DUP3 MSTORE PUSH2 0x966 SWAP1 DUP5 PUSH2 0xBBC JUMP JUMPDEST CALLER DUP5 MSTORE PUSH1 0x2 PUSH1 0x20 MSTORE DUP1 DUP5 KECCAK256 DUP4 DUP6 MSTORE PUSH1 0x20 MSTORE DUP1 DUP5 KECCAK256 PUSH2 0x985 DUP4 DUP3 SLOAD PUSH2 0xB0B JUMP JUMPDEST SWAP1 SSTORE PUSH2 0x993 DUP3 PUSH1 0x5 SLOAD PUSH2 0xB0B JUMP JUMPDEST PUSH1 0x5 SSTORE TIMESTAMP PUSH1 0x6 SSTORE MLOAD SWAP1 DUP2 MSTORE PUSH32 0x5548C837AB068CF56A2C2479DF0882A4922FD203EDB7517321831D95078C5F62 PUSH1 0x20 CALLER SWAP3 LOG3 PUSH1 0x1 DUP2 SSTORE DUP1 RETURN JUMPDEST PUSH4 0x4E487B71 PUSH1 0xE0 SHL DUP8 MSTORE PUSH1 0x41 SWAP1 MSTORE PUSH1 0x24 DUP7 REVERT JUMPDEST PUSH1 0x4 CALLDATALOAD SWAP1 PUSH1 0x1 PUSH1 0x1 PUSH1 0xA0 SHL SUB DUP3 AND DUP3 SUB PUSH2 0x9F4 JUMPI JUMP JUMPDEST PUSH1 0x0 DUP1 REVERT JUMPDEST PUSH1 0x24 CALLDATALOAD SWAP1 PUSH1 0x1 PUSH1 0x1 PUSH1 0xA0 SHL SUB DUP3 AND DUP3 SUB PUSH2 0x9F4 JUMPI JUMP JUMPDEST PUSH1 0x1 SLOAD PUSH1 0x1 PUSH1 0x1 PUSH1 0xA0 SHL SUB AND CALLER SUB PUSH2 0xA23 JUMPI JUMP JUMPDEST PUSH1 0x64 PUSH1 0x40 MLOAD PUSH3 0x461BCD PUSH1 0xE5 SHL DUP2 MSTORE PUSH1 0x20 PUSH1 0x4 DUP3 ADD MSTORE PUSH1 0x20 PUSH1 0x24 DUP3 ADD MSTORE PUSH32 0x4F776E61626C653A2063616C6C6572206973206E6F7420746865206F776E6572 PUSH1 0x44 DUP3 ADD MSTORE REVERT JUMPDEST ISZERO PUSH2 0xA6E JUMPI JUMP JUMPDEST PUSH1 0x40 MLOAD PUSH3 0x461BCD PUSH1 0xE5 SHL DUP2 MSTORE PUSH1 0x20 PUSH1 0x4 DUP3 ADD MSTORE PUSH1 0x18 PUSH1 0x24 DUP3 ADD MSTORE PUSH32 0x5661756C743A20556E737570706F7274656420746F6B656E0000000000000000 PUSH1 0x44 DUP3 ADD MSTORE PUSH1 0x64 SWAP1 REVERT JUMPDEST ISZERO PUSH2 0xABA JUMPI JUMP JUMPDEST PUSH1 0x40 MLOAD PUSH3 0x461BCD PUSH1 0xE5 SHL DUP2 MSTORE PUSH1 0x20 PUSH1 0x4 DUP3 ADD MSTORE PUSH1 0x24 DUP1 DUP3 ADD MSTORE PUSH32 0x5661756C743A20416D6F756E74206D7573742062652067726561746572207468 PUSH1 0x44 DUP3 ADD MSTORE PUSH4 0x616E203 PUSH1 0xE4 SHL PUSH1 0x64 DUP3 ADD MSTORE PUSH1 0x84 SWAP1 REVERT JUMPDEST SWAP2 SWAP1 DUP3 ADD DUP1 SWAP3 GT PUSH2 0xB18 JUMPI JUMP JUMPDEST PUSH4 0x4E487B71 PUSH1 0xE0 SHL PUSH1 0x0 MSTORE PUSH1 0x11 PUSH1 0x4 MSTORE PUSH1 0x24 PUSH1 0x0 REVERT JUMPDEST PUSH1 0x2 PUSH1 0x0 SLOAD EQ PUSH2 0xB3F JUMPI PUSH1 0x2 PUSH1 0x0 SSTORE JUMP JUMPDEST PUSH1 0x40 MLOAD PUSH3 0x461BCD PUSH1 0xE5 SHL DUP2 MSTORE PUSH1 0x20 PUSH1 0x4 DUP3 ADD MSTORE PUSH1 0x1F PUSH1 0x24 DUP3 ADD MSTORE PUSH32 0x5265656E7472616E637947756172643A207265656E7472616E742063616C6C00 PUSH1 0x44 DUP3 ADD MSTORE PUSH1 0x64 SWAP1 REVERT JUMPDEST SWAP1 PUSH1 0x1F DUP1 NOT SWAP2 ADD AND DUP2 ADD SWAP1 DUP2 LT PUSH8 0xFFFFFFFFFFFFFFFF DUP3 GT OR PUSH2 0xBA6 JUMPI PUSH1 0x40 MSTORE JUMP JUMPDEST PUSH4 0x4E487B71 PUSH1 0xE0 SHL PUSH1 0x0 MSTORE PUSH1 0x41 PUSH1 0x4 MSTORE PUSH1 0x24 PUSH1 0x0 REVERT JUMPDEST PUSH1 0x1 DUP1 PUSH1 0xA0 SHL SUB AND SWAP1 PUSH1 0x40 MLOAD PUSH1 0x40 DUP2 ADD PUSH8 0xFFFFFFFFFFFFFFFF SWAP1 DUP3 DUP2 LT DUP3 DUP3 GT OR PUSH2 0xBA6 JUMPI PUSH1 0x40 MSTORE PUSH1 0x20 SWAP4 DUP5 DUP4 MSTORE PUSH32 0x5361666545524332303A206C6F772D6C6576656C2063616C6C206661696C6564 DUP6 DUP5 ADD MSTORE PUSH1 0x0 DUP1 DUP6 DUP8 DUP3 SWAP8 MLOAD SWAP2 ADD DUP3 DUP6 GAS CALL SWAP1 RETURNDATASIZE ISZERO PUSH2 0xD01 JUMPI RETURNDATASIZE SWAP3 DUP4 GT PUSH2 0xCED JUMPI SWAP1 PUSH2 0xC57 SWAP4 SWAP3 SWAP2 PUSH1 0x40 MLOAD SWAP3 PUSH2 0xC4A DUP9 PUSH1 0x1F NOT PUSH1 0x1F DUP5 ADD AND ADD DUP6 PUSH2 0xB84 JUMP JUMPDEST DUP4 MSTORE RETURNDATASIZE DUP7 DUP9 DUP6 ADD RETURNDATACOPY PUSH2 0xD0C JUMP JUMPDEST DUP1 MLOAD SWAP2 DUP3 ISZERO SWAP2 DUP5 DUP4 ISZERO PUSH2 0xCC9 JUMPI JUMPDEST POP POP POP SWAP1 POP ISZERO PUSH2 0xC72 JUMPI POP JUMP JUMPDEST PUSH1 0x84 SWAP1 PUSH1 0x40 MLOAD SWAP1 PUSH3 0x461BCD PUSH1 0xE5 SHL DUP3 MSTORE PUSH1 0x4 DUP3 ADD MSTORE PUSH1 0x2A PUSH1 0x24 DUP3 ADD MSTORE PUSH32 0x5361666545524332303A204552433230206F7065726174696F6E20646964206E PUSH1 0x44 DUP3 ADD MSTORE PUSH10 0x1BDD081CDD58D8D95959 PUSH1 0xB2 SHL PUSH1 0x64 DUP3 ADD MSTORE REVERT JUMPDEST SWAP2 SWAP4 DUP2 DUP1 SWAP5 POP ADD SUB SLT PUSH2 0x324 JUMPI DUP3 ADD MLOAD SWAP1 DUP2 ISZERO ISZERO DUP3 SUB PUSH2 0x3AB JUMPI POP DUP1 CODESIZE DUP1 DUP5 PUSH2 0xC65 JUMP JUMPDEST PUSH4 0x4E487B71 PUSH1 0xE0 SHL DUP6 MSTORE PUSH1 0x41 PUSH1 0x4 MSTORE PUSH1 0x24 DUP6 REVERT JUMPDEST SWAP1 PUSH2 0xC57 SWAP4 SWAP3 POP PUSH1 0x60 SWAP2 JUMPDEST SWAP2 SWAP3 SWAP1 ISZERO PUSH2 0xD6E JUMPI POP DUP2 MLOAD ISZERO PUSH2 0xD20 JUMPI POP SWAP1 JUMP JUMPDEST EXTCODESIZE ISZERO PUSH2 0xD29 JUMPI SWAP1 JUMP JUMPDEST PUSH1 0x40 MLOAD PUSH3 0x461BCD PUSH1 0xE5 SHL DUP2 MSTORE PUSH1 0x20 PUSH1 0x4 DUP3 ADD MSTORE PUSH1 0x1D PUSH1 0x24 DUP3 ADD MSTORE PUSH32 0x416464726573733A2063616C6C20746F206E6F6E2D636F6E7472616374000000 PUSH1 0x44 DUP3 ADD MSTORE PUSH1 0x64 SWAP1 REVERT JUMPDEST DUP3 MLOAD SWAP1 SWAP2 POP ISZERO PUSH2 0xD81 JUMPI POP DUP1 MLOAD SWAP1 PUSH1 0x20 ADD REVERT JUMPDEST PUSH1 0x40 MLOAD SWAP1 PUSH3 0x461BCD PUSH1 0xE5 SHL DUP3 MSTORE DUP2 PUSH1 0x20 DUP1 PUSH1 0x4 DUP4 ADD MSTORE DUP3 MLOAD SWAP1 DUP2 PUSH1 0x24 DUP5 ADD MSTORE PUSH1 0x0 SWAP4 JUMPDEST DUP3 DUP6 LT PUSH2 0xDC7 JUMPI POP POP PUSH1 0x44 SWAP3 POP PUSH1 0x0 DUP4 DUP3 DUP5 ADD ADD MSTORE PUSH1 0x1F DUP1 NOT SWAP2 ADD AND DUP2 ADD SUB ADD SWAP1 REVERT JUMPDEST DUP5 DUP2 ADD DUP3 ADD MLOAD DUP7 DUP7 ADD PUSH1 0x44 ADD MSTORE SWAP4 DUP2 ADD SWAP4 DUP6 SWAP4 POP PUSH2 0xDA4 JUMP JUMPDEST SWAP2 SWAP1 DUP3 SUB SWAP2 DUP3 GT PUSH2 0xB18 JUMPI JUMP JUMPDEST PUSH1 0x40 MLOAD PUSH4 0xA9059CBB PUSH1 0xE0 SHL PUSH1 0x20 DUP3 ADD MSTORE PUSH1 0x1 PUSH1 0x1 PUSH1 0xA0 SHL SUB SWAP1 SWAP3 AND PUSH1 0x24 DUP4 ADD MSTORE PUSH1 0x44 DUP1 DUP4 ADD SWAP4 SWAP1 SWAP4 MSTORE SWAP2 DUP2 MSTORE PUSH1 0x80 DUP2 ADD SWAP2 PUSH8 0xFFFFFFFFFFFFFFFF DUP4 GT DUP3 DUP5 LT OR PUSH2 0xBA6 JUMPI PUSH2 0xE3D SWAP3 PUSH1 0x40 MSTORE PUSH2 0xBBC JUMP JUMPDEST JUMP JUMPDEST ISZERO PUSH2 0xE46 JUMPI JUMP JUMPDEST PUSH1 0x40 MLOAD PUSH3 0x461BCD PUSH1 0xE5 SHL DUP2 MSTORE PUSH1 0x20 PUSH1 0x4 DUP3 ADD MSTORE PUSH1 0x1C PUSH1 0x24 DUP3 ADD MSTORE PUSH32 0x5661756C743A20556E617574686F72697A6564206578656375746F7200000000 PUSH1 0x44 DUP3 ADD MSTORE PUSH1 0x64 SWAP1 REVERT INVALID LOG2 PUSH5 0x6970667358 0x22 SLT KECCAK256 PUSH21 0x5224C3CC8C754B9F9CA4B556977BF61DB9CB903B43 0x1E PUSH1 0xFB 0xDD PUSH27 0x927ABDCE5664736F6C634300081300330000000000000000000000 "},"methodIdentifiers":{"addAuthorizedExecutor(address)":"b2a7f494","addSupportedToken(address)":"6d69fcaf","authorizedExecutors(address)":"679d86a7","balances(address,address)":"c23f001f","deposit(address,uint256)":"47e7ef24","emergencyWithdraw(address)":"6ff1c9bc","executeAction(uint8,bytes)":"56cf5132","getBalance(address,address)":"d4fac45d","getVaultBalance(address)":"d3d7c002","lastActivity()":"5fd51b37","owner()":"8da5cb5b","removeAuthorizedExecutor(address)":"60c7bae2","removeSupportedToken(address)":"76319190","renounceOwnership()":"715018a6","supportedTokens(address)":"68c4ac26","totalDeposits()":"7d882097","transferOwnership(address)":"f2fde38b","transferTo(address,address,uint256)":"a5f2a152","withdraw(address,uint256)":"f3fef3a3"}}}}}