{"src/contracts/AuditLog.sol":{"AuditLog":{"abi":[{"inputs":[],"stateMutability":"nonpayable","type":"constructor"},{"anonymous":false,"inputs":[{"indexed":true,"internalType":"bytes32","name":"proposalHash","type":"bytes32"},{"indexed":true,"internalType":"address","name":"vault","type":"address"},{"indexed":true,"internalType":"address","name":"executor","type":"address"},{"indexed":false,"internalType":"uint8","name":"actionType","type":"uint8"},{"indexed":false,"internalType":"bytes32","name":"ipfsHash","type":"bytes32"},{"indexed":false,"internalType":"uint256","name":"timestamp","type":"uint256"}],"name":"ExecutionLogged","type":"event"},{"anonymous":false,"inputs":[{"indexed":true,"internalType":"address","name":"previousOwner","type":"address"},{"indexed":true,"internalType":"address","name":"newOwner","type":"address"}],"name":"OwnershipTransferred","type":"event"},{"inputs":[{"internalType":"address","name":"logger","type":"address"}],"name":"addAuthorizedLogger","outputs":[],"stateMutability":"nonpayable","type":"function"},{"inputs":[{"internalType":"uint256","name":"","type":"uint256"}],"name":"allExecutions","outputs":[{"internalType":"bytes32","name":"","type":"bytes32"}],"stateMutability":"view","type":"function"},{"inputs":[{"internalType":"address","name":"","type":"address"}],"name":"authorizedLoggers","outputs":[{"internalType":"bool","name":"","type":"bool"}],"stateMutability":"view","type":"function"},{"inputs":[{"internalType":"bytes32","name":"proposalHash","type":"bytes32"}],"name":"executionExists","outputs":[{"internalType":"bool","name":"exists","type":"bool"}],"stateMutability":"view","type":"function"},{"inputs":[{"internalType":"bytes32","name":"","type":"bytes32"}],"name":"executionLogs","outputs":[{"internalType":"address","name":"vault","type":"address"},{"internalType":"address","name":"executor","type":"address"},{"internalType":"uint8","name":"actionType","type":"uint8"},{"internalType":"bytes","name":"params","type":"bytes"},{"internalType":"bytes32","name":"proposalHash","type":"bytes32"},{"internalType":"bytes32","name":"ipfsHash","type":"bytes32"},{"internalType":"uint256","name":"timestamp","type":"uint256"},{"internalType":"uint256","name":"blockNumber","type":"uint256"},{"internalType":"bool","name":"exists","type":"bool"}],"stateMutability":"view","type":"function"},{"inputs":[{"internalType":"address","name":"","type":"address"},{"internalType":"uint256","name":"","type":"uint256"}],"name":"executorExecutions","outputs":[{"internalType":"bytes32","name":"","type":"bytes32"}],"stateMutability":"view","type":"function"},{"inputs":[{"internalType":"uint256","name":"offset","type":"uint256"},{"internalType":"uint256","name":"limit","type":"uint256"}],"name":"getAllExecutions","outputs":[{"internalType":"bytes32[]","name":"executions","type":"bytes32[]"}],"stateMutability":"view","type":"function"},{"inputs":[{"internalType":"bytes32","name":"proposalHash","type":"bytes32"}],"name":"getExecution","outputs":[{"components":[{"internalType":"address","name":"vault","type":"address"},{"internalType":"address","name":"executor","type":"address"},{"internalType":"uint8","name":"actionType","type":"uint8"},{"internalType":"bytes","name":"params","type":"bytes"},{"internalType":"bytes32","name":"proposalHash","type":"bytes32"},{"internalType":"bytes32","name":"ipfsHash","type":"bytes32"},{"internalType":"uint256","name":"timestamp","type":"uint256"},{"internalType":"uint256","name":"blockNumber","type":"uint256"},{"internalType":"bool","name":"exists","type":"bool"}],"internalType":"struct AuditLog.ExecutionLog","name":"log","type":"tuple"}],"stateMutability":"view","type":"function"},{"inputs":[{"internalType":"address","name":"executor","type":"address"}],"name":"getExecutorExecutionCount","outputs":[{"internalType":"uint256","name":"count","type":"uint256"}],"stateMutability":"view","type":"function"},{"inputs":[{"internalType":"address","name":"executor","type":"address"}],"name":"getExecutorExecutions","outputs":[{"internalType":"bytes32[]","name":"executions","type":"bytes32[]"}],"stateMutability":"view","type":"function"},{"inputs":[{"internalType":"address","name":"vault","type":"address"},{"internalType":"uint256","name":"count","type":"uint256"}],"name":"getRecentVaultExecutions","outputs":[{"internalType":"bytes32[]","name":"executions","type":"bytes32[]"}],"stateMutability":"view","type":"function"},{"inputs":[{"internalType":"address","name":"vault","type":"address"}],"name":"getVaultExecutionCount","outputs":[{"internalType":"uint256","name":"count","type":"uint256"}],"stateMutability":"view","type":"function"},{"inputs":[{"internalType":"address","name":"vault","type":"address"}],"name":"getVaultExecutions","outputs":[{"internalType":"bytes32[]","name":"executions","type":"bytes32[]"}],"stateMutability":"view","type":"function"},{"inputs":[{"internalType":"address","name":"vault","type":"address"},{"internalType":"address","name":"executor","type":"address"},{"internalType":"uint8","name":"actionType","type":"uint8"},{"internalType":"bytes","name":"params","type":"bytes"},{"internalType":"bytes32","name":"proposalHash","type":"bytes32"},{"internalType":"bytes32","name":"ipfsHash","type":"bytes32"},{"internalType":"uint256","name":"timestamp","type":"uint256"}],"name":"logExecution","outputs":[],"stateMutability":"nonpayable","type":"function"},{"inputs":[],"name":"owner","outputs":[{"internalType":"address","name":"","type":"address"}],"stateMutability":"view","type":"function"},{"inputs":[{"internalType":"address","name":"logger","type":"address"}],"name":"removeAuthorizedLogger","outputs":[],"stateMutability":"nonpayable","type":"function"},{"inputs":[],"name":"renounceOwnership","outputs":[],"stateMutability":"nonpayable","type":"function"},{"inputs":[],"name":"totalExecutions","outputs":[{"internalType":"uint256","name":"","type":"uint256"}],"stateMutability":"view","type":"function"},{"inputs":[{"internalType":"address","name":"newOwner","type":"address"}],"name":"transferOwnership","outputs":[],"stateMutability":"nonpayable","type":"function"},{"inputs":[{"internalType":"address","name":"","type":"address"},{"internalType":"uint256","name":"","type":"uint256"}],"name":"vaultExecutions","outputs":[{"internalType":"bytes32","name":"","type":"bytes32"}],"stateMutability":"view","type":"function"}],"evm":{"bytecode":{"linkReferences":{},"object":"6080806040523461005b5760008054336001600160a01b0319821681178355916001600160a01b03909116907f8be0079c531659141344cd1fd0a4f28419497f9722a3daafe3b4186f6b6457e09080a361139c90816100618239f35b600080fdfe608080604052600436101561001357600080fd5b60003560e01c9081630fe11ab314610e93575080632124bb8c14610e5957806327d4994214610dca5780632801e43a14610d8b578063535ff37614610d5757806359556b3714610d0d578063642f7d5e14610cef578063715018a614610c9657806378eaf6d414610c5f5780637a53880814610be7578063802c1ae814610aeb5780638da5cb5b14610ac25780639e3dcb3c14610a15578063af2a28be146109db578063b2703a40146108e7578063bdb7f9221461085f578063c8e781611461081d578063c9b708a314610222578063d8d65cbf146101c95763f2fde38b146100fb57600080fd5b346101c45760203660031901126101c457610114611082565b61011c611257565b6001600160a01b0390811690811561017057600054826bffffffffffffffffffffffff60a01b821617600055167f8be0079c531659141344cd1fd0a4f28419497f9722a3daafe3b4186f6b6457e0600080a3005b60405162461bcd60e51b815260206004820152602660248201527f4f776e61626c653a206e6577206f776e657220697320746865207a65726f206160448201526564647265737360d01b6064820152608490fd5b600080fd5b346101c45760403660031901126101c4576101e2611082565b6001600160a01b03166000908152600360205260409020805460243591908210156101c457602091610213916110e5565b90549060031b1c604051908152f35b346101c45760e03660031901126101c45761023b611082565b6024356001600160a01b03811681036101c45760449081359160ff831683036101c45760649067ffffffffffffffff8235116101c45736602383350112156101c45767ffffffffffffffff823560040135116101c45736602483356004013584350101116101c4576000546001600160a01b031633148015610805575b156107c4576001600160a01b03851615610783576001600160a01b0383161561073657608435156106f55760a435156106b457608435600052600160205260ff6007604060002001541661066757506040519061031482611172565b6001600160a01b038581168352831660208084019190915260ff8516604080850191909152519160009190610357600482350135601f01601f191683018561118f565b8035600481013580865290602401838601373560040135830101526060820152608435608082015260a43560a082015260c43560c08201524360e082015260016101008201526084356000526001602052604060002060018060a01b038251166bffffffffffffffffffffffff60a01b8254161781556001810160018060a01b0360208401511681549060ff60a01b604086015160a01b16916affffffffffffffffffffff60a81b1617179055606082015180519067ffffffffffffffff8211610589576104286002840154611138565b601f8111610620575b50602090601f83116001146105aa579180610100949260079460009261059f575b50508160011b916000199060031b1c19161760028201555b6080840151600382015560a0840151600482015560c0840151600582015560e0840151600682015501910151151560ff8019835416911617905560018060a01b03831660005260026020526104c560843560406000206112af565b60018060a01b03811660005260036020526104e660843560406000206112af565b600454600160401b811015610589576105088160016105249301600455611098565b6084929192359083549060031b91821b91600019901b19161790565b90556105316005546112ec565b6005556040805160ff93909316835260a435602084015260c435908301526001600160a01b03908116921690608435907fb33851239eae822a3317d3cf94bc830eea5d9c3a711fced38f5572689bcde54290606090a4005b634e487b7160e01b600052604160045260246000fd5b015190508980610452565b906002840160005260206000209160005b601f1985168110610608575092610100949260019260079583601f198116106105ef575b505050811b01600282015561046a565b015160001960f88460031b161c191690558980806105df565b919260206001819286850151815501940192016105bb565b600284016000526020600020601f840160051c810160208510610660575b601f830160051c82018110610654575050610431565b6000815560010161063e565b508061063e565b61195960f21b6084927f41756469744c6f673a20457865637574696f6e20616c7265616479206c6f67676040519362461bcd60e51b85526020600486015260226024860152840152820152fd5b7f41756469744c6f673a20496e76616c69642049504653206861736800000000006040519162461bcd60e51b835260206004840152601b6024840152820152fd5b7f41756469744c6f673a20496e76616c69642070726f706f73616c2068617368006040519162461bcd60e51b835260206004840152601f6024840152820152fd5b61737360f01b6084927f41756469744c6f673a20496e76616c6964206578656375746f722061646472656040519362461bcd60e51b85526020600486015260226024860152840152820152fd5b7f41756469744c6f673a20496e76616c6964207661756c742061646472657373006040519162461bcd60e51b835260206004840152601f6024840152820152fd5b7f41756469744c6f673a20556e617574686f72697a6564206c6f676765720000006040519162461bcd60e51b835260206004840152601d6024840152820152fd5b5033600052600660205260ff604060002054166102b8565b346101c45760203660031901126101c457610836611082565b61083e611257565b6001600160a01b03166000908152600660205260409020805460ff19169055005b346101c4576020806003193601126101c4576001600160a01b03610881611082565b1660005260028152604060002090604051908181845491828152019360005281600020916000905b8282106108d0576108cc856108c08189038261118f565b604051918291826110fd565b0390f35b8354865294850194600193840193909101906108a9565b346101c45760403660031901126101c457600435600454808210156109965760243582019081831161098057808211610978575b5061092e61092983836112fb565b611320565b91805b82811061094657604051806108cc86826110fd565b8061095361097392611098565b90549060031b1c61096d61096785846112fb565b87611352565b526112ec565b610931565b90508261091b565b634e487b7160e01b600052601160045260246000fd5b60405162461bcd60e51b815260206004820152601860248201527f41756469744c6f673a20496e76616c6964206f666673657400000000000000006044820152606490fd5b346101c45760203660031901126101c4576001600160a01b036109fc611082565b1660005260026020526020604060002054604051908152f35b346101c45760203660031901126101c4576004356000526001602052604060002060018060a01b039081815416906001810154610a54600283016111b1565b916003810154926004820154610aa160058401549260ff806007600688015497015416966040519a8b9a8b52811660208b015260a01c1660408901526101208060608a0152880190611042565b94608087015260a086015260c085015260e084015215156101008301520390f35b346101c45760003660031901126101c4576000546040516001600160a01b039091168152602090f35b346101c45760403660031901126101c457610b04611082565b6001600160a01b031660009081526002602090815260408083209051815480825291845282842090936024938435938692838301925b828210610bcd57505050610b509250038461118f565b8251808211610bc5575b610b6382611320565b92600019820191821160005b848110610b8457604051806108cc88826110fd565b81610bb05780610ba0610b9a610bab93876112fb565b89611352565b5161096d8289611352565b610b6f565b82634e487b7160e01b60005260116004526000fd5b905080610b5a565b855484526001958601958995509381019390910190610b3a565b346101c4576020806003193601126101c4576001600160a01b03610c09611082565b1660005260038152604060002090604051908181845491828152019360005281600020916000905b828210610c48576108cc856108c08189038261118f565b835486529485019460019384019390910190610c31565b346101c45760203660031901126101c4576004356004548110156101c457610c88602091611098565b90546040519160031b1c8152f35b346101c45760003660031901126101c457610caf611257565b600080546001600160a01b0319811682556001600160a01b03167f8be0079c531659141344cd1fd0a4f28419497f9722a3daafe3b4186f6b6457e08280a3005b346101c45760003660031901126101c4576020600554604051908152f35b346101c45760403660031901126101c457610d26611082565b6001600160a01b03166000908152600260205260409020805460243591908210156101c457602091610c88916110e5565b346101c45760203660031901126101c4576004356000526001602052602060ff600760406000200154166040519015158152f35b346101c45760203660031901126101c4576001600160a01b03610dac611082565b166000526006602052602060ff604060002054166040519015158152f35b346101c45760203660031901126101c457610de3611082565b610deb611257565b6001600160a01b03168015610e15576000908152600660205260409020805460ff19166001179055005b606460405162461bcd60e51b815260206004820152602060248201527f41756469744c6f673a20496e76616c6964206c6f6767657220616464726573736044820152fd5b346101c45760203660031901126101c4576001600160a01b03610e7a611082565b1660005260036020526020604060002054604051908152f35b346101c4576020806003193601126101c457600435610eb183611172565b600083526000828401526000604084015260608084015260006080840152600060a0840152600060c0840152600060e0840152600061010080940152806000526001825260ff6007604060002001541615610ffd576000526001815260406000209160405192610f2084611172565b60018060a01b03908181541685526001810154928585810192848616845260ff604083019660a01c168652610f57600282016111b1565b6060830190815260ff6003830154976080850198895260048401549760a0860198895282600760058701549660c0890197885260e06006820154990198895201541697878d0198151589528b826040519e8f9e8f525116908d0152511660408b0152511660608901525194610fda610120968760808b01526101408a0190611042565b965160a08901525160c08801525160e08701525190850152511515908301520390f35b60405162461bcd60e51b815260048101839052601d60248201527f41756469744c6f673a20457865637574696f6e206e6f7420666f756e640000006044820152606490fd5b919082519283825260005b84811061106e575050826000602080949584010152601f8019910116010190565b60208183018101518483018201520161104d565b600435906001600160a01b03821682036101c457565b6004548110156110cf5760046000527f8a35acfbc15ff81a39ae7d344fd709f28e8600b4aa8c65c6b64bfe7fe36bd19b0190600090565b634e487b7160e01b600052603260045260246000fd5b80548210156110cf5760005260206000200190600090565b6020908160408183019282815285518094520193019160005b828110611124575050505090565b835185529381019392810192600101611116565b90600182811c92168015611168575b602083101461115257565b634e487b7160e01b600052602260045260246000fd5b91607f1691611147565b610120810190811067ffffffffffffffff82111761058957604052565b90601f8019910116810190811067ffffffffffffffff82111761058957604052565b90604051918260008254926111c584611138565b90818452600194858116908160001461123457506001146111f1575b50506111ef9250038361118f565b565b9093915060005260209081600020936000915b81831061121c5750506111ef935082010138806111e1565b85548884018501529485019487945091830191611204565b9150506111ef94506020925060ff191682840152151560051b82010138806111e1565b6000546001600160a01b0316330361126b57565b606460405162461bcd60e51b815260206004820152602060248201527f4f776e61626c653a2063616c6c6572206973206e6f7420746865206f776e65726044820152fd5b805490600160401b82101561058957816112d19160016112e8940181556110e5565b819391549060031b91821b91600019901b19161790565b9055565b60001981146109805760010190565b9190820391821161098057565b67ffffffffffffffff81116105895760051b60200190565b9061132a82611308565b611337604051918261118f565b8281528092611348601f1991611308565b0190602036910137565b80518210156110cf5760209160051b01019056fea26469706673582212205a92f322046eabbbf43b323e8e92416ba59b46c37fd7527c1f958f69d9f50e1a64736f6c63430008130033","opcodes":"PUSH1 0x80 DUP1 PUSH1 0x40 MSTORE CALLVALUE PUSH2 0x5B JUMPI PUSH1 0x0 DUP1 SLOAD CALLER PUSH1 0x1 PUSH1 0x1 PUSH1 0xA0 SHL SUB NOT DUP3 AND DUP2 OR DUP4 SSTORE SWAP2 PUSH1 0x1 PUSH1 0x1 PUSH1 0xA0 SHL SUB SWAP1 SWAP2 AND SWAP1 PUSH32 0x8BE0079C531659141344CD1FD0A4F28419497F9722A3DAAFE3B4186F6B6457E0 SWAP1 DUP1 LOG3 PUSH2 0x139C SWAP1 DUP2 PUSH2 0x61 DUP3 CODECOPY RETURN JUMPDEST PUSH1 0x0 DUP1 REVERT INVALID PUSH1 0x80 DUP1 PUSH1 0x40 MSTORE PUSH1 0x4 CALLDATASIZE LT ISZERO PUSH2 0x13 JUMPI PUSH1 0x0 DUP1 REVERT JUMPDEST PUSH1 0x0 CALLDATALOAD PUSH1 0xE0 SHR SWAP1 DUP2 PUSH4 0xFE11AB3 EQ PUSH2 0xE93 JUMPI POP DUP1 PUSH4 0x2124BB8C EQ PUSH2 0xE59 JUMPI DUP1 PUSH4 0x27D49942 EQ PUSH2 0xDCA JUMPI DUP1 PUSH4 0x2801E43A EQ PUSH2 0xD8B JUMPI DUP1 PUSH4 0x535FF376 EQ PUSH2 0xD57 JUMPI DUP1 PUSH4 0x59556B37 EQ PUSH2 0xD0D JUMPI DUP1 PUSH4 0x642F7D5E EQ PUSH2 0xCEF JUMPI DUP1 PUSH4 0x715018A6 EQ PUSH2 0xC96 JUMPI DUP1 PUSH4 0x78EAF6D4 EQ PUSH2 0xC5F JUMPI DUP1 PUSH4 0x7A538808 EQ PUSH2 0xBE7 JUMPI DUP1 PUSH4 0x802C1AE8 EQ PUSH2 0xAEB JUMPI DUP1 PUSH4 0x8DA5CB5B EQ PUSH2 0xAC2 JUMPI DUP1 PUSH4 0x9E3DCB3C EQ PUSH2 0xA15 JUMPI DUP1 PUSH4 0xAF2A28BE EQ PUSH2 0x9DB JUMPI DUP1 PUSH4 0xB2703A40 EQ PUSH2 0x8E7 JUMPI DUP1 PUSH4 0xBDB7F922 EQ PUSH2 0x85F JUMPI DUP1 PUSH4 0xC8E78161 EQ PUSH2 0x81D JUMPI DUP1 PUSH4 0xC9B708A3 EQ PUSH2 0x222 JUMPI DUP1 PUSH4 0xD8D65CBF EQ PUSH2 0x1C9 JUMPI PUSH4 0xF2FDE38B EQ PUSH2 0xFB JUMPI PUSH1 0x0 DUP1 REVERT JUMPDEST CALLVALUE PUSH2 0x1C4 JUMPI PUSH1 0x20 CALLDATASIZE PUSH1 0x3 NOT ADD SLT PUSH2 0x1C4 JUMPI PUSH2 0x114 PUSH2 0x1082 JUMP JUMPDEST PUSH2 0x11C PUSH2 0x1257 JUMP JUMPDEST PUSH1 0x1 PUSH1 0x1 PUSH1 0xA0 SHL SUB SWAP1 DUP2 AND SWAP1 DUP2 ISZERO PUSH2 0x170 JUMPI PUSH1 0x0 SLOAD DUP3 PUSH12 0xFFFFFFFFFFFFFFFFFFFFFFFF PUSH1 0xA0 SHL DUP3 AND OR PUSH1 0x0 SSTORE AND PUSH32 0x8BE0079C531659141344CD1FD0A4F28419497F9722A3DAAFE3B4186F6B6457E0 PUSH1 0x0 DUP1 LOG3 STOP JUMPDEST PUSH1 0x40 MLOAD PUSH3 0x461BCD PUSH1 0xE5 SHL DUP2 MSTORE PUSH1 0x20 PUSH1 0x4 DUP3 ADD MSTORE PUSH1 0x26 PUSH1 0x24 DUP3 ADD MSTORE PUSH32 0x4F776E61626C653A206E6577206F776E657220697320746865207A65726F2061 PUSH1 0x44 DUP3 ADD MSTORE PUSH6 0x646472657373 PUSH1 0xD0 SHL PUSH1 0x64 DUP3 ADD MSTORE PUSH1 0x84 SWAP1 REVERT JUMPDEST PUSH1 0x0 DUP1 REVERT JUMPDEST CALLVALUE PUSH2 0x1C4 JUMPI PUSH1 0x40 CALLDATASIZE PUSH1 0x3 NOT ADD SLT PUSH2 0x1C4 JUMPI PUSH2 0x1E2 PUSH2 0x1082 JUMP JUMPDEST PUSH1 0x1 PUSH1 0x1 PUSH1 0xA0 SHL SUB AND PUSH1 0x0 SWAP1 DUP2 MSTORE PUSH1 0x3 PUSH1 0x20 MSTORE PUSH1 0x40 SWAP1 KECCAK256 DUP1 SLOAD PUSH1 0x24 CALLDATALOAD SWAP2 SWAP1 DUP3 LT ISZERO PUSH2 0x1C4 JUMPI PUSH1 0x20 SWAP2 PUSH2 0x213 SWAP2 PUSH2 0x10E5 JUMP JUMPDEST SWAP1 SLOAD SWAP1 PUSH1 0x3 SHL SHR PUSH1 0x40 MLOAD SWAP1 DUP2 MSTORE RETURN JUMPDEST CALLVALUE PUSH2 0x1C4 JUMPI PUSH1 0xE0 CALLDATASIZE PUSH1 0x3 NOT ADD SLT PUSH2 0x1C4 JUMPI PUSH2 0x23B PUSH2 0x1082 JUMP JUMPDEST PUSH1 0x24 CALLDATALOAD PUSH1 0x1 PUSH1 0x1 PUSH1 0xA0 SHL SUB DUP2 AND DUP2 SUB PUSH2 0x1C4 JUMPI PUSH1 0x44 SWAP1 DUP2 CALLDATALOAD SWAP2 PUSH1 0xFF DUP4 AND DUP4 SUB PUSH2 0x1C4 JUMPI PUSH1 0x64 SWAP1 PUSH8 0xFFFFFFFFFFFFFFFF DUP3 CALLDATALOAD GT PUSH2 0x1C4 JUMPI CALLDATASIZE PUSH1 0x23 DUP4 CALLDATALOAD ADD SLT ISZERO PUSH2 0x1C4 JUMPI PUSH8 0xFFFFFFFFFFFFFFFF DUP3 CALLDATALOAD PUSH1 0x4 ADD CALLDATALOAD GT PUSH2 0x1C4 JUMPI CALLDATASIZE PUSH1 0x24 DUP4 CALLDATALOAD PUSH1 0x4 ADD CALLDATALOAD DUP5 CALLDATALOAD ADD ADD GT PUSH2 0x1C4 JUMPI PUSH1 0x0 SLOAD PUSH1 0x1 PUSH1 0x1 PUSH1 0xA0 SHL SUB AND CALLER EQ DUP1 ISZERO PUSH2 0x805 JUMPI JUMPDEST ISZERO PUSH2 0x7C4 JUMPI PUSH1 0x1 PUSH1 0x1 PUSH1 0xA0 SHL SUB DUP6 AND ISZERO PUSH2 0x783 JUMPI PUSH1 0x1 PUSH1 0x1 PUSH1 0xA0 SHL SUB DUP4 AND ISZERO PUSH2 0x736 JUMPI PUSH1 0x84 CALLDATALOAD ISZERO PUSH2 0x6F5 JUMPI PUSH1 0xA4 CALLDATALOAD ISZERO PUSH2 0x6B4 JUMPI PUSH1 0x84 CALLDATALOAD PUSH1 0x0 MSTORE PUSH1 0x1 PUSH1 0x20 MSTORE PUSH1 0xFF PUSH1 0x7 PUSH1 0x40 PUSH1 0x0 KECCAK256 ADD SLOAD AND PUSH2 0x667 JUMPI POP PUSH1 0x40 MLOAD SWAP1 PUSH2 0x314 DUP3 PUSH2 0x1172 JUMP JUMPDEST PUSH1 0x1 PUSH1 0x1 PUSH1 0xA0 SHL SUB DUP6 DUP2 AND DUP4 MSTORE DUP4 AND PUSH1 0x20 DUP1 DUP5 ADD SWAP2 SWAP1 SWAP2 MSTORE PUSH1 0xFF DUP6 AND PUSH1 0x40 DUP1 DUP6 ADD SWAP2 SWAP1 SWAP2 MSTORE MLOAD SWAP2 PUSH1 0x0 SWAP2 SWAP1 PUSH2 0x357 PUSH1 0x4 DUP3 CALLDATALOAD ADD CALLDATALOAD PUSH1 0x1F ADD PUSH1 0x1F NOT AND DUP4 ADD DUP6 PUSH2 0x118F JUMP JUMPDEST DUP1 CALLDATALOAD PUSH1 0x4 DUP2 ADD CALLDATALOAD DUP1 DUP7 MSTORE SWAP1 PUSH1 0x24 ADD DUP4 DUP7 ADD CALLDATACOPY CALLDATALOAD PUSH1 0x4 ADD CALLDATALOAD DUP4 ADD ADD MSTORE PUSH1 0x60 DUP3 ADD MSTORE PUSH1 0x84 CALLDATALOAD PUSH1 0x80 DUP3 ADD MSTORE PUSH1 0xA4 CALLDATALOAD PUSH1 0xA0 DUP3 ADD MSTORE PUSH1 0xC4 CALLDATALOAD PUSH1 0xC0 DUP3 ADD MSTORE NUMBER PUSH1 0xE0 DUP3 ADD MSTORE PUSH1 0x1 PUSH2 0x100 DUP3 ADD MSTORE PUSH1 0x84 CALLDATALOAD PUSH1 0x0 MSTORE PUSH1 0x1 PUSH1 0x20 MSTORE PUSH1 0x40 PUSH1 0x0 KECCAK256 PUSH1 0x1 DUP1 PUSH1 0xA0 SHL SUB DUP3 MLOAD AND PUSH12 0xFFFFFFFFFFFFFFFFFFFFFFFF PUSH1 0xA0 SHL DUP3 SLOAD AND OR DUP2 SSTORE PUSH1 0x1 DUP2 ADD PUSH1 0x1 DUP1 PUSH1 0xA0 SHL SUB PUSH1 0x20 DUP5 ADD MLOAD AND DUP2 SLOAD SWAP1 PUSH1 0xFF PUSH1 0xA0 SHL PUSH1 0x40 DUP7 ADD MLOAD PUSH1 0xA0 SHL AND SWAP2 PUSH11 0xFFFFFFFFFFFFFFFFFFFFFF PUSH1 0xA8 SHL AND OR OR SWAP1 SSTORE PUSH1 0x60 DUP3 ADD MLOAD DUP1 MLOAD SWAP1 PUSH8 0xFFFFFFFFFFFFFFFF DUP3 GT PUSH2 0x589 JUMPI PUSH2 0x428 PUSH1 0x2 DUP5 ADD SLOAD PUSH2 0x1138 JUMP JUMPDEST PUSH1 0x1F DUP2 GT PUSH2 0x620 JUMPI JUMPDEST POP PUSH1 0x20 SWAP1 PUSH1 0x1F DUP4 GT PUSH1 0x1 EQ PUSH2 0x5AA JUMPI SWAP2 DUP1 PUSH2 0x100 SWAP5 SWAP3 PUSH1 0x7 SWAP5 PUSH1 0x0 SWAP3 PUSH2 0x59F JUMPI JUMPDEST POP POP DUP2 PUSH1 0x1 SHL SWAP2 PUSH1 0x0 NOT SWAP1 PUSH1 0x3 SHL SHR NOT AND OR PUSH1 0x2 DUP3 ADD SSTORE JUMPDEST PUSH1 0x80 DUP5 ADD MLOAD PUSH1 0x3 DUP3 ADD SSTORE PUSH1 0xA0 DUP5 ADD MLOAD PUSH1 0x4 DUP3 ADD SSTORE PUSH1 0xC0 DUP5 ADD MLOAD PUSH1 0x5 DUP3 ADD SSTORE PUSH1 0xE0 DUP5 ADD MLOAD PUSH1 0x6 DUP3 ADD SSTORE ADD SWAP2 ADD MLOAD ISZERO ISZERO PUSH1 0xFF DUP1 NOT DUP4 SLOAD AND SWAP2 AND OR SWAP1 SSTORE PUSH1 0x1 DUP1 PUSH1 0xA0 SHL SUB DUP4 AND PUSH1 0x0 MSTORE PUSH1 0x2 PUSH1 0x20 MSTORE PUSH2 0x4C5 PUSH1 0x84 CALLDATALOAD PUSH1 0x40 PUSH1 0x0 KECCAK256 PUSH2 0x12AF JUMP JUMPDEST PUSH1 0x1 DUP1 PUSH1 0xA0 SHL SUB DUP2 AND PUSH1 0x0 MSTORE PUSH1 0x3 PUSH1 0x20 MSTORE PUSH2 0x4E6 PUSH1 0x84 CALLDATALOAD PUSH1 0x40 PUSH1 0x0 KECCAK256 PUSH2 0x12AF JUMP JUMPDEST PUSH1 0x4 SLOAD PUSH1 0x1 PUSH1 0x40 SHL DUP2 LT ISZERO PUSH2 0x589 JUMPI PUSH2 0x508 DUP2 PUSH1 0x1 PUSH2 0x524 SWAP4 ADD PUSH1 0x4 SSTORE PUSH2 0x1098 JUMP JUMPDEST PUSH1 0x84 SWAP3 SWAP2 SWAP3 CALLDATALOAD SWAP1 DUP4 SLOAD SWAP1 PUSH1 0x3 SHL SWAP2 DUP3 SHL SWAP2 PUSH1 0x0 NOT SWAP1 SHL NOT AND OR SWAP1 JUMP JUMPDEST SWAP1 SSTORE PUSH2 0x531 PUSH1 0x5 SLOAD PUSH2 0x12EC JUMP JUMPDEST PUSH1 0x5 SSTORE PUSH1 0x40 DUP1 MLOAD PUSH1 0xFF SWAP4 SWAP1 SWAP4 AND DUP4 MSTORE PUSH1 0xA4 CALLDATALOAD PUSH1 0x20 DUP5 ADD MSTORE PUSH1 0xC4 CALLDATALOAD SWAP1 DUP4 ADD MSTORE PUSH1 0x1 PUSH1 0x1 PUSH1 0xA0 SHL SUB SWAP1 DUP2 AND SWAP3 AND SWAP1 PUSH1 0x84 CALLDATALOAD SWAP1 PUSH32 0xB33851239EAE822A3317D3CF94BC830EEA5D9C3A711FCED38F5572689BCDE542 SWAP1 PUSH1 0x60 SWAP1 LOG4 STOP JUMPDEST PUSH4 0x4E487B71 PUSH1 0xE0 SHL PUSH1 0x0 MSTORE PUSH1 0x41 PUSH1 0x4 MSTORE PUSH1 0x24 PUSH1 0x0 REVERT JUMPDEST ADD MLOAD SWAP1 POP DUP10 DUP1 PUSH2 0x452 JUMP JUMPDEST SWAP1 PUSH1 0x2 DUP5 ADD PUSH1 0x0 MSTORE PUSH1 0x20 PUSH1 0x0 KECCAK256 SWAP2 PUSH1 0x0 JUMPDEST PUSH1 0x1F NOT DUP6 AND DUP2 LT PUSH2 0x608 JUMPI POP SWAP3 PUSH2 0x100 SWAP5 SWAP3 PUSH1 0x1 SWAP3 PUSH1 0x7 SWAP6 DUP4 PUSH1 0x1F NOT DUP2 AND LT PUSH2 0x5EF JUMPI JUMPDEST POP POP POP DUP2 SHL ADD PUSH1 0x2 DUP3 ADD SSTORE PUSH2 0x46A JUMP JUMPDEST ADD MLOAD PUSH1 0x0 NOT PUSH1 0xF8 DUP5 PUSH1 0x3 SHL AND SHR NOT AND SWAP1 SSTORE DUP10 DUP1 DUP1 PUSH2 0x5DF JUMP JUMPDEST SWAP2 SWAP3 PUSH1 0x20 PUSH1 0x1 DUP2 SWAP3 DUP7 DUP6 ADD MLOAD DUP2 SSTORE ADD SWAP5 ADD SWAP3 ADD PUSH2 0x5BB JUMP JUMPDEST PUSH1 0x2 DUP5 ADD PUSH1 0x0 MSTORE PUSH1 0x20 PUSH1 0x0 KECCAK256 PUSH1 0x1F DUP5 ADD PUSH1 0x5 SHR DUP2 ADD PUSH1 0x20 DUP6 LT PUSH2 0x660 JUMPI JUMPDEST PUSH1 0x1F DUP4 ADD PUSH1 0x5 SHR DUP3 ADD DUP2 LT PUSH2 0x654 JUMPI POP POP PUSH2 0x431 JUMP JUMPDEST PUSH1 0x0 DUP2 SSTORE PUSH1 0x1 ADD PUSH2 0x63E JUMP JUMPDEST POP DUP1 PUSH2 0x63E JUMP JUMPDEST PUSH2 0x1959 PUSH1 0xF2 SHL PUSH1 0x84 SWAP3 PUSH32 0x41756469744C6F673A20457865637574696F6E20616C7265616479206C6F6767 PUSH1 0x40 MLOAD SWAP4 PUSH3 0x461BCD PUSH1 0xE5 SHL DUP6 MSTORE PUSH1 0x20 PUSH1 0x4 DUP7 ADD MSTORE PUSH1 0x22 PUSH1 0x24 DUP7 ADD MSTORE DUP5 ADD MSTORE DUP3 ADD MSTORE REVERT JUMPDEST PUSH32 0x41756469744C6F673A20496E76616C6964204950465320686173680000000000 PUSH1 0x40 MLOAD SWAP2 PUSH3 0x461BCD PUSH1 0xE5 SHL DUP4 MSTORE PUSH1 0x20 PUSH1 0x4 DUP5 ADD MSTORE PUSH1 0x1B PUSH1 0x24 DUP5 ADD MSTORE DUP3 ADD MSTORE REVERT JUMPDEST PUSH32 0x41756469744C6F673A20496E76616C69642070726F706F73616C206861736800 PUSH1 0x40 MLOAD SWAP2 PUSH3 0x461BCD PUSH1 0xE5 SHL DUP4 MSTORE PUSH1 0x20 PUSH1 0x4 DUP5 ADD MSTORE PUSH1 0x1F PUSH1 0x24 DUP5 ADD MSTORE DUP3 ADD MSTORE REVERT JUMPDEST PUSH2 0x7373 PUSH1 0xF0 SHL PUSH1 0x84 SWAP3 PUSH32 0x41756469744C6F673A20496E76616C6964206578656375746F72206164647265 PUSH1 0x40 MLOAD SWAP4 PUSH3 0x461BCD PUSH1 0xE5 SHL DUP6 MSTORE PUSH1 0x20 PUSH1 0x4 DUP7 ADD MSTORE PUSH1 0x22 PUSH1 0x24 DUP7 ADD MSTORE DUP5 ADD MSTORE DUP3 ADD MSTORE REVERT JUMPDEST PUSH32 0x41756469744C6F673A20496E76616C6964207661756C74206164647265737300 PUSH1 0x40 MLOAD SWAP2 PUSH3 0x461BCD PUSH1 0xE5 SHL DUP4 MSTORE PUSH1 0x20 PUSH1 0x4 DUP5 ADD MSTORE PUSH1 0x1F PUSH1 0x24 DUP5 ADD MSTORE DUP3 ADD MSTORE REVERT JUMPDEST PUSH32 0x41756469744C6F673A20556E617574686F72697A6564206C6F67676572000000 PUSH1 0x40 MLOAD SWAP2 PUSH3 0x461BCD PUSH1 0xE5 SHL DUP4 MSTORE PUSH1 0x20 PUSH1 0x4 DUP5 ADD MSTORE PUSH1 0x1D PUSH1 0x24 DUP5 ADD MSTORE DUP3 ADD MSTORE REVERT JUMPDEST POP CALLER PUSH1 0x0 MSTORE PUSH1 0x6 PUSH1 0x20 MSTORE PUSH1 0xFF PUSH1 0x40 PUSH1 0x0 KECCAK256 SLOAD AND PUSH2 0x2B8 JUMP JUMPDEST CALLVALUE PUSH2 0x1C4 JUMPI PUSH1 0x20 CALLDATASIZE PUSH1 0x3 NOT ADD SLT PUSH2 0x1C4 JUMPI PUSH2 0x836 PUSH2 0x1082 JUMP JUMPDEST PUSH2 0x83E PUSH2 0x1257 JUMP JUMPDEST PUSH1 0x1 PUSH1 0x1 PUSH1 0xA0 SHL SUB AND PUSH1 0x0 SWAP1 DUP2 MSTORE PUSH1 0x6 PUSH1 0x20 MSTORE PUSH1 0x40 SWAP1 KECCAK256 DUP1 SLOAD PUSH1 0xFF NOT AND SWAP1 SSTORE STOP JUMPDEST CALLVALUE PUSH2 0x1C4 JUMPI PUSH1 0x20 DUP1 PUSH1 0x3 NOT CALLDATASIZE ADD SLT PUSH2 0x1C4 JUMPI PUSH1 0x1 PUSH1 0x1 PUSH1 0xA0 SHL SUB PUSH2 0x881 PUSH2 0x1082 JUMP JUMPDEST AND PUSH1 0x0 MSTORE PUSH1 0x2 DUP2 MSTORE PUSH1 0x40 PUSH1 0x0 KECCAK256 SWAP1 PUSH1 0x40 MLOAD SWAP1 DUP2 DUP2 DUP5 SLOAD SWAP2 DUP3 DUP2 MSTORE ADD SWAP4 PUSH1 0x0 MSTORE DUP2 PUSH1 0x0 KECCAK256 SWAP2 PUSH1 0x0 SWAP1 JUMPDEST DUP3 DUP3 LT PUSH2 0x8D0 JUMPI PUSH2 0x8CC DUP6 PUSH2 0x8C0 DUP2 DUP10 SUB DUP3 PUSH2 0x118F JUMP JUMPDEST PUSH1 0x40 MLOAD SWAP2 DUP3 SWAP2 DUP3 PUSH2 0x10FD JUMP JUMPDEST SUB SWAP1 RETURN JUMPDEST DUP4 SLOAD DUP7 MSTORE SWAP5 DUP6 ADD SWAP5 PUSH1 0x1 SWAP4 DUP5 ADD SWAP4 SWAP1 SWAP2 ADD SWAP1 PUSH2 0x8A9 JUMP JUMPDEST CALLVALUE PUSH2 0x1C4 JUMPI PUSH1 0x40 CALLDATASIZE PUSH1 0x3 NOT ADD SLT PUSH2 0x1C4 JUMPI PUSH1 0x4 CALLDATALOAD PUSH1 0x4 SLOAD DUP1 DUP3 LT ISZERO PUSH2 0x996 JUMPI PUSH1 0x24 CALLDATALOAD DUP3 ADD SWAP1 DUP2 DUP4 GT PUSH2 0x980 JUMPI DUP1 DUP3 GT PUSH2 0x978 JUMPI JUMPDEST POP PUSH2 0x92E PUSH2 0x929 DUP4 DUP4 PUSH2 0x12FB JUMP JUMPDEST PUSH2 0x1320 JUMP JUMPDEST SWAP2 DUP1 JUMPDEST DUP3 DUP2 LT PUSH2 0x946 JUMPI PUSH1 0x40 MLOAD DUP1 PUSH2 0x8CC DUP7 DUP3 PUSH2 0x10FD JUMP JUMPDEST DUP1 PUSH2 0x953 PUSH2 0x973 SWAP3 PUSH2 0x1098 JUMP JUMPDEST SWAP1 SLOAD SWAP1 PUSH1 0x3 SHL SHR PUSH2 0x96D PUSH2 0x967 DUP6 DUP5 PUSH2 0x12FB JUMP JUMPDEST DUP8 PUSH2 0x1352 JUMP JUMPDEST MSTORE PUSH2 0x12EC JUMP JUMPDEST PUSH2 0x931 JUMP JUMPDEST SWAP1 POP DUP3 PUSH2 0x91B JUMP JUMPDEST PUSH4 0x4E487B71 PUSH1 0xE0 SHL PUSH1 0x0 MSTORE PUSH1 0x11 PUSH1 0x4 MSTORE PUSH1 0x24 PUSH1 0x0 REVERT JUMPDEST PUSH1 0x40 MLOAD PUSH3 0x461BCD PUSH1 0xE5 SHL DUP2 MSTORE PUSH1 0x20 PUSH1 0x4 DUP3 ADD MSTORE PUSH1 0x18 PUSH1 0x24 DUP3 ADD MSTORE PUSH32 0x41756469744C6F673A20496E76616C6964206F66667365740000000000000000 PUSH1 0x44 DUP3 ADD MSTORE PUSH1 0x64 SWAP1 REVERT JUMPDEST CALLVALUE PUSH2 0x1C4 JUMPI PUSH1 0x20 CALLDATASIZE PUSH1 0x3 NOT ADD SLT PUSH2 0x1C4 JUMPI PUSH1 0x1 PUSH1 0x1 PUSH1 0xA0 SHL SUB PUSH2 0x9FC PUSH2 0x1082 JUMP JUMPDEST AND PUSH1 0x0 MSTORE PUSH1 0x2 PUSH1 0x20 MSTORE PUSH1 0x20 PUSH1 0x40 PUSH1 0x0 KECCAK256 SLOAD PUSH1 0x40 MLOAD SWAP1 DUP2 MSTORE RETURN JUMPDEST CALLVALUE PUSH2 0x1C4 JUMPI PUSH1 0x20 CALLDATASIZE PUSH1 0x3 NOT ADD SLT PUSH2 0x1C4 JUMPI PUSH1 0x4 CALLDATALOAD PUSH1 0x0 MSTORE PUSH1 0x1 PUSH1 0x20 MSTORE PUSH1 0x40 PUSH1 0x0 KECCAK256 PUSH1 0x1 DUP1 PUSH1 0xA0 SHL SUB SWAP1 DUP2 DUP2 SLOAD AND SWAP1 PUSH1 0x1 DUP2 ADD SLOAD PUSH2 0xA54 PUSH1 0x2 DUP4 ADD PUSH2 0x11B1 JUMP JUMPDEST SWAP2 PUSH1 0x3 DUP2 ADD SLOAD SWAP3 PUSH1 0x4 DUP3 ADD SLOAD PUSH2 0xAA1 PUSH1 0x5 DUP5 ADD SLOAD SWAP3 PUSH1 0xFF DUP1 PUSH1 0x7 PUSH1 0x6 DUP9 ADD SLOAD SWAP8 ADD SLOAD AND SWAP7 PUSH1 0x40 MLOAD SWAP11 DUP12 SWAP11 DUP12 MSTORE DUP2 AND PUSH1 0x20 DUP12 ADD MSTORE PUSH1 0xA0 SHR AND PUSH1 0x40 DUP10 ADD MSTORE PUSH2 0x120 DUP1 PUSH1 0x60 DUP11 ADD MSTORE DUP9 ADD SWAP1 PUSH2 0x1042 JUMP JUMPDEST SWAP5 PUSH1 0x80 DUP8 ADD MSTORE PUSH1 0xA0 DUP7 ADD MSTORE PUSH1 0xC0 DUP6 ADD MSTORE PUSH1 0xE0 DUP5 ADD MSTORE ISZERO ISZERO PUSH2 0x100 DUP4 ADD MSTORE SUB SWAP1 RETURN JUMPDEST CALLVALUE PUSH2 0x1C4 JUMPI PUSH1 0x0 CALLDATASIZE PUSH1 0x3 NOT ADD SLT PUSH2 0x1C4 JUMPI PUSH1 0x0 SLOAD PUSH1 0x40 MLOAD PUSH1 0x1 PUSH1 0x1 PUSH1 0xA0 SHL SUB SWAP1 SWAP2 AND DUP2 MSTORE PUSH1 0x20 SWAP1 RETURN JUMPDEST CALLVALUE PUSH2 0x1C4 JUMPI PUSH1 0x40 CALLDATASIZE PUSH1 0x3 NOT ADD SLT PUSH2 0x1C4 JUMPI PUSH2 0xB04 PUSH2 0x1082 JUMP JUMPDEST PUSH1 0x1 PUSH1 0x1 PUSH1 0xA0 SHL SUB AND PUSH1 0x0 SWAP1 DUP2 MSTORE PUSH1 0x2 PUSH1 0x20 SWAP1 DUP2 MSTORE PUSH1 0x40 DUP1 DUP4 KECCAK256 SWAP1 MLOAD DUP2 SLOAD DUP1 DUP3 MSTORE SWAP2 DUP5 MSTORE DUP3 DUP5 KECCAK256 SWAP1 SWAP4 PUSH1 0x24 SWAP4 DUP5 CALLDATALOAD SWAP4 DUP7 SWAP3 DUP4 DUP4 ADD SWAP3 JUMPDEST DUP3 DUP3 LT PUSH2 0xBCD JUMPI POP POP POP PUSH2 0xB50 SWAP3 POP SUB DUP5 PUSH2 0x118F JUMP JUMPDEST DUP3 MLOAD DUP1 DUP3 GT PUSH2 0xBC5 JUMPI JUMPDEST PUSH2 0xB63 DUP3 PUSH2 0x1320 JUMP JUMPDEST SWAP3 PUSH1 0x0 NOT DUP3 ADD SWAP2 DUP3 GT PUSH1 0x0 JUMPDEST DUP5 DUP2 LT PUSH2 0xB84 JUMPI PUSH1 0x40 MLOAD DUP1 PUSH2 0x8CC DUP9 DUP3 PUSH2 0x10FD JUMP JUMPDEST DUP2 PUSH2 0xBB0 JUMPI DUP1 PUSH2 0xBA0 PUSH2 0xB9A PUSH2 0xBAB SWAP4 DUP8 PUSH2 0x12FB JUMP JUMPDEST DUP10 PUSH2 0x1352 JUMP JUMPDEST MLOAD PUSH2 0x96D DUP3 DUP10 PUSH2 0x1352 JUMP JUMPDEST PUSH2 0xB6F JUMP JUMPDEST DUP3 PUSH4 0x4E487B71 PUSH1 0xE0 SHL PUSH1 0x0 MSTORE PUSH1 0x11 PUSH1 0x4 MSTORE PUSH1 0x0 REVERT JUMPDEST SWAP1 POP DUP1 PUSH2 0xB5A JUMP JUMPDEST DUP6 SLOAD DUP5 MSTORE PUSH1 0x1 SWAP6 DUP7 ADD SWAP6 DUP10 SWAP6 POP SWAP4 DUP2 ADD SWAP4 SWAP1 SWAP2 ADD SWAP1 PUSH2 0xB3A JUMP JUMPDEST CALLVALUE PUSH2 0x1C4 JUMPI PUSH1 0x20 DUP1 PUSH1 0x3 NOT CALLDATASIZE ADD SLT PUSH2 0x1C4 JUMPI PUSH1 0x1 PUSH1 0x1 PUSH1 0xA0 SHL SUB PUSH2 0xC09 PUSH2 0x1082 JUMP JUMPDEST AND PUSH1 0x0 MSTORE PUSH1 0x3 DUP2 MSTORE PUSH1 0x40 PUSH1 0x0 KECCAK256 SWAP1 PUSH1 0x40 MLOAD SWAP1 DUP2 DUP2 DUP5 SLOAD SWAP2 DUP3 DUP2 MSTORE ADD SWAP4 PUSH1 0x0 MSTORE DUP2 PUSH1 0x0 KECCAK256 SWAP2 PUSH1 0x0 SWAP1 JUMPDEST DUP3 DUP3 LT PUSH2 0xC48 JUMPI PUSH2 0x8CC DUP6 PUSH2 0x8C0 DUP2 DUP10 SUB DUP3 PUSH2 0x118F JUMP JUMPDEST DUP4 SLOAD DUP7 MSTORE SWAP5 DUP6 ADD SWAP5 PUSH1 0x1 SWAP4 DUP5 ADD SWAP4 SWAP1 SWAP2 ADD SWAP1 PUSH2 0xC31 JUMP JUMPDEST CALLVALUE PUSH2 0x1C4 JUMPI PUSH1 0x20 CALLDATASIZE PUSH1 0x3 NOT ADD SLT PUSH2 0x1C4 JUMPI PUSH1 0x4 CALLDATALOAD PUSH1 0x4 SLOAD DUP2 LT ISZERO PUSH2 0x1C4 JUMPI PUSH2 0xC88 PUSH1 0x20 SWAP2 PUSH2 0x1098 JUMP JUMPDEST SWAP1 SLOAD PUSH1 0x40 MLOAD SWAP2 PUSH1 0x3 SHL SHR DUP2 MSTORE RETURN JUMPDEST CALLVALUE PUSH2 0x1C4 JUMPI PUSH1 0x0 CALLDATASIZE PUSH1 0x3 NOT ADD SLT PUSH2 0x1C4 JUMPI PUSH2 0xCAF PUSH2 0x1257 JUMP JUMPDEST PUSH1 0x0 DUP1 SLOAD PUSH1 0x1 PUSH1 0x1 PUSH1 0xA0 SHL SUB NOT DUP2 AND DUP3 SSTORE PUSH1 0x1 PUSH1 0x1 PUSH1 0xA0 SHL SUB AND PUSH32 0x8BE0079C531659141344CD1FD0A4F28419497F9722A3DAAFE3B4186F6B6457E0 DUP3 DUP1 LOG3 STOP JUMPDEST CALLVALUE PUSH2 0x1C4 JUMPI PUSH1 0x0 CALLDATASIZE PUSH1 0x3 NOT ADD SLT PUSH2 0x1C4 JUMPI PUSH1 0x20 PUSH1 0x5 SLOAD PUSH1 0x40 MLOAD SWAP1 DUP2 MSTORE RETURN JUMPDEST CALLVALUE PUSH2 0x1C4 JUMPI PUSH1 0x40 CALLDATASIZE PUSH1 0x3 NOT ADD SLT PUSH2 0x1C4 JUMPI PUSH2 0xD26 PUSH2 0x1082 JUMP JUMPDEST PUSH1 0x1 PUSH1 0x1 PUSH1 0xA0 SHL SUB AND PUSH1 0x0 SWAP1 DUP2 MSTORE PUSH1 0x2 PUSH1 0x20 MSTORE PUSH1 0x40 SWAP1 KECCAK256 DUP1 SLOAD PUSH1 0x24 CALLDATALOAD SWAP2 SWAP1 DUP3 LT ISZERO PUSH2 0x1C4 JUMPI PUSH1 0x20 SWAP2 PUSH2 0xC88 SWAP2 PUSH2 0x10E5 JUMP JUMPDEST CALLVALUE PUSH2 0x1C4 JUMPI PUSH1 0x20 CALLDATASIZE PUSH1 0x3 NOT ADD SLT PUSH2 0x1C4 JUMPI PUSH1 0x4 CALLDATALOAD PUSH1 0x0 MSTORE PUSH1 0x1 PUSH1 0x20 MSTORE PUSH1 0x20 PUSH1 0xFF PUSH1 0x7 PUSH1 0x40 PUSH1 0x0 KECCAK256 ADD SLOAD AND PUSH1 0x40 MLOAD SWAP1 ISZERO ISZERO DUP2 MSTORE RETURN JUMPDEST CALLVALUE PUSH2 0x1C4 JUMPI PUSH1 0x20 CALLDATASIZE PUSH1 0x3 NOT ADD SLT PUSH2 0x1C4 JUMPI PUSH1 0x1 PUSH1 0x1 PUSH1 0xA0 SHL SUB PUSH2 0xDAC PUSH2 0x1082 JUMP JUMPDEST AND PUSH1 0x0 MSTORE PUSH1 0x6 PUSH1 0x20 MSTORE PUSH1 0x20 PUSH1 0xFF PUSH1 0x40 PUSH1 0x0 KECCAK256 SLOAD AND PUSH1 0x40 MLOAD SWAP1 ISZERO ISZERO DUP2 MSTORE RETURN JUMPDEST CALLVALUE PUSH2 0x1C4 JUMPI PUSH1 0x20 CALLDATASIZE PUSH1 0x3 NOT ADD SLT PUSH2 0x1C4 JUMPI PUSH2 0xDE3 PUSH2 0x1082 JUMP JUMPDEST PUSH2 0xDEB PUSH2 0x1257 JUMP JUMPDEST PUSH1 0x1 PUSH1 0x1 PUSH1 0xA0 SHL SUB AND DUP1 ISZERO PUSH2 0xE15 JUMPI PUSH1 0x0 SWAP1 DUP2 MSTORE PUSH1 0x6 PUSH1 0x20 MSTORE PUSH1 0x40 SWAP1 KECCAK256 DUP1 SLOAD PUSH1 0xFF NOT AND PUSH1 0x1 OR SWAP1 SSTORE STOP JUMPDEST PUSH1 0x64 PUSH1 0x40 MLOAD PUSH3 0x461BCD PUSH1 0xE5 SHL DUP2 MSTORE PUSH1 0x20 PUSH1 0x4 DUP3 ADD MSTORE PUSH1 0x20 PUSH1 0x24 DUP3 ADD MSTORE PUSH32 0x41756469744C6F673A20496E76616C6964206C6F676765722061646472657373 PUSH1 0x44 DUP3 ADD MSTORE REVERT JUMPDEST CALLVALUE PUSH2 0x1C4 JUMPI PUSH1 0x20 CALLDATASIZE PUSH1 0x3 NOT ADD SLT PUSH2 0x1C4 JUMPI PUSH1 0x1 PUSH1 0x1 PUSH1 0xA0 SHL SUB PUSH2 0xE7A PUSH2 0x1082 JUMP JUMPDEST AND PUSH1 0x0 MSTORE PUSH1 0x3 PUSH1 0x20 MSTORE PUSH1 0x20 PUSH1 0x40 PUSH1 0x0 KECCAK256 SLOAD PUSH1 0x40 MLOAD SWAP1 DUP2 MSTORE RETURN JUMPDEST CALLVALUE PUSH2 0x1C4 JUMPI PUSH1 0x20 DUP1 PUSH1 0x3 NOT CALLDATASIZE ADD SLT PUSH2 0x1C4 JUMPI PUSH1 0x4 CALLDATALOAD PUSH2 0xEB1 DUP4 PUSH2 0x1172 JUMP JUMPDEST PUSH1 0x0 DUP4 MSTORE PUSH1 0x0 DUP3 DUP5 ADD MSTORE PUSH1 0x0 PUSH1 0x40 DUP5 ADD MSTORE PUSH1 0x60 DUP1 DUP5 ADD MSTORE PUSH1 0x0 PUSH1 0x80 DUP5 ADD MSTORE PUSH1 0x0 PUSH1 0xA0 DUP5 ADD MSTORE PUSH1 0x0 PUSH1 0xC0 DUP5 ADD MSTORE PUSH1 0x0 PUSH1 0xE0 DUP5 ADD MSTORE PUSH1 0x0 PUSH2 0x100 DUP1 SWAP5 ADD MSTORE DUP1 PUSH1 0x0 MSTORE PUSH1 0x1 DUP3 MSTORE PUSH1 0xFF PUSH1 0x7 PUSH1 0x40 PUSH1 0x0 KECCAK256 ADD SLOAD AND ISZERO PUSH2 0xFFD JUMPI PUSH1 0x0 MSTORE PUSH1 0x1 DUP2 MSTORE PUSH1 0x40 PUSH1 0x0 KECCAK256 SWAP2 PUSH1 0x40 MLOAD SWAP3 PUSH2 0xF20 DUP5 PUSH2 0x1172 JUMP JUMPDEST PUSH1 0x1 DUP1 PUSH1 0xA0 SHL SUB SWAP1 DUP2 DUP2 SLOAD AND DUP6 MSTORE PUSH1 0x1 DUP2 ADD SLOAD SWAP3 DUP6 DUP6 DUP2 ADD SWAP3 DUP5 DUP7 AND DUP5 MSTORE PUSH1 0xFF PUSH1 0x40 DUP4 ADD SWAP7 PUSH1 0xA0 SHR AND DUP7 MSTORE PUSH2 0xF57 PUSH1 0x2 DUP3 ADD PUSH2 0x11B1 JUMP JUMPDEST PUSH1 0x60 DUP4 ADD SWAP1 DUP2 MSTORE PUSH1 0xFF PUSH1 0x3 DUP4 ADD SLOAD SWAP8 PUSH1 0x80 DUP6 ADD SWAP9 DUP10 MSTORE PUSH1 0x4 DUP5 ADD SLOAD SWAP8 PUSH1 0xA0 DUP7 ADD SWAP9 DUP10 MSTORE DUP3 PUSH1 0x7 PUSH1 0x5 DUP8 ADD SLOAD SWAP7 PUSH1 0xC0 DUP10 ADD SWAP8 DUP9 MSTORE PUSH1 0xE0 PUSH1 0x6 DUP3 ADD SLOAD SWAP10 ADD SWAP9 DUP10 MSTORE ADD SLOAD AND SWAP8 DUP8 DUP14 ADD SWAP9 ISZERO ISZERO DUP10 MSTORE DUP12 DUP3 PUSH1 0x40 MLOAD SWAP15 DUP16 SWAP15 DUP16 MSTORE MLOAD AND SWAP1 DUP14 ADD MSTORE MLOAD AND PUSH1 0x40 DUP12 ADD MSTORE MLOAD AND PUSH1 0x60 DUP10 ADD MSTORE MLOAD SWAP5 PUSH2 0xFDA PUSH2 0x120 SWAP7 DUP8 PUSH1 0x80 DUP12 ADD MSTORE PUSH2 0x140 DUP11 ADD SWAP1 PUSH2 0x1042 JUMP JUMPDEST SWAP7 MLOAD PUSH1 0xA0 DUP10 ADD MSTORE MLOAD PUSH1 0xC0 DUP9 ADD MSTORE MLOAD PUSH1 0xE0 DUP8 ADD MSTORE MLOAD SWAP1 DUP6 ADD MSTORE MLOAD ISZERO ISZERO SWAP1 DUP4 ADD MSTORE SUB SWAP1 RETURN JUMPDEST PUSH1 0x40 MLOAD PUSH3 0x461BCD PUSH1 0xE5 SHL DUP2 MSTORE PUSH1 0x4 DUP2 ADD DUP4 SWAP1 MSTORE PUSH1 0x1D PUSH1 0x24 DUP3 ADD MSTORE PUSH32 0x41756469744C6F673A20457865637574696F6E206E6F7420666F756E64000000 PUSH1 0x44 DUP3 ADD MSTORE PUSH1 0x64 SWAP1 REVERT JUMPDEST SWAP2 SWAP1 DUP3 MLOAD SWAP3 DUP4 DUP3 MSTORE PUSH1 0x0 JUMPDEST DUP5 DUP2 LT PUSH2 0x106E JUMPI POP POP DUP3 PUSH1 0x0 PUSH1 0x20 DUP1 SWAP5 SWAP6 DUP5 ADD ADD MSTORE PUSH1 0x1F DUP1 NOT SWAP2 ADD AND ADD ADD SWAP1 JUMP JUMPDEST PUSH1 0x20 DUP2 DUP4 ADD DUP2 ADD MLOAD DUP5 DUP4 ADD DUP3 ADD MSTORE ADD PUSH2 0x104D JUMP JUMPDEST PUSH1 0x4 CALLDATALOAD SWAP1 PUSH1 0x1 PUSH1 0x1 PUSH1 0xA0 SHL SUB DUP3 AND DUP3 SUB PUSH2 0x1C4 JUMPI JUMP JUMPDEST PUSH1 0x4 SLOAD DUP2 LT ISZERO PUSH2 0x10CF JUMPI PUSH1 0x4 PUSH1 0x0 MSTORE PUSH32 0x8A35ACFBC15FF81A39AE7D344FD709F28E8600B4AA8C65C6B64BFE7FE36BD19B ADD SWAP1 PUSH1 0x0 SWAP1 JUMP JUMPDEST PUSH4 0x4E487B71 PUSH1 0xE0 SHL PUSH1 0x0 MSTORE PUSH1 0x32 PUSH1 0x4 MSTORE PUSH1 0x24 PUSH1 0x0 REVERT JUMPDEST DUP1 SLOAD DUP3 LT ISZERO PUSH2 0x10CF JUMPI PUSH1 0x0 MSTORE PUSH1 0x20 PUSH1 0x0 KECCAK256 ADD SWAP1 PUSH1 0x0 SWAP1 JUMP JUMPDEST PUSH1 0x20 SWAP1 DUP2 PUSH1 0x40 DUP2 DUP4 ADD SWAP3 DUP3 DUP2 MSTORE DUP6 MLOAD DUP1 SWAP5 MSTORE ADD SWAP4 ADD SWAP2 PUSH1 0x0 JUMPDEST DUP3 DUP2 LT PUSH2 0x1124 JUMPI POP POP POP POP SWAP1 JUMP JUMPDEST DUP4 MLOAD DUP6 MSTORE SWAP4 DUP2 ADD SWAP4 SWAP3 DUP2 ADD SWAP3 PUSH1 0x1 ADD PUSH2 0x1116 JUMP JUMPDEST SWAP1 PUSH1 0x1 DUP3 DUP2 SHR SWAP3 AND DUP1 ISZERO PUSH2 0x1168 JUMPI JUMPDEST PUSH1 0x20 DUP4 LT EQ PUSH2 0x1152 JUMPI JUMP JUMPDEST PUSH4 0x4E487B71 PUSH1 0xE0 SHL PUSH1 0x0 MSTORE PUSH1 0x22 PUSH1 0x4 MSTORE PUSH1 0x24 PUSH1 0x0 REVERT JUMPDEST SWAP2 PUSH1 0x7F AND SWAP2 PUSH2 0x1147 JUMP JUMPDEST PUSH2 0x120 DUP2 ADD SWAP1 DUP2 LT PUSH8 0xFFFFFFFFFFFFFFFF DUP3 GT OR PUSH2 0x589 JUMPI PUSH1 0x40 MSTORE JUMP JUMPDEST SWAP1 PUSH1 0x1F DUP1 NOT SWAP2 ADD AND DUP2 ADD SWAP1 DUP2 LT PUSH8 0xFFFFFFFFFFFFFFFF DUP3 GT OR PUSH2 0x589 JUMPI PUSH1 0x40 MSTORE JUMP JUMPDEST SWAP1 PUSH1 0x40 MLOAD SWAP2 DUP3 PUSH1 0x0 DUP3 SLOAD SWAP3 PUSH2 0x11C5 DUP5 PUSH2 0x1138 JUMP JUMPDEST SWAP1 DUP2 DUP5 MSTORE PUSH1 0x1 SWAP5 DUP6 DUP2 AND SWAP1 DUP2 PUSH1 0x0 EQ PUSH2 0x1234 JUMPI POP PUSH1 0x1 EQ PUSH2 0x11F1 JUMPI JUMPDEST POP POP PUSH2 0x11EF SWAP3 POP SUB DUP4 PUSH2 0x118F JUMP JUMPDEST JUMP JUMPDEST SWAP1 SWAP4 SWAP2 POP PUSH1 0x0 MSTORE PUSH1 0x20 SWAP1 DUP2 PUSH1 0x0 KECCAK256 SWAP4 PUSH1 0x0 SWAP2 JUMPDEST DUP2 DUP4 LT PUSH2 0x121C JUMPI POP POP PUSH2 0x11EF SWAP4 POP DUP3 ADD ADD CODESIZE DUP1 PUSH2 0x11E1 JUMP JUMPDEST DUP6 SLOAD DUP9 DUP5 ADD DUP6 ADD MSTORE SWAP5 DUP6 ADD SWAP5 DUP8 SWAP5 POP SWAP2 DUP4 ADD SWAP2 PUSH2 0x1204 JUMP JUMPDEST SWAP2 POP POP PUSH2 0x11EF SWAP5 POP PUSH1 0x20 SWAP3 POP PUSH1 0xFF NOT AND DUP3 DUP5 ADD MSTORE ISZERO ISZERO PUSH1 0x5 SHL DUP3 ADD ADD CODESIZE DUP1 PUSH2 0x11E1 JUMP JUMPDEST PUSH1 0x0 SLOAD PUSH1 0x1 PUSH1 0x1 PUSH1 0xA0 SHL SUB AND CALLER SUB PUSH2 0x126B JUMPI JUMP JUMPDEST PUSH1 0x64 PUSH1 0x40 MLOAD PUSH3 0x461BCD PUSH1 0xE5 SHL DUP2 MSTORE PUSH1 0x20 PUSH1 0x4 DUP3 ADD MSTORE PUSH1 0x20 PUSH1 0x24 DUP3 ADD MSTORE PUSH32 0x4F776E61626C653A2063616C6C6572206973206E6F7420746865206F776E6572 PUSH1 0x44 DUP3 ADD MSTORE REVERT JUMPDEST DUP1 SLOAD SWAP1 PUSH1 0x1 PUSH1 0x40 SHL DUP3 LT ISZERO PUSH2 0x589 JUMPI DUP2 PUSH2 0x12D1 SWAP2 PUSH1 0x1 PUSH2 0x12E8 SWAP5 ADD DUP2 SSTORE PUSH2 0x10E5 JUMP JUMPDEST DUP2 SWAP4 SWAP2 SLOAD SWAP1 PUSH1 0x3 SHL SWAP2 DUP3 SHL SWAP2 PUSH1 0x0 NOT SWAP1 SHL NOT AND OR SWAP1 JUMP JUMPDEST SWAP1 SSTORE JUMP JUMPDEST PUSH1 0x0 NOT DUP2 EQ PUSH2 0x980 JUMPI PUSH1 0x1 ADD SWAP1 JUMP JUMPDEST SWAP2 SWAP1 DUP3 SUB SWAP2 DUP3 GT PUSH2 0x980 JUMPI JUMP JUMPDEST PUSH8 0xFFFFFFFFFFFFFFFF DUP2 GT PUSH2 0x589 JUMPI PUSH1 0x5 SHL PUSH1 0x20 ADD SWAP1 JUMP JUMPDEST SWAP1 PUSH2 0x132A DUP3 PUSH2 0x1308 JUMP JUMPDEST PUSH2 0x1337 PUSH1 0x40 MLOAD SWAP2 DUP3 PUSH2 0x118F JUMP JUMPDEST DUP3 DUP2 MSTORE DUP1 SWAP3 PUSH2 0x1348 PUSH1 0x1F NOT SWAP2 PUSH2 0x1308 JUMP JUMPDEST ADD SWAP1 PUSH1 0x20 CALLDATASIZE SWAP2 ADD CALLDATACOPY JUMP JUMPDEST DUP1 MLOAD DUP3 LT ISZERO PUSH2 0x10CF JUMPI PUSH1 0x20 SWAP2 PUSH1 0x5 SHL ADD ADD SWAP1 JUMP INVALID LOG2 PUSH5 0x6970667358 0x22 SLT KECCAK256 GAS SWAP3 RETURN 0x22 DIV PUSH15 0xABBBF43B323E8E92416BA59B46C37F 0xD7 MSTORE PUSH29 0x1F958F69D9F50E1A64736F6C6343000813003300000000000000000000 "},"methodIdentifiers":{"addAuthorizedLogger(address)":"27d49942","allExecutions(uint256)":"78eaf6d4","authorizedLoggers(address)":"2801e43a","executionExists(bytes32)":"535ff376","executionLogs(bytes32)":"9e3dcb3c","executorExecutions(address,uint256)":"d8d65cbf","getAllExecutions(uint256,uint256)":"b2703a40","getExecution(bytes32)":"0fe11ab3","getExecutorExecutionCount(address)":"2124bb8c","getExecutorExecutions(address)":"7a538808","getRecentVaultExecutions(address,uint256)":"802c1ae8","getVaultExecutionCount(address)":"af2a28be","getVaultExecutions(address)":"bdb7f922","logExecution(address,address,uint8,bytes,bytes32,bytes32,uint256)":"c9b708a3","owner()":"8da5cb5b","removeAuthorizedLogger(address)":"c8e78161","renounceOwnership()":"715018a6","totalExecutions()":"642f7d5e","transferOwnership(address)":"f2fde38b","vaultExecutions(address,uint256)":"59556b37"}}}}}