{
  "_format": "hh-sol-artifact-1",
  "contractName": "AMMAdapter",
  "sourceName": "src/contracts/adapters/AMMAdapter.sol",
  "abi": [
    {
      "inputs": [],
      "stateMutability": "nonpayable",
      "type": "constructor"
    },
    {
      "anonymous": false,
      "inputs": [
        {
          "indexed": true,
          "internalType": "address",
          "name": "tokenA",
          "type": "address"
        },
        {
          "indexed": true,
          "internalType": "address",
          "name": "tokenB",
          "type": "address"
        },
        {
          "indexed": false,
          "internalType": "uint256",
          "name": "amountA",
          "type": "uint256"
        },
        {
          "indexed": false,
          "internalType": "uint256",
          "name": "amountB",
          "type": "uint256"
        },
        {
          "indexed": true,
          "internalType": "address",
          "name": "dex",
          "type": "address"
        }
      ],
      "name": "LiquidityAdded",
      "type": "event"
    },
    {
      "anonymous": false,
      "inputs": [
        {
          "indexed": true,
          "internalType": "address",
          "name": "tokenA",
          "type": "address"
        },
        {
          "indexed": true,
          "internalType": "address",
          "name": "tokenB",
          "type": "address"
        },
        {
          "indexed": false,
          "internalType": "uint256",
          "name": "amountA",
          "type": "uint256"
        },
        {
          "indexed": false,
          "internalType": "uint256",
          "name": "amountB",
          "type": "uint256"
        },
        {
          "indexed": true,
          "internalType": "address",
          "name": "dex",
          "type": "address"
        }
      ],
      "name": "LiquidityRemoved",
      "type": "event"
    },
    {
      "anonymous": false,
      "inputs": [
        {
          "indexed": true,
          "internalType": "address",
          "name": "tokenIn",
          "type": "address"
        },
        {
          "indexed": true,
          "internalType": "address",
          "name": "tokenOut",
          "type": "address"
        },
        {
          "indexed": false,
          "internalType": "uint256",
          "name": "amountIn",
          "type": "uint256"
        },
        {
          "indexed": false,
          "internalType": "uint256",
          "name": "amountOut",
          "type": "uint256"
        },
        {
          "indexed": true,
          "internalType": "address",
          "name": "dex",
          "type": "address"
        }
      ],
      "name": "SwapExecuted",
      "type": "event"
    },
    {
      "inputs": [
        {
          "internalType": "address",
          "name": "tokenA",
          "type": "address"
        },
        {
          "internalType": "address",
          "name": "tokenB",
          "type": "address"
        },
        {
          "internalType": "uint256",
          "name": "amountA",
          "type": "uint256"
        },
        {
          "internalType": "uint256",
          "name": "amountB",
          "type": "uint256"
        },
        {
          "internalType": "address",
          "name": "dex",
          "type": "address"
        }
      ],
      "name": "addLiquidity",
      "outputs": [
        {
          "internalType": "uint256",
          "name": "liquidity",
          "type": "uint256"
        }
      ],
      "stateMutability": "nonpayable",
      "type": "function"
    },
    {
      "inputs": [
        {
          "internalType": "address",
          "name": "tokenIn",
          "type": "address"
        },
        {
          "internalType": "address",
          "name": "tokenOut",
          "type": "address"
        },
        {
          "internalType": "uint256",
          "name": "amountIn",
          "type": "uint256"
        }
      ],
      "name": "calculatePriceImpact",
      "outputs": [
        {
          "internalType": "uint256",
          "name": "priceImpact",
          "type": "uint256"
        }
      ],
      "stateMutability": "view",
      "type": "function"
    },
    {
      "inputs": [
        {
          "internalType": "address",
          "name": "tokenIn",
          "type": "address"
        },
        {
          "internalType": "address",
          "name": "tokenOut",
          "type": "address"
        },
        {
          "internalType": "uint256",
          "name": "amountIn",
          "type": "uint256"
        },
        {
          "internalType": "uint256",
          "name": "minAmountOut",
          "type": "uint256"
        },
        {
          "internalType": "address",
          "name": "dex",
          "type": "address"
        }
      ],
      "name": "executeSwap",
      "outputs": [
        {
          "internalType": "uint256",
          "name": "amountOut",
          "type": "uint256"
        }
      ],
      "stateMutability": "nonpayable",
      "type": "function"
    },
    {
      "inputs": [
        {
          "internalType": "address",
          "name": "tokenIn",
          "type": "address"
        },
        {
          "internalType": "address",
          "name": "tokenOut",
          "type": "address"
        },
        {
          "internalType": "uint256",
          "name": "amountIn",
          "type": "uint256"
        }
      ],
      "name": "getAmountOut",
      "outputs": [
        {
          "internalType": "uint256",
          "name": "amountOut",
          "type": "uint256"
        }
      ],
      "stateMutability": "view",
      "type": "function"
    },
    {
      "inputs": [
        {
          "internalType": "address",
          "name": "token",
          "type": "address"
        }
      ],
      "name": "getTokenPrice",
      "outputs": [
        {
          "internalType": "uint256",
          "name": "price",
          "type": "uint256"
        }
      ],
      "stateMutability": "view",
      "type": "function"
    },
    {
      "inputs": [
        {
          "internalType": "address",
          "name": "tokenA",
          "type": "address"
        },
        {
          "internalType": "address",
          "name": "tokenB",
          "type": "address"
        },
        {
          "internalType": "uint256",
          "name": "liquidity",
          "type": "uint256"
        },
        {
          "internalType": "address",
          "name": "dex",
          "type": "address"
        }
      ],
      "name": "removeLiquidity",
      "outputs": [
        {
          "internalType": "uint256",
          "name": "amountA",
          "type": "uint256"
        },
        {
          "internalType": "uint256",
          "name": "amountB",
          "type": "uint256"
        }
      ],
      "stateMutability": "nonpayable",
      "type": "function"
    },
    {
      "inputs": [
        {
          "internalType": "address",
          "name": "token",
          "type": "address"
        },
        {
          "internalType": "uint256",
          "name": "price",
          "type": "uint256"
        }
      ],
      "name": "setTokenPrice",
      "outputs": [],
      "stateMutability": "nonpayable",
      "type": "function"
    },
    {
      "inputs": [
        {
          "internalType": "address",
          "name": "",
          "type": "address"
        }
      ],
      "name": "tokenPrices",
      "outputs": [
        {
          "internalType": "uint256",
          "name": "",
          "type": "uint256"
        }
      ],
      "stateMutability": "view",
      "type": "function"
    }
  ],
  "bytecode": "0x6080806040523461009f5760006020819052670de0b6b3a76400007fad3228b676f7d3cd4284a5443f17f1962b36e491b30a40b2405849e597ba5fb555620f42407fada5013122d395ba3c54772283fb069b10426056ef8ca54750cb9bb552a59e7d5560029052690a968163f0a57b4000007fabbb5caa7dda850e60932de0934eb1f9d0f59695050f761dc64e443e5030a5695561099990816100a58239f35b600080fdfe608060408181526004918236101561001657600080fd5b600092833560e01c918263204120bc1461063e5750816335d3766414610548578163431f63c91461047e5781634aa06652146103ce5781634b2fc7bb146102d1578163721318b01461020f57816373d84e42146100b6575063d02641a01461007d57600080fd5b346100b25760203660031901126100b25760209181906001600160a01b036100a3610671565b16815280845220549051908152f35b5080fd5b9190503461020b576100c7366106c1565b91969095909391926001600160a01b03928316929081906100e9851515610706565b16936100f6851515610752565b61010189151561079e565b169361010e8515156107ea565b828152806020526101448682205485835261013f888420549180151580610202575b61013990610836565b8b610882565b6108ab565b906103e5918281029281840414901517156101ef57506103e8900495861061019d57507fee4825a7988c5519a874be79f2a84d13d02cfe5f74cad97cda2d5b55d2b13bfa8460209781519081528789820152a451908152f35b608490602086519162461bcd60e51b8352820152602660248201527f414d4d416461707465723a20496e73756666696369656e74206f757470757420604482015265185b5bdd5b9d60d21b6064820152fd5b634e487b7160e01b815260118352602490fd5b50821515610130565b8280fd5b8284346102ce5761026d6102223661068c565b6001600160a01b03928316939092909161023d851515610706565b16610249811515610752565b821593610256851561079e565b8552846020528585205490855285852054906108ab565b91670de0b6b3a76400009384830291838304861417156102bb5769d3c21bcecceda100000083018093116102bb57602086866102b3876102ad88886108ab565b90610882565b049051908152f35b634e487b7160e01b815260118752602490fd5b80fd5b8383346100b2576102e1366106c1565b909390926001600160a01b0391821692919081906103008515156108cb565b169361030d851515610917565b821515806103c5575b156103825716936103288515156107ea565b8082019687831161036f5750602097507f6c663e88dcc86a651e6a0758b9902b496aa7e7a85977182c8fac129a8ad15ed3918691825191825289820152a4519060011c8152f35b634e487b7160e01b815260118952602490fd5b865162461bcd60e51b81526020818b0152601b60248201527f414d4d416461707465723a20496e76616c696420616d6f756e747300000000006044820152606490fd5b50851515610316565b905082346102ce5761043f61013f6103e53661068c565b92916001600160a01b03908116916103fe831515610706565b169061040b821515610752565b61041684151561079e565b85528460205286852054908552868520549281151580610475575b61043a90610836565b610882565b916103e592838102938185041490151715610462576020836103e8865191048152f35b634e487b7160e01b825260119052602490fd5b50831515610431565b9190503461020b578060031936011261020b57610499610671565b602435926001600160a01b039091169081156105055783156104c2575083528260205282205580f35b606490602084519162461bcd60e51b8352820152601960248201527f414d4d416461707465723a20496e76616c6964207072696365000000000000006044820152fd5b606490602084519162461bcd60e51b8352820152601960248201527f414d4d416461707465723a20496e76616c696420746f6b656e000000000000006044820152fd5b905082346102ce5760803660031901126102ce57610564610671565b6024356001600160a01b03818116929183900361063a5760443591606435948286168096036102ce5750169361059b8515156108cb565b6105a6831515610917565b81156105f757506105b88315156107ea565b60011c927fd18855db300cdd1baf52060b0a20e0775fdd88922464565b49afc0bf7a28266d858051868152866020820152a48151908082526020820152f35b606490602087519162461bcd60e51b8352820152601d60248201527f414d4d416461707465723a20496e76616c6964206c69717569646974790000006044820152fd5b8380fd5b8490843461020b57602036600319011261020b576020926001600160a01b03610665610671565b16815280845220548152f35b600435906001600160a01b038216820361068757565b600080fd5b6060906003190112610687576001600160a01b0390600435828116810361068757916024359081168103610687579060443590565b60a0906003190112610687576001600160a01b036004358181168103610687579160243582811681036106875791604435916064359160843590811681036106875790565b1561070d57565b60405162461bcd60e51b815260206004820152601c60248201527f414d4d416461707465723a20496e76616c696420746f6b656e20696e000000006044820152606490fd5b1561075957565b60405162461bcd60e51b815260206004820152601d60248201527f414d4d416461707465723a20496e76616c696420746f6b656e206f75740000006044820152606490fd5b156107a557565b60405162461bcd60e51b815260206004820152601d60248201527f414d4d416461707465723a20496e76616c696420616d6f756e7420696e0000006044820152606490fd5b156107f157565b60405162461bcd60e51b815260206004820152601760248201527f414d4d416461707465723a20496e76616c6964204445580000000000000000006044820152606490fd5b1561083d57565b60405162461bcd60e51b815260206004820152601f60248201527f414d4d416461707465723a205072696365206e6f7420617661696c61626c65006044820152606490fd5b8181029291811591840414171561089557565b634e487b7160e01b600052601160045260246000fd5b81156108b5570490565b634e487b7160e01b600052601260045260246000fd5b156108d257565b60405162461bcd60e51b815260206004820152601b60248201527f414d4d416461707465723a20496e76616c696420746f6b656e204100000000006044820152606490fd5b1561091e57565b60405162461bcd60e51b815260206004820152601b60248201527f414d4d416461707465723a20496e76616c696420746f6b656e204200000000006044820152606490fdfea2646970667358221220650997984c00771fedcbe810dbe748851ba30d07029ffc48a4d0ff21d65054b764736f6c63430008130033",
  "linkReferences": {},
  "deployedLinkReferences": {}
}