{
  "_format": "hh-sol-artifact-1",
  "contractName": "Vault",
  "sourceName": "src/contracts/Vault.sol",
  "abi": [
    {
      "inputs": [],
      "stateMutability": "nonpayable",
      "type": "constructor"
    },
    {
      "anonymous": false,
      "inputs": [
        {
          "indexed": true,
          "internalType": "address",
          "name": "executor",
          "type": "address"
        },
        {
          "indexed": false,
          "internalType": "uint8",
          "name": "actionType",
          "type": "uint8"
        },
        {
          "indexed": false,
          "internalType": "bytes",
          "name": "params",
          "type": "bytes"
        },
        {
          "indexed": false,
          "internalType": "uint256",
          "name": "timestamp",
          "type": "uint256"
        }
      ],
      "name": "ActionExecuted",
      "type": "event"
    },
    {
      "anonymous": false,
      "inputs": [
        {
          "indexed": true,
          "internalType": "address",
          "name": "user",
          "type": "address"
        },
        {
          "indexed": true,
          "internalType": "address",
          "name": "token",
          "type": "address"
        },
        {
          "indexed": false,
          "internalType": "uint256",
          "name": "amount",
          "type": "uint256"
        }
      ],
      "name": "Deposit",
      "type": "event"
    },
    {
      "anonymous": false,
      "inputs": [
        {
          "indexed": true,
          "internalType": "address",
          "name": "previousOwner",
          "type": "address"
        },
        {
          "indexed": true,
          "internalType": "address",
          "name": "newOwner",
          "type": "address"
        }
      ],
      "name": "OwnershipTransferred",
      "type": "event"
    },
    {
      "anonymous": false,
      "inputs": [
        {
          "indexed": true,
          "internalType": "address",
          "name": "user",
          "type": "address"
        },
        {
          "indexed": true,
          "internalType": "address",
          "name": "token",
          "type": "address"
        },
        {
          "indexed": false,
          "internalType": "uint256",
          "name": "amount",
          "type": "uint256"
        }
      ],
      "name": "Withdraw",
      "type": "event"
    },
    {
      "inputs": [
        {
          "internalType": "address",
          "name": "executor",
          "type": "address"
        }
      ],
      "name": "addAuthorizedExecutor",
      "outputs": [],
      "stateMutability": "nonpayable",
      "type": "function"
    },
    {
      "inputs": [
        {
          "internalType": "address",
          "name": "token",
          "type": "address"
        }
      ],
      "name": "addSupportedToken",
      "outputs": [],
      "stateMutability": "nonpayable",
      "type": "function"
    },
    {
      "inputs": [
        {
          "internalType": "address",
          "name": "",
          "type": "address"
        }
      ],
      "name": "authorizedExecutors",
      "outputs": [
        {
          "internalType": "bool",
          "name": "",
          "type": "bool"
        }
      ],
      "stateMutability": "view",
      "type": "function"
    },
    {
      "inputs": [
        {
          "internalType": "address",
          "name": "",
          "type": "address"
        },
        {
          "internalType": "address",
          "name": "",
          "type": "address"
        }
      ],
      "name": "balances",
      "outputs": [
        {
          "internalType": "uint256",
          "name": "",
          "type": "uint256"
        }
      ],
      "stateMutability": "view",
      "type": "function"
    },
    {
      "inputs": [
        {
          "internalType": "address",
          "name": "token",
          "type": "address"
        },
        {
          "internalType": "uint256",
          "name": "amount",
          "type": "uint256"
        }
      ],
      "name": "deposit",
      "outputs": [],
      "stateMutability": "nonpayable",
      "type": "function"
    },
    {
      "inputs": [
        {
          "internalType": "address",
          "name": "token",
          "type": "address"
        }
      ],
      "name": "emergencyWithdraw",
      "outputs": [],
      "stateMutability": "nonpayable",
      "type": "function"
    },
    {
      "inputs": [
        {
          "internalType": "uint8",
          "name": "actionType",
          "type": "uint8"
        },
        {
          "internalType": "bytes",
          "name": "params",
          "type": "bytes"
        }
      ],
      "name": "executeAction",
      "outputs": [],
      "stateMutability": "nonpayable",
      "type": "function"
    },
    {
      "inputs": [
        {
          "internalType": "address",
          "name": "user",
          "type": "address"
        },
        {
          "internalType": "address",
          "name": "token",
          "type": "address"
        }
      ],
      "name": "getBalance",
      "outputs": [
        {
          "internalType": "uint256",
          "name": "",
          "type": "uint256"
        }
      ],
      "stateMutability": "view",
      "type": "function"
    },
    {
      "inputs": [
        {
          "internalType": "address",
          "name": "token",
          "type": "address"
        }
      ],
      "name": "getVaultBalance",
      "outputs": [
        {
          "internalType": "uint256",
          "name": "",
          "type": "uint256"
        }
      ],
      "stateMutability": "view",
      "type": "function"
    },
    {
      "inputs": [],
      "name": "lastActivity",
      "outputs": [
        {
          "internalType": "uint256",
          "name": "",
          "type": "uint256"
        }
      ],
      "stateMutability": "view",
      "type": "function"
    },
    {
      "inputs": [],
      "name": "owner",
      "outputs": [
        {
          "internalType": "address",
          "name": "",
          "type": "address"
        }
      ],
      "stateMutability": "view",
      "type": "function"
    },
    {
      "inputs": [
        {
          "internalType": "address",
          "name": "executor",
          "type": "address"
        }
      ],
      "name": "removeAuthorizedExecutor",
      "outputs": [],
      "stateMutability": "nonpayable",
      "type": "function"
    },
    {
      "inputs": [
        {
          "internalType": "address",
          "name": "token",
          "type": "address"
        }
      ],
      "name": "removeSupportedToken",
      "outputs": [],
      "stateMutability": "nonpayable",
      "type": "function"
    },
    {
      "inputs": [],
      "name": "renounceOwnership",
      "outputs": [],
      "stateMutability": "nonpayable",
      "type": "function"
    },
    {
      "inputs": [
        {
          "internalType": "address",
          "name": "",
          "type": "address"
        }
      ],
      "name": "supportedTokens",
      "outputs": [
        {
          "internalType": "bool",
          "name": "",
          "type": "bool"
        }
      ],
      "stateMutability": "view",
      "type": "function"
    },
    {
      "inputs": [],
      "name": "totalDeposits",
      "outputs": [
        {
          "internalType": "uint256",
          "name": "",
          "type": "uint256"
        }
      ],
      "stateMutability": "view",
      "type": "function"
    },
    {
      "inputs": [
        {
          "internalType": "address",
          "name": "newOwner",
          "type": "address"
        }
      ],
      "name": "transferOwnership",
      "outputs": [],
      "stateMutability": "nonpayable",
      "type": "function"
    },
    {
      "inputs": [
        {
          "internalType": "address",
          "name": "token",
          "type": "address"
        },
        {
          "internalType": "address",
          "name": "to",
          "type": "address"
        },
        {
          "internalType": "uint256",
          "name": "amount",
          "type": "uint256"
        }
      ],
      "name": "transferTo",
      "outputs": [],
      "stateMutability": "nonpayable",
      "type": "function"
    },
    {
      "inputs": [
        {
          "internalType": "address",
          "name": "token",
          "type": "address"
        },
        {
          "internalType": "uint256",
          "name": "amount",
          "type": "uint256"
        }
      ],
      "name": "withdraw",
      "outputs": [],
      "stateMutability": "nonpayable",
      "type": "function"
    }
  ],
  "bytecode": "0x6080806040523461006257600160008181558154336001600160a01b0319821681179093556001600160a01b0316907f8be0079c531659141344cd1fd0a4f28419497f9722a3daafe3b4186f6b6457e09080a342600655610ec190816100688239f35b600080fdfe6040608081526004908136101561001557600080fd5b600091823560e01c806347e7ef24146108ca57806356cf5132146107f35780635fd51b37146107d457806360c7bae214610794578063679d86a71461075657806368c4ac261461071a5780636d69fcaf146106da5780636ff1c9bc1461061f578063715018a6146105c257806376319190146105855780637d882097146105665780638da5cb5b1461053d578063a5f2a15214610403578063b2a7f494146103c0578063c23f001f146102db578063d3d7c00214610328578063d4fac45d146102db578063f2fde38b146102105763f3fef3a3146100f257600080fd5b3461020c578160031936011261020c5761010a6109de565b9060243591610117610b2e565b60018060a01b03169283855260209180835261013860ff8388205416610a67565b610143841515610ab3565b3386526002835281862085875283528382872054106101cb5750907f9b1bfa7fa9ee420a16e124f794c35ac9f90472acc99140eb2f6447c714cad8eb9133865260028252808620858752825280862061019d858254610de0565b90556101ab84600554610de0565b600555426006556101bd843387610ded565b519283523392a36001815580f35b82606492519162461bcd60e51b8352820152601b60248201527f5661756c743a20496e73756666696369656e742062616c616e636500000000006044820152fd5b8280fd5b503461020c57602036600319011261020c5761022a6109de565b90610233610a0f565b6001600160a01b03918216928315610289575050600154826bffffffffffffffffffffffff60a01b821617600155167f8be0079c531659141344cd1fd0a4f28419497f9722a3daafe3b4186f6b6457e08380a380f35b906020608492519162461bcd60e51b8352820152602660248201527f4f776e61626c653a206e6577206f776e657220697320746865207a65726f206160448201526564647265737360d01b6064820152fd5b505034610324578060031936011261032457806020926102f96109de565b6103016109f9565b6001600160a01b0391821683526002865283832091168252845220549051908152f35b5080fd5b50919034610324576020928360031936011261020c57836001600160a01b0361034f6109de565b169160248451809481936370a0823160e01b835230908301525afa9283156103b5578093610380575b505051908152f35b909192508382813d83116103ae575b6103998183610b84565b810103126103ab575051903880610378565b80fd5b503d61038f565b8251903d90823e3d90fd5b505034610324576020366003190112610324576103db6109de565b6103e3610a0f565b6001600160a01b0316825260036020528120805460ff1916600117905580f35b508290346103245760603660031901126103245761041f6109de565b6104276109f9565b90604435923385526020916003835261044560ff8888205416610e3f565b6001600160a01b0316808652818352868620549092906104679060ff16610a67565b610472851515610ab3565b86516370a0823160e01b815230838201528181602481875afa9081156105335790869188916104fe575b50106104b25750506104af939450610ded565b80f35b865162461bcd60e51b815291820152602160248201527f5661756c743a20496e73756666696369656e74207661756c742062616c616e636044820152606560f81b606482015260849150fd5b809250838092503d831161052c575b6105178183610b84565b81010312610528578590518961049c565b8680fd5b503d61050d565b88513d89823e3d90fd5b50503461032457816003193601126103245760015490516001600160a01b039091168152602090f35b5050346103245781600319360112610324576020906005549051908152f35b503461020c57602036600319011261020c5761059f6109de565b6105a7610a0f565b6001600160a01b031683526020528120805460ff1916905580f35b83346103ab57806003193601126103ab576105db610a0f565b600180546001600160a01b0319811690915581906001600160a01b03167f8be0079c531659141344cd1fd0a4f28419497f9722a3daafe3b4186f6b6457e08280a380f35b50903461020c57602036600319011261020c5761063a6109de565b91610643610a0f565b81516370a0823160e01b815230918101919091526001600160a01b0392831690602081602481855afa9283156106d15750849261069a575b5081610685578380f35b610693926001541690610ded565b3880808380f35b9091506020813d82116106c9575b816106b560209383610b84565b810103126106c55751903861067b565b8380fd5b3d91506106a8565b513d86823e3d90fd5b503461020c57602036600319011261020c576106f46109de565b6106fc610a0f565b6001600160a01b031683526020528120805460ff1916600117905580f35b503461020c57602036600319011261020c5760209260ff918391906001600160a01b036107456109de565b168252855220541690519015158152f35b5050346103245760203660031901126103245760209160ff9082906001600160a01b036107816109de565b1681526003855220541690519015158152f35b505034610324576020366003190112610324576107af6109de565b6107b7610a0f565b6001600160a01b0316825260036020528120805460ff1916905580f35b5050346103245781600319360112610324576020906006549051908152f35b50903461020c578060031936011261020c57813560ff81168091036106c5576024359167ffffffffffffffff938484116108c657366023850112156108c6578301359384116108c25736602485850101116108c2578360247ff16772217385fd120d6d510bae3e02d90d74e6461117737d7b7aff611950c38594338852600360205261088460ff858a205416610e3f565b42600655835194855260606020860152826060860152016080840137846080858401015242908201526080813394601f80199101168101030190a280f35b8480fd5b8580fd5b50903461020c578060031936011261020c576108e46109de565b90602435916108f1610b2e565b60018060a01b0316928385528060205261091060ff8387205416610a67565b61091b831515610ab3565b81516323b872dd60e01b6020820152336024820152306044820152606480820185905281529060a082019067ffffffffffffffff8211838310176109cb575082526109669084610bbc565b3384526002602052808420838552602052808420610985838254610b0b565b905561099382600554610b0b565b60055542600655519081527f5548c837ab068cf56a2c2479df0882a4922fd203edb7517321831d95078c5f6260203392a36001815580f35b634e487b7160e01b875260419052602486fd5b600435906001600160a01b03821682036109f457565b600080fd5b602435906001600160a01b03821682036109f457565b6001546001600160a01b03163303610a2357565b606460405162461bcd60e51b815260206004820152602060248201527f4f776e61626c653a2063616c6c6572206973206e6f7420746865206f776e65726044820152fd5b15610a6e57565b60405162461bcd60e51b815260206004820152601860248201527f5661756c743a20556e737570706f7274656420746f6b656e00000000000000006044820152606490fd5b15610aba57565b60405162461bcd60e51b8152602060048201526024808201527f5661756c743a20416d6f756e74206d75737420626520677265617465722074686044820152630616e20360e41b6064820152608490fd5b91908201809211610b1857565b634e487b7160e01b600052601160045260246000fd5b600260005414610b3f576002600055565b60405162461bcd60e51b815260206004820152601f60248201527f5265656e7472616e637947756172643a207265656e7472616e742063616c6c006044820152606490fd5b90601f8019910116810190811067ffffffffffffffff821117610ba657604052565b634e487b7160e01b600052604160045260246000fd5b60018060a01b0316906040516040810167ffffffffffffffff9082811082821117610ba6576040526020938483527f5361666545524332303a206c6f772d6c6576656c2063616c6c206661696c6564858401526000808587829751910182855af1903d15610d01573d928311610ced5790610c5793929160405192610c4a88601f19601f8401160185610b84565b83523d868885013e610d0c565b805191821591848315610cc9575b505050905015610c725750565b6084906040519062461bcd60e51b82526004820152602a60248201527f5361666545524332303a204552433230206f7065726174696f6e20646964206e6044820152691bdd081cdd58d8d9595960b21b6064820152fd5b919381809450010312610324578201519081151582036103ab575080388084610c65565b634e487b7160e01b85526041600452602485fd5b90610c579392506060915b91929015610d6e5750815115610d20575090565b3b15610d295790565b60405162461bcd60e51b815260206004820152601d60248201527f416464726573733a2063616c6c20746f206e6f6e2d636f6e74726163740000006044820152606490fd5b825190915015610d815750805190602001fd5b6040519062461bcd60e51b82528160208060048301528251908160248401526000935b828510610dc7575050604492506000838284010152601f80199101168101030190fd5b8481018201518686016044015293810193859350610da4565b91908203918211610b1857565b60405163a9059cbb60e01b60208201526001600160a01b039092166024830152604480830193909352918152608081019167ffffffffffffffff831182841017610ba657610e3d92604052610bbc565b565b15610e4657565b60405162461bcd60e51b815260206004820152601c60248201527f5661756c743a20556e617574686f72697a6564206578656375746f72000000006044820152606490fdfea2646970667358221220745224c3cc8c754b9f9ca4b556977bf61db9cb903b431e60fbdd7a927abdce5664736f6c63430008130033",
  "linkReferences": {},
  "deployedLinkReferences": {}
}