{
  "_format": "hh-sol-artifact-1",
  "contractName": "AuditLog",
  "sourceName": "src/contracts/AuditLog.sol",
  "abi": [
    {
      "inputs": [],
      "stateMutability": "nonpayable",
      "type": "constructor"
    },
    {
      "anonymous": false,
      "inputs": [
        {
          "indexed": true,
          "internalType": "bytes32",
          "name": "proposalHash",
          "type": "bytes32"
        },
        {
          "indexed": true,
          "internalType": "address",
          "name": "vault",
          "type": "address"
        },
        {
          "indexed": true,
          "internalType": "address",
          "name": "executor",
          "type": "address"
        },
        {
          "indexed": false,
          "internalType": "uint8",
          "name": "actionType",
          "type": "uint8"
        },
        {
          "indexed": false,
          "internalType": "bytes32",
          "name": "ipfsHash",
          "type": "bytes32"
        },
        {
          "indexed": false,
          "internalType": "uint256",
          "name": "timestamp",
          "type": "uint256"
        }
      ],
      "name": "ExecutionLogged",
      "type": "event"
    },
    {
      "anonymous": false,
      "inputs": [
        {
          "indexed": true,
          "internalType": "address",
          "name": "previousOwner",
          "type": "address"
        },
        {
          "indexed": true,
          "internalType": "address",
          "name": "newOwner",
          "type": "address"
        }
      ],
      "name": "OwnershipTransferred",
      "type": "event"
    },
    {
      "inputs": [
        {
          "internalType": "address",
          "name": "logger",
          "type": "address"
        }
      ],
      "name": "addAuthorizedLogger",
      "outputs": [],
      "stateMutability": "nonpayable",
      "type": "function"
    },
    {
      "inputs": [
        {
          "internalType": "uint256",
          "name": "",
          "type": "uint256"
        }
      ],
      "name": "allExecutions",
      "outputs": [
        {
          "internalType": "bytes32",
          "name": "",
          "type": "bytes32"
        }
      ],
      "stateMutability": "view",
      "type": "function"
    },
    {
      "inputs": [
        {
          "internalType": "address",
          "name": "",
          "type": "address"
        }
      ],
      "name": "authorizedLoggers",
      "outputs": [
        {
          "internalType": "bool",
          "name": "",
          "type": "bool"
        }
      ],
      "stateMutability": "view",
      "type": "function"
    },
    {
      "inputs": [
        {
          "internalType": "bytes32",
          "name": "proposalHash",
          "type": "bytes32"
        }
      ],
      "name": "executionExists",
      "outputs": [
        {
          "internalType": "bool",
          "name": "exists",
          "type": "bool"
        }
      ],
      "stateMutability": "view",
      "type": "function"
    },
    {
      "inputs": [
        {
          "internalType": "bytes32",
          "name": "",
          "type": "bytes32"
        }
      ],
      "name": "executionLogs",
      "outputs": [
        {
          "internalType": "address",
          "name": "vault",
          "type": "address"
        },
        {
          "internalType": "address",
          "name": "executor",
          "type": "address"
        },
        {
          "internalType": "uint8",
          "name": "actionType",
          "type": "uint8"
        },
        {
          "internalType": "bytes",
          "name": "params",
          "type": "bytes"
        },
        {
          "internalType": "bytes32",
          "name": "proposalHash",
          "type": "bytes32"
        },
        {
          "internalType": "bytes32",
          "name": "ipfsHash",
          "type": "bytes32"
        },
        {
          "internalType": "uint256",
          "name": "timestamp",
          "type": "uint256"
        },
        {
          "internalType": "uint256",
          "name": "blockNumber",
          "type": "uint256"
        },
        {
          "internalType": "bool",
          "name": "exists",
          "type": "bool"
        }
      ],
      "stateMutability": "view",
      "type": "function"
    },
    {
      "inputs": [
        {
          "internalType": "address",
          "name": "",
          "type": "address"
        },
        {
          "internalType": "uint256",
          "name": "",
          "type": "uint256"
        }
      ],
      "name": "executorExecutions",
      "outputs": [
        {
          "internalType": "bytes32",
          "name": "",
          "type": "bytes32"
        }
      ],
      "stateMutability": "view",
      "type": "function"
    },
    {
      "inputs": [
        {
          "internalType": "uint256",
          "name": "offset",
          "type": "uint256"
        },
        {
          "internalType": "uint256",
          "name": "limit",
          "type": "uint256"
        }
      ],
      "name": "getAllExecutions",
      "outputs": [
        {
          "internalType": "bytes32[]",
          "name": "executions",
          "type": "bytes32[]"
        }
      ],
      "stateMutability": "view",
      "type": "function"
    },
    {
      "inputs": [
        {
          "internalType": "bytes32",
          "name": "proposalHash",
          "type": "bytes32"
        }
      ],
      "name": "getExecution",
      "outputs": [
        {
          "components": [
            {
              "internalType": "address",
              "name": "vault",
              "type": "address"
            },
            {
              "internalType": "address",
              "name": "executor",
              "type": "address"
            },
            {
              "internalType": "uint8",
              "name": "actionType",
              "type": "uint8"
            },
            {
              "internalType": "bytes",
              "name": "params",
              "type": "bytes"
            },
            {
              "internalType": "bytes32",
              "name": "proposalHash",
              "type": "bytes32"
            },
            {
              "internalType": "bytes32",
              "name": "ipfsHash",
              "type": "bytes32"
            },
            {
              "internalType": "uint256",
              "name": "timestamp",
              "type": "uint256"
            },
            {
              "internalType": "uint256",
              "name": "blockNumber",
              "type": "uint256"
            },
            {
              "internalType": "bool",
              "name": "exists",
              "type": "bool"
            }
          ],
          "internalType": "struct AuditLog.ExecutionLog",
          "name": "log",
          "type": "tuple"
        }
      ],
      "stateMutability": "view",
      "type": "function"
    },
    {
      "inputs": [
        {
          "internalType": "address",
          "name": "executor",
          "type": "address"
        }
      ],
      "name": "getExecutorExecutionCount",
      "outputs": [
        {
          "internalType": "uint256",
          "name": "count",
          "type": "uint256"
        }
      ],
      "stateMutability": "view",
      "type": "function"
    },
    {
      "inputs": [
        {
          "internalType": "address",
          "name": "executor",
          "type": "address"
        }
      ],
      "name": "getExecutorExecutions",
      "outputs": [
        {
          "internalType": "bytes32[]",
          "name": "executions",
          "type": "bytes32[]"
        }
      ],
      "stateMutability": "view",
      "type": "function"
    },
    {
      "inputs": [
        {
          "internalType": "address",
          "name": "vault",
          "type": "address"
        },
        {
          "internalType": "uint256",
          "name": "count",
          "type": "uint256"
        }
      ],
      "name": "getRecentVaultExecutions",
      "outputs": [
        {
          "internalType": "bytes32[]",
          "name": "executions",
          "type": "bytes32[]"
        }
      ],
      "stateMutability": "view",
      "type": "function"
    },
    {
      "inputs": [
        {
          "internalType": "address",
          "name": "vault",
          "type": "address"
        }
      ],
      "name": "getVaultExecutionCount",
      "outputs": [
        {
          "internalType": "uint256",
          "name": "count",
          "type": "uint256"
        }
      ],
      "stateMutability": "view",
      "type": "function"
    },
    {
      "inputs": [
        {
          "internalType": "address",
          "name": "vault",
          "type": "address"
        }
      ],
      "name": "getVaultExecutions",
      "outputs": [
        {
          "internalType": "bytes32[]",
          "name": "executions",
          "type": "bytes32[]"
        }
      ],
      "stateMutability": "view",
      "type": "function"
    },
    {
      "inputs": [
        {
          "internalType": "address",
          "name": "vault",
          "type": "address"
        },
        {
          "internalType": "address",
          "name": "executor",
          "type": "address"
        },
        {
          "internalType": "uint8",
          "name": "actionType",
          "type": "uint8"
        },
        {
          "internalType": "bytes",
          "name": "params",
          "type": "bytes"
        },
        {
          "internalType": "bytes32",
          "name": "proposalHash",
          "type": "bytes32"
        },
        {
          "internalType": "bytes32",
          "name": "ipfsHash",
          "type": "bytes32"
        },
        {
          "internalType": "uint256",
          "name": "timestamp",
          "type": "uint256"
        }
      ],
      "name": "logExecution",
      "outputs": [],
      "stateMutability": "nonpayable",
      "type": "function"
    },
    {
      "inputs": [],
      "name": "owner",
      "outputs": [
        {
          "internalType": "address",
          "name": "",
          "type": "address"
        }
      ],
      "stateMutability": "view",
      "type": "function"
    },
    {
      "inputs": [
        {
          "internalType": "address",
          "name": "logger",
          "type": "address"
        }
      ],
      "name": "removeAuthorizedLogger",
      "outputs": [],
      "stateMutability": "nonpayable",
      "type": "function"
    },
    {
      "inputs": [],
      "name": "renounceOwnership",
      "outputs": [],
      "stateMutability": "nonpayable",
      "type": "function"
    },
    {
      "inputs": [],
      "name": "totalExecutions",
      "outputs": [
        {
          "internalType": "uint256",
          "name": "",
          "type": "uint256"
        }
      ],
      "stateMutability": "view",
      "type": "function"
    },
    {
      "inputs": [
        {
          "internalType": "address",
          "name": "newOwner",
          "type": "address"
        }
      ],
      "name": "transferOwnership",
      "outputs": [],
      "stateMutability": "nonpayable",
      "type": "function"
    },
    {
      "inputs": [
        {
          "internalType": "address",
          "name": "",
          "type": "address"
        },
        {
          "internalType": "uint256",
          "name": "",
          "type": "uint256"
        }
      ],
      "name": "vaultExecutions",
      "outputs": [
        {
          "internalType": "bytes32",
          "name": "",
          "type": "bytes32"
        }
      ],
      "stateMutability": "view",
      "type": "function"
    }
  ],
  "bytecode": "0x6080806040523461005b5760008054336001600160a01b0319821681178355916001600160a01b03909116907f8be0079c531659141344cd1fd0a4f28419497f9722a3daafe3b4186f6b6457e09080a361139c90816100618239f35b600080fdfe608080604052600436101561001357600080fd5b60003560e01c9081630fe11ab314610e93575080632124bb8c14610e5957806327d4994214610dca5780632801e43a14610d8b578063535ff37614610d5757806359556b3714610d0d578063642f7d5e14610cef578063715018a614610c9657806378eaf6d414610c5f5780637a53880814610be7578063802c1ae814610aeb5780638da5cb5b14610ac25780639e3dcb3c14610a15578063af2a28be146109db578063b2703a40146108e7578063bdb7f9221461085f578063c8e781611461081d578063c9b708a314610222578063d8d65cbf146101c95763f2fde38b146100fb57600080fd5b346101c45760203660031901126101c457610114611082565b61011c611257565b6001600160a01b0390811690811561017057600054826bffffffffffffffffffffffff60a01b821617600055167f8be0079c531659141344cd1fd0a4f28419497f9722a3daafe3b4186f6b6457e0600080a3005b60405162461bcd60e51b815260206004820152602660248201527f4f776e61626c653a206e6577206f776e657220697320746865207a65726f206160448201526564647265737360d01b6064820152608490fd5b600080fd5b346101c45760403660031901126101c4576101e2611082565b6001600160a01b03166000908152600360205260409020805460243591908210156101c457602091610213916110e5565b90549060031b1c604051908152f35b346101c45760e03660031901126101c45761023b611082565b6024356001600160a01b03811681036101c45760449081359160ff831683036101c45760649067ffffffffffffffff8235116101c45736602383350112156101c45767ffffffffffffffff823560040135116101c45736602483356004013584350101116101c4576000546001600160a01b031633148015610805575b156107c4576001600160a01b03851615610783576001600160a01b0383161561073657608435156106f55760a435156106b457608435600052600160205260ff6007604060002001541661066757506040519061031482611172565b6001600160a01b038581168352831660208084019190915260ff8516604080850191909152519160009190610357600482350135601f01601f191683018561118f565b8035600481013580865290602401838601373560040135830101526060820152608435608082015260a43560a082015260c43560c08201524360e082015260016101008201526084356000526001602052604060002060018060a01b038251166bffffffffffffffffffffffff60a01b8254161781556001810160018060a01b0360208401511681549060ff60a01b604086015160a01b16916affffffffffffffffffffff60a81b1617179055606082015180519067ffffffffffffffff8211610589576104286002840154611138565b601f8111610620575b50602090601f83116001146105aa579180610100949260079460009261059f575b50508160011b916000199060031b1c19161760028201555b6080840151600382015560a0840151600482015560c0840151600582015560e0840151600682015501910151151560ff8019835416911617905560018060a01b03831660005260026020526104c560843560406000206112af565b60018060a01b03811660005260036020526104e660843560406000206112af565b600454600160401b811015610589576105088160016105249301600455611098565b6084929192359083549060031b91821b91600019901b19161790565b90556105316005546112ec565b6005556040805160ff93909316835260a435602084015260c435908301526001600160a01b03908116921690608435907fb33851239eae822a3317d3cf94bc830eea5d9c3a711fced38f5572689bcde54290606090a4005b634e487b7160e01b600052604160045260246000fd5b015190508980610452565b906002840160005260206000209160005b601f1985168110610608575092610100949260019260079583601f198116106105ef575b505050811b01600282015561046a565b015160001960f88460031b161c191690558980806105df565b919260206001819286850151815501940192016105bb565b600284016000526020600020601f840160051c810160208510610660575b601f830160051c82018110610654575050610431565b6000815560010161063e565b508061063e565b61195960f21b6084927f41756469744c6f673a20457865637574696f6e20616c7265616479206c6f67676040519362461bcd60e51b85526020600486015260226024860152840152820152fd5b7f41756469744c6f673a20496e76616c69642049504653206861736800000000006040519162461bcd60e51b835260206004840152601b6024840152820152fd5b7f41756469744c6f673a20496e76616c69642070726f706f73616c2068617368006040519162461bcd60e51b835260206004840152601f6024840152820152fd5b61737360f01b6084927f41756469744c6f673a20496e76616c6964206578656375746f722061646472656040519362461bcd60e51b85526020600486015260226024860152840152820152fd5b7f41756469744c6f673a20496e76616c6964207661756c742061646472657373006040519162461bcd60e51b835260206004840152601f6024840152820152fd5b7f41756469744c6f673a20556e617574686f72697a6564206c6f676765720000006040519162461bcd60e51b835260206004840152601d6024840152820152fd5b5033600052600660205260ff604060002054166102b8565b346101c45760203660031901126101c457610836611082565b61083e611257565b6001600160a01b03166000908152600660205260409020805460ff19169055005b346101c4576020806003193601126101c4576001600160a01b03610881611082565b1660005260028152604060002090604051908181845491828152019360005281600020916000905b8282106108d0576108cc856108c08189038261118f565b604051918291826110fd565b0390f35b8354865294850194600193840193909101906108a9565b346101c45760403660031901126101c457600435600454808210156109965760243582019081831161098057808211610978575b5061092e61092983836112fb565b611320565b91805b82811061094657604051806108cc86826110fd565b8061095361097392611098565b90549060031b1c61096d61096785846112fb565b87611352565b526112ec565b610931565b90508261091b565b634e487b7160e01b600052601160045260246000fd5b60405162461bcd60e51b815260206004820152601860248201527f41756469744c6f673a20496e76616c6964206f666673657400000000000000006044820152606490fd5b346101c45760203660031901126101c4576001600160a01b036109fc611082565b1660005260026020526020604060002054604051908152f35b346101c45760203660031901126101c4576004356000526001602052604060002060018060a01b039081815416906001810154610a54600283016111b1565b916003810154926004820154610aa160058401549260ff806007600688015497015416966040519a8b9a8b52811660208b015260a01c1660408901526101208060608a0152880190611042565b94608087015260a086015260c085015260e084015215156101008301520390f35b346101c45760003660031901126101c4576000546040516001600160a01b039091168152602090f35b346101c45760403660031901126101c457610b04611082565b6001600160a01b031660009081526002602090815260408083209051815480825291845282842090936024938435938692838301925b828210610bcd57505050610b509250038461118f565b8251808211610bc5575b610b6382611320565b92600019820191821160005b848110610b8457604051806108cc88826110fd565b81610bb05780610ba0610b9a610bab93876112fb565b89611352565b5161096d8289611352565b610b6f565b82634e487b7160e01b60005260116004526000fd5b905080610b5a565b855484526001958601958995509381019390910190610b3a565b346101c4576020806003193601126101c4576001600160a01b03610c09611082565b1660005260038152604060002090604051908181845491828152019360005281600020916000905b828210610c48576108cc856108c08189038261118f565b835486529485019460019384019390910190610c31565b346101c45760203660031901126101c4576004356004548110156101c457610c88602091611098565b90546040519160031b1c8152f35b346101c45760003660031901126101c457610caf611257565b600080546001600160a01b0319811682556001600160a01b03167f8be0079c531659141344cd1fd0a4f28419497f9722a3daafe3b4186f6b6457e08280a3005b346101c45760003660031901126101c4576020600554604051908152f35b346101c45760403660031901126101c457610d26611082565b6001600160a01b03166000908152600260205260409020805460243591908210156101c457602091610c88916110e5565b346101c45760203660031901126101c4576004356000526001602052602060ff600760406000200154166040519015158152f35b346101c45760203660031901126101c4576001600160a01b03610dac611082565b166000526006602052602060ff604060002054166040519015158152f35b346101c45760203660031901126101c457610de3611082565b610deb611257565b6001600160a01b03168015610e15576000908152600660205260409020805460ff19166001179055005b606460405162461bcd60e51b815260206004820152602060248201527f41756469744c6f673a20496e76616c6964206c6f6767657220616464726573736044820152fd5b346101c45760203660031901126101c4576001600160a01b03610e7a611082565b1660005260036020526020604060002054604051908152f35b346101c4576020806003193601126101c457600435610eb183611172565b600083526000828401526000604084015260608084015260006080840152600060a0840152600060c0840152600060e0840152600061010080940152806000526001825260ff6007604060002001541615610ffd576000526001815260406000209160405192610f2084611172565b60018060a01b03908181541685526001810154928585810192848616845260ff604083019660a01c168652610f57600282016111b1565b6060830190815260ff6003830154976080850198895260048401549760a0860198895282600760058701549660c0890197885260e06006820154990198895201541697878d0198151589528b826040519e8f9e8f525116908d0152511660408b0152511660608901525194610fda610120968760808b01526101408a0190611042565b965160a08901525160c08801525160e08701525190850152511515908301520390f35b60405162461bcd60e51b815260048101839052601d60248201527f41756469744c6f673a20457865637574696f6e206e6f7420666f756e640000006044820152606490fd5b919082519283825260005b84811061106e575050826000602080949584010152601f8019910116010190565b60208183018101518483018201520161104d565b600435906001600160a01b03821682036101c457565b6004548110156110cf5760046000527f8a35acfbc15ff81a39ae7d344fd709f28e8600b4aa8c65c6b64bfe7fe36bd19b0190600090565b634e487b7160e01b600052603260045260246000fd5b80548210156110cf5760005260206000200190600090565b6020908160408183019282815285518094520193019160005b828110611124575050505090565b835185529381019392810192600101611116565b90600182811c92168015611168575b602083101461115257565b634e487b7160e01b600052602260045260246000fd5b91607f1691611147565b610120810190811067ffffffffffffffff82111761058957604052565b90601f8019910116810190811067ffffffffffffffff82111761058957604052565b90604051918260008254926111c584611138565b90818452600194858116908160001461123457506001146111f1575b50506111ef9250038361118f565b565b9093915060005260209081600020936000915b81831061121c5750506111ef935082010138806111e1565b85548884018501529485019487945091830191611204565b9150506111ef94506020925060ff191682840152151560051b82010138806111e1565b6000546001600160a01b0316330361126b57565b606460405162461bcd60e51b815260206004820152602060248201527f4f776e61626c653a2063616c6c6572206973206e6f7420746865206f776e65726044820152fd5b805490600160401b82101561058957816112d19160016112e8940181556110e5565b819391549060031b91821b91600019901b19161790565b9055565b60001981146109805760010190565b9190820391821161098057565b67ffffffffffffffff81116105895760051b60200190565b9061132a82611308565b611337604051918261118f565b8281528092611348601f1991611308565b0190602036910137565b80518210156110cf5760209160051b01019056fea26469706673582212205a92f322046eabbbf43b323e8e92416ba59b46c37fd7527c1f958f69d9f50e1a64736f6c63430008130033",
  "linkReferences": {},
  "deployedLinkReferences": {}
}