{
  "_format": "hh-sol-artifact-1",
  "contractName": "Executor",
  "sourceName": "src/contracts/Executor.sol",
  "abi": [
    {
      "inputs": [
        {
          "internalType": "address",
          "name": "_agentSigner",
          "type": "address"
        },
        {
          "internalType": "address",
          "name": "_policyManager",
          "type": "address"
        },
        {
          "internalType": "address",
          "name": "_auditLog",
          "type": "address"
        }
      ],
      "stateMutability": "nonpayable",
      "type": "constructor"
    },
    {
      "anonymous": false,
      "inputs": [
        {
          "indexed": true,
          "internalType": "address",
          "name": "oldSigner",
          "type": "address"
        },
        {
          "indexed": true,
          "internalType": "address",
          "name": "newSigner",
          "type": "address"
        }
      ],
      "name": "AgentSignerUpdated",
      "type": "event"
    },
    {
      "anonymous": false,
      "inputs": [
        {
          "indexed": true,
          "internalType": "address",
          "name": "oldAuditLog",
          "type": "address"
        },
        {
          "indexed": true,
          "internalType": "address",
          "name": "newAuditLog",
          "type": "address"
        }
      ],
      "name": "AuditLogUpdated",
      "type": "event"
    },
    {
      "anonymous": false,
      "inputs": [
        {
          "indexed": true,
          "internalType": "address",
          "name": "previousOwner",
          "type": "address"
        },
        {
          "indexed": true,
          "internalType": "address",
          "name": "newOwner",
          "type": "address"
        }
      ],
      "name": "OwnershipTransferred",
      "type": "event"
    },
    {
      "anonymous": false,
      "inputs": [
        {
          "indexed": true,
          "internalType": "address",
          "name": "oldManager",
          "type": "address"
        },
        {
          "indexed": true,
          "internalType": "address",
          "name": "newManager",
          "type": "address"
        }
      ],
      "name": "PolicyManagerUpdated",
      "type": "event"
    },
    {
      "anonymous": false,
      "inputs": [
        {
          "indexed": true,
          "internalType": "address",
          "name": "vault",
          "type": "address"
        },
        {
          "indexed": true,
          "internalType": "address",
          "name": "executor",
          "type": "address"
        },
        {
          "indexed": false,
          "internalType": "uint8",
          "name": "actionType",
          "type": "uint8"
        },
        {
          "indexed": false,
          "internalType": "bytes",
          "name": "params",
          "type": "bytes"
        },
        {
          "indexed": true,
          "internalType": "bytes32",
          "name": "proposalHash",
          "type": "bytes32"
        },
        {
          "indexed": false,
          "internalType": "bytes32",
          "name": "ipfsHash",
          "type": "bytes32"
        },
        {
          "indexed": false,
          "internalType": "uint256",
          "name": "timestamp",
          "type": "uint256"
        }
      ],
      "name": "ProposalExecuted",
      "type": "event"
    },
    {
      "inputs": [],
      "name": "MAX_DEADLINE_DURATION",
      "outputs": [
        {
          "internalType": "uint256",
          "name": "",
          "type": "uint256"
        }
      ],
      "stateMutability": "view",
      "type": "function"
    },
    {
      "inputs": [],
      "name": "MIN_DEADLINE_DURATION",
      "outputs": [
        {
          "internalType": "uint256",
          "name": "",
          "type": "uint256"
        }
      ],
      "stateMutability": "view",
      "type": "function"
    },
    {
      "inputs": [],
      "name": "agentSigner",
      "outputs": [
        {
          "internalType": "address",
          "name": "",
          "type": "address"
        }
      ],
      "stateMutability": "view",
      "type": "function"
    },
    {
      "inputs": [],
      "name": "auditLog",
      "outputs": [
        {
          "internalType": "contract AuditLog",
          "name": "",
          "type": "address"
        }
      ],
      "stateMutability": "view",
      "type": "function"
    },
    {
      "inputs": [],
      "name": "emergencyPause",
      "outputs": [],
      "stateMutability": "nonpayable",
      "type": "function"
    },
    {
      "inputs": [
        {
          "internalType": "address",
          "name": "newAgentSigner",
          "type": "address"
        }
      ],
      "name": "emergencyUnpause",
      "outputs": [],
      "stateMutability": "nonpayable",
      "type": "function"
    },
    {
      "inputs": [
        {
          "internalType": "address",
          "name": "vault",
          "type": "address"
        },
        {
          "internalType": "uint8",
          "name": "actionType",
          "type": "uint8"
        },
        {
          "internalType": "bytes",
          "name": "params",
          "type": "bytes"
        },
        {
          "internalType": "bytes32",
          "name": "ipfsHash",
          "type": "bytes32"
        },
        {
          "internalType": "uint256",
          "name": "nonce",
          "type": "uint256"
        },
        {
          "internalType": "uint256",
          "name": "deadline",
          "type": "uint256"
        },
        {
          "internalType": "bytes",
          "name": "signature",
          "type": "bytes"
        }
      ],
      "name": "executeProposal",
      "outputs": [],
      "stateMutability": "nonpayable",
      "type": "function"
    },
    {
      "inputs": [
        {
          "internalType": "address",
          "name": "vault",
          "type": "address"
        }
      ],
      "name": "getNextNonce",
      "outputs": [
        {
          "internalType": "uint256",
          "name": "",
          "type": "uint256"
        }
      ],
      "stateMutability": "view",
      "type": "function"
    },
    {
      "inputs": [
        {
          "internalType": "address",
          "name": "vault",
          "type": "address"
        },
        {
          "internalType": "uint8",
          "name": "actionType",
          "type": "uint8"
        },
        {
          "internalType": "bytes",
          "name": "params",
          "type": "bytes"
        },
        {
          "internalType": "bytes32",
          "name": "ipfsHash",
          "type": "bytes32"
        },
        {
          "internalType": "uint256",
          "name": "nonce",
          "type": "uint256"
        },
        {
          "internalType": "uint256",
          "name": "deadline",
          "type": "uint256"
        }
      ],
      "name": "getProposalHash",
      "outputs": [
        {
          "internalType": "bytes32",
          "name": "",
          "type": "bytes32"
        }
      ],
      "stateMutability": "pure",
      "type": "function"
    },
    {
      "inputs": [
        {
          "internalType": "uint256",
          "name": "nonce",
          "type": "uint256"
        }
      ],
      "name": "isNonceUsed",
      "outputs": [
        {
          "internalType": "bool",
          "name": "",
          "type": "bool"
        }
      ],
      "stateMutability": "view",
      "type": "function"
    },
    {
      "inputs": [],
      "name": "owner",
      "outputs": [
        {
          "internalType": "address",
          "name": "",
          "type": "address"
        }
      ],
      "stateMutability": "view",
      "type": "function"
    },
    {
      "inputs": [],
      "name": "policyManager",
      "outputs": [
        {
          "internalType": "contract PolicyManager",
          "name": "",
          "type": "address"
        }
      ],
      "stateMutability": "view",
      "type": "function"
    },
    {
      "inputs": [],
      "name": "renounceOwnership",
      "outputs": [],
      "stateMutability": "nonpayable",
      "type": "function"
    },
    {
      "inputs": [
        {
          "internalType": "address",
          "name": "newOwner",
          "type": "address"
        }
      ],
      "name": "transferOwnership",
      "outputs": [],
      "stateMutability": "nonpayable",
      "type": "function"
    },
    {
      "inputs": [
        {
          "internalType": "address",
          "name": "newAgentSigner",
          "type": "address"
        }
      ],
      "name": "updateAgentSigner",
      "outputs": [],
      "stateMutability": "nonpayable",
      "type": "function"
    },
    {
      "inputs": [
        {
          "internalType": "address",
          "name": "newAuditLog",
          "type": "address"
        }
      ],
      "name": "updateAuditLog",
      "outputs": [],
      "stateMutability": "nonpayable",
      "type": "function"
    },
    {
      "inputs": [
        {
          "internalType": "address",
          "name": "newPolicyManager",
          "type": "address"
        }
      ],
      "name": "updatePolicyManager",
      "outputs": [],
      "stateMutability": "nonpayable",
      "type": "function"
    },
    {
      "inputs": [
        {
          "internalType": "bytes32",
          "name": "",
          "type": "bytes32"
        }
      ],
      "name": "usedNonces",
      "outputs": [
        {
          "internalType": "bool",
          "name": "",
          "type": "bool"
        }
      ],
      "stateMutability": "view",
      "type": "function"
    },
    {
      "inputs": [
        {
          "internalType": "address",
          "name": "",
          "type": "address"
        }
      ],
      "name": "vaultNonces",
      "outputs": [
        {
          "internalType": "uint256",
          "name": "",
          "type": "uint256"
        }
      ],
      "stateMutability": "view",
      "type": "function"
    }
  ],
  "bytecode": "0x6080346101c257601f6111c838819003918201601f191683019291906001600160401b038411838510176101c75781606092849260409687528339810103126101c25761004b816101dd565b906100638361005c602084016101dd565b92016101dd565b6001600081815581546001600160a01b03198082163390811790945587519690956001600160a01b0394909385938416907f8be0079c531659141344cd1fd0a4f28419497f9722a3daafe3b4186f6b6457e09080a3169485156101805750811691821561013d57169283156100f957826002541617600255816003541617600355600454161760045551610fd690816101f28239f35b845162461bcd60e51b815260206004820152601b60248201527f4578656375746f723a20496e76616c6964206175646974206c6f6700000000006044820152606490fd5b6064865162461bcd60e51b815260206004820152602060248201527f4578656375746f723a20496e76616c696420706f6c696379206d616e616765726044820152fd5b62461bcd60e51b815260206004820152601e60248201527f4578656375746f723a20496e76616c6964206167656e74207369676e657200006044820152606490fd5b600080fd5b634e487b7160e01b600052604160045260246000fd5b51906001600160a01b03821682036101c25756fe6080604052600436101561001257600080fd5b6000803560e01c806315c4b06a14610d4d5780634c653a3e14610c9757806351858e2714610c6b5780635a2d6ebd14610c425780635d00bb1214610bda578063643776de14610b645780636fd368b014610b18578063715018a614610abb5780637322ae3714610a9e5780638da5cb5b14610a7557806390193b7c14610a1b578063ab3dbf3b146109f2578063b9745a5514610319578063c57b9c0c146102fc578063c629fe9014610247578063e361cd591461020e578063f2fde38b14610148578063f4e2592b1461011f5763feb61724146100ee57600080fd5b3461011c57602036600319011261011c5760ff60406020926004358152600584522054166040519015158152f35b80fd5b503461011c578060031936011261011c576002546040516001600160a01b039091168152602090f35b503461011c57602036600319011261011c57610162610db2565b61016a610e0b565b6001600160a01b039081169081156101ba57600154826001600160601b0360a01b821617600155167f8be0079c531659141344cd1fd0a4f28419497f9722a3daafe3b4186f6b6457e0600080a380f35b60405162461bcd60e51b815260206004820152602660248201527f4f776e61626c653a206e6577206f776e657220697320746865207a65726f206160448201526564647265737360d01b6064820152608490fd5b503461011c57602036600319011261011c576020906040906001600160a01b03610236610db2565b168152600683522054604051908152f35b503461011c57602036600319011261011c57610261610db2565b610269610e0b565b6001600160a01b039081169081156102b857600354826001600160601b0360a01b821617600355167f8db82d3061f259c28cee172c5d954c7be330a7ee1d949d6fc6e29b7e4c12447e8380a380f35b606460405162461bcd60e51b815260206004820152602060248201527f4578656375746f723a20496e76616c696420706f6c696379206d616e616765726044820152fd5b503461011c578060031936011261011c57602060405161012c8152f35b503461011c5760e036600319011261011c57610333610db2565b61033b610dcd565b9060443567ffffffffffffffff81116109ee5761035c903690600401610ddd565b929060a4359360c43567ffffffffffffffff81116109ea57610382903690600401610ddd565b9560028854146109a557600288554281111561096057610e10420180421161090757811161091b5761012c42018042116109075781106108c2576103d160419160843560643586888a8c610ef3565b960361087257604051907f19457468657265756d205369676e6564204d6573736167653a0a333200000000602083015286603c830152603c825281606081011067ffffffffffffffff60608401111761085e57608060608360208b9483829701604052825182840120848401526040810135861a85840152803560a0840152013560c08201528380520160015afa156108535785516002546001600160a01b03908116911681900361080e5760405160609190911b6bffffffffffffffffffffffff1916602082019081526084356034830152906104bc81605481015b03601f198101835282610e8d565b519020808752600560205260ff6040882054166107c957865260056020526040808720805460ff191660011790556003549051631d26814f60e31b81526001600160a01b03868116600483015260ff861660248301526060604483015290918891839116818061053060648201888a610ed2565b03915afa9081156106c75787908892610710575b50156106d257506001600160a01b0384163b156106a157604051632b67a89960e11b815260ff8416600482015260406024820152868180610589604482018688610ed2565b0381836001600160a01b038a165af180156106c7576106b4575b5060045486906001600160a01b0316803b156106b05760405163c9b708a360e01b81526001600160a01b038716600482015233602482015260ff8616604482015260e06064820152908290829081838161060160e482018a8c610ed2565b8d608483015260643560a48301524260c483015203925af180156106a55761068d575b50507f820156463455db49cc1814f6fe87f5bd75eeb8734fce3524fac878ba9d63734f916106669160ff60405195168552608060208601526080850191610ed2565b606435604084015242606084015233936001600160a01b0316929081900390a46001815580f35b61069690610e63565b6106a1578538610624565b8580fd5b6040513d84823e3d90fd5b5080fd5b6106c090969196610e63565b94386105a3565b6040513d89823e3d90fd5b6044604051809262461bcd60e51b8252602060048301526107028151809281602486015260208686019101610eaf565b601f01601f19168101030190fd5b9150503d8088833e6107228183610e8d565b8101906040818303126107c55780519081151582036107c15760208101519067ffffffffffffffff82116107a9570182601f820112156107c157805167ffffffffffffffff81116107ad5760405193610785601f8301601f191660200186610e8d565b818552602082840101116107a9576107a39160208086019101610eaf565b38610544565b8980fd5b634e487b7160e01b8a52604160045260248afd5b8880fd5b8780fd5b60405162461bcd60e51b815260206004820152601c60248201527f4578656375746f723a204e6f6e636520616c72656164792075736564000000006044820152606490fd5b60405162461bcd60e51b815260206004820152601b60248201527f4578656375746f723a20496e76616c6964207369676e617475726500000000006044820152606490fd5b6040513d87823e3d90fd5b634e487b7160e01b88526041600452602488fd5b60405162461bcd60e51b815260206004820152602260248201527f4578656375746f723a20496e76616c6964207369676e6174757265206c656e676044820152610e8d60f31b6064820152608490fd5b60405162461bcd60e51b815260206004820152601b60248201527f4578656375746f723a20446561646c696e6520746f6f20736f6f6e00000000006044820152606490fd5b634e487b7160e01b89526011600452602489fd5b60405162461bcd60e51b815260206004820152601a60248201527f4578656375746f723a20446561646c696e6520746f6f206661720000000000006044820152606490fd5b60405162461bcd60e51b815260206004820152601d60248201527f4578656375746f723a20446561646c696e6520686173207061737365640000006044820152606490fd5b60405162461bcd60e51b815260206004820152601f60248201527f5265656e7472616e637947756172643a207265656e7472616e742063616c6c006044820152606490fd5b8680fd5b8380fd5b503461011c578060031936011261011c576003546040516001600160a01b039091168152602090f35b503461011c57602036600319011261011c576001600160a01b03610a3d610db2565b168152600660205260408120549060018201809211610a6157602082604051908152f35b634e487b7160e01b81526011600452602490fd5b503461011c578060031936011261011c576001546040516001600160a01b039091168152602090f35b503461011c578060031936011261011c576020604051610e108152f35b503461011c578060031936011261011c57610ad4610e0b565b600180546001600160a01b0319811690915581906001600160a01b03167f8be0079c531659141344cd1fd0a4f28419497f9722a3daafe3b4186f6b6457e08280a380f35b503461011c57602036600319011261011c57610b32610db2565b610b3a610e0b565b6001600160a01b0316610b4e811515610f54565b6001600160601b0360a01b600254161760025580f35b503461011c57602036600319011261011c57610b7e610db2565b610b86610e0b565b6001600160a01b0390811690610b9d821515610f54565b600254826001600160601b0360a01b821617600255167f15c539f3c72a7122b9be60c5a7d9929c4882896eca5158969a1877c067192d9b8380a380f35b503461011c57602036600319011261011c576002546040805160609290921b6bffffffffffffffffffffffff1916602083810191825260043560348501529360ff93909190610c2c81605481016104ae565b5190208152600584522054166040519015158152f35b503461011c578060031936011261011c576004546040516001600160a01b039091168152602090f35b503461011c578060031936011261011c57610c84610e0b565b600280546001600160a01b031916905580f35b503461011c57602036600319011261011c57610cb1610db2565b610cb9610e0b565b6001600160a01b03908116908115610d0857600454826001600160601b0360a01b821617600455167f8d0432039a27e218a8f052890d0f2de847055c352338467e7215ec7e0ec61b588380a380f35b60405162461bcd60e51b815260206004820152601b60248201527f4578656375746f723a20496e76616c6964206175646974206c6f6700000000006044820152606490fd5b503461011c5760c036600319011261011c57610d67610db2565b90610d70610dcd565b906044359067ffffffffffffffff821161011c576020610daa8585610d983660048801610ddd565b60a43593608435936064359391610ef3565b604051908152f35b600435906001600160a01b0382168203610dc857565b600080fd5b6024359060ff82168203610dc857565b9181601f84011215610dc85782359167ffffffffffffffff8311610dc85760208381860195010111610dc857565b6001546001600160a01b03163303610e1f57565b606460405162461bcd60e51b815260206004820152602060248201527f4f776e61626c653a2063616c6c6572206973206e6f7420746865206f776e65726044820152fd5b67ffffffffffffffff8111610e7757604052565b634e487b7160e01b600052604160045260246000fd5b90601f8019910116810190811067ffffffffffffffff821117610e7757604052565b60005b838110610ec25750506000910152565b8181015183820152602001610eb2565b908060209392818452848401376000828201840152601f01601f1916010190565b95610f4e9491929560959480604051988996602088019b6001600160601b03199060601b168c5260ff60f81b9060f81b1660348801526035870137840192603584015260558301526075820152036075810184520182610e8d565b51902090565b15610f5b57565b60405162461bcd60e51b815260206004820152601e60248201527f4578656375746f723a20496e76616c6964206167656e74207369676e657200006044820152606490fdfea264697066735822122014734a1221b39b25fd434c63da5bd9ae807ac1e421bfb978c5984e9fea9a850664736f6c63430008130033",
  "linkReferences": {},
  "deployedLinkReferences": {}
}