{
  "_format": "hh-sol-artifact-1",
  "contractName": "PolicyManager",
  "sourceName": "src/contracts/PolicyManager.sol",
  "abi": [
    {
      "anonymous": false,
      "inputs": [
        {
          "indexed": true,
          "internalType": "address",
          "name": "previousOwner",
          "type": "address"
        },
        {
          "indexed": true,
          "internalType": "address",
          "name": "newOwner",
          "type": "address"
        }
      ],
      "name": "OwnershipTransferred",
      "type": "event"
    },
    {
      "anonymous": false,
      "inputs": [
        {
          "indexed": true,
          "internalType": "address",
          "name": "vault",
          "type": "address"
        },
        {
          "indexed": true,
          "internalType": "uint256",
          "name": "policyId",
          "type": "uint256"
        }
      ],
      "name": "PolicyCreated",
      "type": "event"
    },
    {
      "anonymous": false,
      "inputs": [
        {
          "indexed": true,
          "internalType": "address",
          "name": "vault",
          "type": "address"
        },
        {
          "indexed": true,
          "internalType": "uint256",
          "name": "policyId",
          "type": "uint256"
        }
      ],
      "name": "PolicyDeactivated",
      "type": "event"
    },
    {
      "anonymous": false,
      "inputs": [
        {
          "indexed": true,
          "internalType": "address",
          "name": "vault",
          "type": "address"
        },
        {
          "indexed": true,
          "internalType": "uint256",
          "name": "policyId",
          "type": "uint256"
        }
      ],
      "name": "PolicyUpdated",
      "type": "event"
    },
    {
      "inputs": [],
      "name": "MAX_EMERGENCY_THRESHOLD",
      "outputs": [
        {
          "internalType": "uint256",
          "name": "",
          "type": "uint256"
        }
      ],
      "stateMutability": "view",
      "type": "function"
    },
    {
      "inputs": [],
      "name": "MAX_RISK_TOLERANCE",
      "outputs": [
        {
          "internalType": "uint256",
          "name": "",
          "type": "uint256"
        }
      ],
      "stateMutability": "view",
      "type": "function"
    },
    {
      "inputs": [],
      "name": "MAX_TRADE_PERCENT",
      "outputs": [
        {
          "internalType": "uint256",
          "name": "",
          "type": "uint256"
        }
      ],
      "stateMutability": "view",
      "type": "function"
    },
    {
      "inputs": [
        {
          "internalType": "address",
          "name": "validator",
          "type": "address"
        }
      ],
      "name": "addAuthorizedValidator",
      "outputs": [],
      "stateMutability": "nonpayable",
      "type": "function"
    },
    {
      "inputs": [
        {
          "internalType": "address",
          "name": "",
          "type": "address"
        }
      ],
      "name": "authorizedValidators",
      "outputs": [
        {
          "internalType": "bool",
          "name": "",
          "type": "bool"
        }
      ],
      "stateMutability": "view",
      "type": "function"
    },
    {
      "inputs": [
        {
          "internalType": "address",
          "name": "vault",
          "type": "address"
        }
      ],
      "name": "deactivatePolicy",
      "outputs": [],
      "stateMutability": "nonpayable",
      "type": "function"
    },
    {
      "inputs": [
        {
          "internalType": "address",
          "name": "vault",
          "type": "address"
        }
      ],
      "name": "getPolicy",
      "outputs": [
        {
          "components": [
            {
              "internalType": "uint256",
              "name": "riskTolerance",
              "type": "uint256"
            },
            {
              "internalType": "uint256",
              "name": "maxTradePercent",
              "type": "uint256"
            },
            {
              "internalType": "uint256",
              "name": "emergencyThreshold",
              "type": "uint256"
            },
            {
              "internalType": "address[]",
              "name": "allowedDex",
              "type": "address[]"
            },
            {
              "internalType": "bool",
              "name": "isActive",
              "type": "bool"
            },
            {
              "internalType": "uint256",
              "name": "createdAt",
              "type": "uint256"
            },
            {
              "internalType": "uint256",
              "name": "updatedAt",
              "type": "uint256"
            }
          ],
          "internalType": "struct PolicyManager.Policy",
          "name": "policy",
          "type": "tuple"
        }
      ],
      "stateMutability": "view",
      "type": "function"
    },
    {
      "inputs": [
        {
          "internalType": "address",
          "name": "vault",
          "type": "address"
        }
      ],
      "name": "hasActivePolicy",
      "outputs": [
        {
          "internalType": "bool",
          "name": "hasPolicy",
          "type": "bool"
        }
      ],
      "stateMutability": "view",
      "type": "function"
    },
    {
      "inputs": [],
      "name": "owner",
      "outputs": [
        {
          "internalType": "address",
          "name": "",
          "type": "address"
        }
      ],
      "stateMutability": "view",
      "type": "function"
    },
    {
      "inputs": [
        {
          "internalType": "address",
          "name": "validator",
          "type": "address"
        }
      ],
      "name": "removeAuthorizedValidator",
      "outputs": [],
      "stateMutability": "nonpayable",
      "type": "function"
    },
    {
      "inputs": [],
      "name": "renounceOwnership",
      "outputs": [],
      "stateMutability": "nonpayable",
      "type": "function"
    },
    {
      "inputs": [
        {
          "internalType": "address",
          "name": "vault",
          "type": "address"
        },
        {
          "internalType": "uint256",
          "name": "riskTolerance",
          "type": "uint256"
        },
        {
          "internalType": "uint256",
          "name": "maxTradePercent",
          "type": "uint256"
        },
        {
          "internalType": "uint256",
          "name": "emergencyThreshold",
          "type": "uint256"
        },
        {
          "internalType": "address[]",
          "name": "allowedDex",
          "type": "address[]"
        }
      ],
      "name": "setPolicy",
      "outputs": [],
      "stateMutability": "nonpayable",
      "type": "function"
    },
    {
      "inputs": [
        {
          "internalType": "address",
          "name": "newOwner",
          "type": "address"
        }
      ],
      "name": "transferOwnership",
      "outputs": [],
      "stateMutability": "nonpayable",
      "type": "function"
    },
    {
      "inputs": [
        {
          "internalType": "address",
          "name": "vault",
          "type": "address"
        },
        {
          "internalType": "uint8",
          "name": "actionType",
          "type": "uint8"
        },
        {
          "internalType": "bytes",
          "name": "params",
          "type": "bytes"
        }
      ],
      "name": "validateAction",
      "outputs": [
        {
          "internalType": "bool",
          "name": "isValid",
          "type": "bool"
        },
        {
          "internalType": "string",
          "name": "message",
          "type": "string"
        }
      ],
      "stateMutability": "view",
      "type": "function"
    },
    {
      "inputs": [
        {
          "internalType": "address",
          "name": "",
          "type": "address"
        }
      ],
      "name": "vaultPolicies",
      "outputs": [
        {
          "internalType": "uint256",
          "name": "riskTolerance",
          "type": "uint256"
        },
        {
          "internalType": "uint256",
          "name": "maxTradePercent",
          "type": "uint256"
        },
        {
          "internalType": "uint256",
          "name": "emergencyThreshold",
          "type": "uint256"
        },
        {
          "internalType": "bool",
          "name": "isActive",
          "type": "bool"
        },
        {
          "internalType": "uint256",
          "name": "createdAt",
          "type": "uint256"
        },
        {
          "internalType": "uint256",
          "name": "updatedAt",
          "type": "uint256"
        }
      ],
      "stateMutability": "view",
      "type": "function"
    }
  ],
  "bytecode": "0x6080806040523461005b5760008054336001600160a01b0319821681178355916001600160a01b03909116907f8be0079c531659141344cd1fd0a4f28419497f9722a3daafe3b4186f6b6457e09080a36112a090816100618239f35b600080fdfe6080604052600436101561001257600080fd5b60003560e01c80630b2a892a14610c0e5780633791dc6a14610a8c578063388cfb3b146102d85780635871416314610a4d5780635eba2526146109d75780635f79b26b1461056e5780636c26f2bc14610529578063715018a6146104d05780638da5cb5b146104a7578063b0d5e4d5146103b7578063bb287131146102dd578063d04ac29d146102d8578063dbe3051d146102d8578063e9340a781461018f5763f2fde38b146100c157600080fd5b3461018a57602036600319011261018a576100da610c50565b6100e2610c82565b6001600160a01b0390811690811561013657600054826bffffffffffffffffffffffff60a01b821617600055167f8be0079c531659141344cd1fd0a4f28419497f9722a3daafe3b4186f6b6457e0600080a3005b60405162461bcd60e51b815260206004820152602660248201527f4f776e61626c653a206e6577206f776e657220697320746865207a65726f206160448201526564647265737360d01b6064820152608490fd5b600080fd5b3461018a5760608060031936011261018a576101a9610c50565b906024359060ff8216820361018a576044359267ffffffffffffffff9081851161018a573660238601121561018a57846004013591821161018a57366024838701011161018a57336000526020936002855260ff6040600020541680156102c4575b1561027157602461021f9495960191610d99565b6040519384921515835260408184015281519182604085015260005b83811061025b575050600083830185015250601f01601f19168101030190f35b818101830151878201870152869450820161023b565b60405162461bcd60e51b815260048101869052602560248201527f506f6c6963794d616e616765723a20556e617574686f72697a65642076616c696044820152643230ba37b960d91b6064820152608490fd5b506000546001600160a01b0316331461020b565b610c66565b3461018a57602036600319011261018a576102f6610c50565b6102fe610c82565b6001600160a01b0316600081815260016020526040902060050154156103665780600052600160205260406000206004810160ff198154169055600642910155807f3ffdfc47aeee903849a80971f2e5b39d79fcc09d99d84dc63a313059b9e14cdd600080a3005b60405162461bcd60e51b8152602060048201526024808201527f506f6c6963794d616e616765723a20506f6c69637920646f6573206e6f7420656044820152631e1a5cdd60e21b6064820152608490fd5b3461018a5760208060031936011261018a576001600160a01b03806103da610c50565b166000526001808352604060002090604051926103f684610d23565b8254845281830154858501526002830154604085015260038301604051908193849288835491828152019260005288600020946000905b8a83831061048d57505050505061044692500382610d77565b606083015260ff60048201541615159182608082015260c060066005840154938460a0850152015491015215159081610485575b506040519015158152f35b90508261047a565b87548216865296840196889650909401939083019061042d565b3461018a57600036600319011261018a576000546040516001600160a01b039091168152602090f35b3461018a57600036600319011261018a576104e9610c82565b600080546001600160a01b0319811682556001600160a01b03167f8be0079c531659141344cd1fd0a4f28419497f9722a3daafe3b4186f6b6457e08280a3005b3461018a57602036600319011261018a57610542610c50565b61054a610c82565b6001600160a01b03166000908152600260205260409020805460ff19166001179055005b3461018a5760a036600319011261018a57610587610c50565b67ffffffffffffffff806084351161018a5736602360843501121561018a57608435600401351161018a573660246084356004013560051b60843501011161018a576105d1610c82565b606460243511610984576064604435116109335760648035116108db576001600160a01b0381161561088a5760843560040135156108305760018060a01b0381166000526001602052604060002060058101541560243582556044356001830155606435600283015560048201600160ff1982541617905542600683015560038201546000600384015580610806575b5060005b6084356004013581106106e35750156106b15742600591909101556001600160a01b0316807f0c82a59457f321d45ec38f6aaf95786bb68907c4273ed492d000832b5951c486600080a3005b506001600160a01b0316807f6d69364a3d2877037e33cea027500f2c22234886348c83cca1207d145b52bb23600080a3005b6001600160a01b0361070861070383608435600481013590602401610cff565b610d0f565b16156107b6576107276107038260843560040135602460843501610cff565b90600384015491680100000000000000008310156107a0576001830180600387015583101561078a5761078592600386016000526020600020019060018060a01b03166bffffffffffffffffffffffff60a01b825416179055610cda565b610665565b634e487b7160e01b600052603260045260246000fd5b634e487b7160e01b600052604160045260246000fd5b60405162461bcd60e51b815260206004820152602260248201527f506f6c6963794d616e616765723a20496e76616c696420444558206164647265604482015261737360f01b6064820152608490fd5b600383016000526020600020908101905b8181106108245750610661565b60008155600101610817565b60405162461bcd60e51b815260206004820152602c60248201527f506f6c6963794d616e616765723a204d7573742073706563696679206174206c60448201526b0cac2e6e840dedcca40888ab60a31b6064820152608490fd5b60405162461bcd60e51b8152602060048201526024808201527f506f6c6963794d616e616765723a20496e76616c6964207661756c74206164646044820152637265737360e01b6064820152608490fd5b60405162461bcd60e51b815260206004820152602a60248201527f506f6c6963794d616e616765723a20496e76616c696420656d657267656e6379604482015269081d1a1c995cda1bdb1960b21b6064820152608490fd5b60405162461bcd60e51b8152602060048201526024808201527f506f6c6963794d616e616765723a20496e76616c69642074726164652070657260448201526318d95b9d60e21b6064820152608490fd5b60405162461bcd60e51b815260206004820152602560248201527f506f6c6963794d616e616765723a20496e76616c6964207269736b20746f6c6560448201526472616e636560d81b6064820152608490fd5b3461018a57602036600319011261018a576001600160a01b036109f8610c50565b16600052600160205260c06040600020805490600181015490600281015460ff6004830154169060066005840154930154936040519586526020860152604085015215156060840152608083015260a0820152f35b3461018a57602036600319011261018a576001600160a01b03610a6e610c50565b166000526002602052602060ff604060002054166040519015158152f35b3461018a5760208060031936011261018a57610aa6610c50565b600060c0604051610ab681610d23565b82815282858201528260408201526060808201528260808201528260a0820152015260018060a01b0380911660005260019182815260406000209160405192610afe84610d23565b805484528481015493838101948552600282015492604082019384526003830191604051928387825491828152019160005287600020908a60005b828110610bf9575050505083610b50910384610d77565b6060810192835260ff60048501541692608082019315158452600660058601549560a0840196875201549560c0830196875260405198888a526101008a019351898b01525160408a0152516060890152519560e0608089015286518092528061012089019701926000905b838210610be257505050505084955051151560a08501525160c08401525160e08301520390f35b8451811689529782019793820193908a0190610bbb565b835487168552938a0193928101928101610b39565b3461018a57602036600319011261018a57610c27610c50565b610c2f610c82565b6001600160a01b03166000908152600260205260409020805460ff19169055005b600435906001600160a01b038216820361018a57565b3461018a57600036600319011261018a57602060405160648152f35b6000546001600160a01b03163303610c9657565b606460405162461bcd60e51b815260206004820152602060248201527f4f776e61626c653a2063616c6c6572206973206e6f7420746865206f776e65726044820152fd5b6000198114610ce95760010190565b634e487b7160e01b600052601160045260246000fd5b919081101561078a5760051b0190565b356001600160a01b038116810361018a5790565b60e0810190811067ffffffffffffffff8211176107a057604052565b6060810190811067ffffffffffffffff8211176107a057604052565b6020810190811067ffffffffffffffff8211176107a057604052565b90601f8019910116810190811067ffffffffffffffff8211176107a057604052565b919392909360018060a01b039283600091168152600190602091808352604097888320895197610dc889610d23565b8154895283820154868a015260028201548b8a01528a5160038301805480835290875287872091928391828a019189905b898c848410610f71575050505050610e1392500382610d77565b606089015260ff6004820154169060808901911515825260066005820154918260a08c0152015460c08a015215610f21575115610ed95760ff169081610e665750505050610e62939450610fac565b9091565b8103610e7a57505050610e62939450611128565b600203610e8e575050610e629394506111c5565b91509250656e207479706560d01b9150937f506f6c6963794d616e616765723a20556e737570706f7274656420616374696f815193610ecc85610d3f565b6026855284015282015290565b505091509250606560f81b9150937f506f6c6963794d616e616765723a20506f6c69637920697320696e6163746976815193610f1485610d3f565b6021855284015282015290565b50505091509250671bdc881d985d5b1d60c21b9150937f506f6c6963794d616e616765723a204e6f20706f6c69637920666f756e642066815193610f6485610d3f565b6028855284015282015290565b87548316865296810196889650909401939190910190610df9565b8115610f96570490565b634e487b7160e01b600052601260045260246000fd5b91829160609384918101031261018a576001600160a01b038235818116939084900361018a5760209384820135926000805b88870151805182101561110357838986928460051b010151161461100a5761100590610cda565b610fde565b50505050909192935060015b156110b357606482029180830460641490151715610ce9578391604061103e92013590610f8c565b9101511061105d575060019060405161105681610d5b565b6000815290565b906000917f506f6c6963794d616e616765723a2054726164652073697a65206578636565646040519161108f83610d3f565b60318352820152701cc81b585e1a5b5d5b48185b1b1bddd959607a1b604082015290565b505050906000917f506f6c6963794d616e616765723a20444558206e6f7420616c6c6f7765642062604051916110e883610d3f565b60288352820152677920706f6c69637960c01b604082015290565b50509293949596505050611016565b919082604091031261018a576020823592013590565b61113491810190611112565b90606481029080820460641490151715610ce95760209161115491610f8c565b9101511061116b5760019060405161105681610d5b565b60009060405161117a81610d3f565b603581527f506f6c6963794d616e616765723a204c656e64696e6720616d6f756e7420657860208201527418d959591cc81b585e1a5b5d5b48185b1b1bddd959605a1b604082015290565b6111d191810190611112565b90606481029080820460641490151715610ce9576020916111f191610f8c565b910151106112085760019060405161105681610d5b565b60009060405161121781610d3f565b603781527f506f6c6963794d616e616765723a20426f72726f77696e6720616d6f756e742060208201527f65786365656473206d6178696d756d20616c6c6f77656400000000000000000060408201529056fea26469706673582212209a41db6b606f18368e8165e59fd38faeea291e9338b5487ed44ead263d268a9b64736f6c63430008130033",
  "linkReferences": {},
  "deployedLinkReferences": {}
}